:020000040000FA
:0400000060EF0EF0AF
:10080000000D4C757A206D65646964613A20256439
:10081000206C7578730A0D000D0A53697374656D49
:100820006120496E69636961646F0A0D00001250AE
:10083000800B1F6E12501224266E11AE22EF04F0B0
:1008400024EF04F025EF04F026802650D8B42BEFD7
:1008500004F02DEF04F042EF04F02628D8A433EF83
:1008600004F035EF04F03DEF04F0000E0F6E000EC3
:10087000106E000E116E000E126E118E000E126EB2
:100880004AEF04F0000E0F6E000E106E000E116E97
:10089000000E126E1650800B1F1A16501624276E6B
:1008A00015AE55EF04F057EF04F058EF04F0278031
:1008B0002750D8B45EEF04F060EF04F075EF04F059
:1008C0002728D8A466EF04F068EF04F070EF04F076
:1008D000000E136E000E146E000E156E000E166ED6
:1008E000158E000E166E7DEF04F0000E136E000ED6
:1008F000146E000E156E000E166E135014101510A7
:100900001610D8A486EF04F088EF04F0A0EF04F0EE
:10091000000E0F6E000E106E000E116E000E126EA5
:10092000800E11127F0E12121F5012120FC00FF004
:1009300010C010F011C011F012C012F0E3EF05F07A
:100940002650D8A4A6EF04F0A8EF04F0B2EF04F00C
:10095000000E0F6E000E106E000E116E000E126E65
:10096000E3EF05F0275026C017F0186A175E000E57
:10097000185A7F0E1724206E000E1820216E0FC00B
:100980001BF010C01CF011C01DF012C01EF0000EB4
:100990000F6E000E106E000E116E000E126E000E25
:1009A000226E000E236E000E246E000E256E000EC9
:1009B000276E13EF05F02750D8B4E1EF04F0E3EF12
:1009C00004F0FAEF04F0D8901B361C361D361E36A4
:1009D000D8900F3610361136123625AEF2EF04F0ED
:1009E000F4EF04F0F5EF04F00F80D89022362336B0
:1009F0002436253613501B5C14501C5815501D58B6
:100A000016501E58D8A007EF05F009EF05F012EFB9
:100A100005F0258C13501B5E14501C5A15501D5A9E
:100A200016501E5A272A190E276419EF05F01BEFDE
:100A300005F0DBEF04F01B501C101D101E10D8B485
:100A400024EF05F026EF05F03EEF05F022803EEFA3
:100A500005F0D8900F3610361136123625AE33EF2A
:100A600005F035EF05F036EF05F00F80D89022360F
:100A70002336243625362006D8A0210611AE43EFB2
:100A800005F045EF05F029EF05F0000E276E25AEC5
:100A90004CEF05F04EEF05F072EF05F0FF0E22145B
:100AA000176EFF0E2314186EFF0E2414196E7F0E9E
:100AB00025141A6E1750181019101A10D8B463EFB5
:100AC00005F065EF05F069EF05F0010E276E72EF96
:100AD00005F00FA06EEF05F070EF05F072EF05F076
:100AE00065EF05F02750D8B478EF05F07AEF05F000
:100AF0009EEF05F0010E0F26000E10221122122289
:100B000012A085EF05F087EF05F09EEF05F00FC00E
:100B100017F010C018F011C019F012C01AF01A34F2
:100B20001A3219321832173217C00FF018C010F0ED
:100B300019C011F01AC012F0204A212A21BEA9EFD3
:100B400005F0215008E12028D8A0A9EF05F0ABEF6F
:100B500005F0B6EF05F0000E216E2068000E0F6E56
:100B6000000E106E000E116E000E126E21BEC3EF4D
:100B700005F0215006E12004D8B0C1EF05F0C3EF25
:100B800005F0D1EF05F0000E216E000E206E000E74
:100B90000F6E000E106E000E116E000E126E000E23
:100BA0001F6E20C026F026A0D8EF05F0DAEF05F082
:100BB000DDEF05F0118EDEEF05F0119ED8902630A6
:100BC000126E94EF04F012001EC036F01FC037F012
:100BD00020C038F021C039F022C03AF023C03BF0E9
:100BE00024C03CF025C03DF03DBEF9EF05F0FCEF20
:100BF00005F0010EFDEF05F0000E346E356A34503D
:100C00003510D8B406EF06F008EF06F018EF06F03E
:100C10003D1E3C1E3B1E3A1E391E381E371E366CCA
:100C2000000E3722382239223A223B223C223D2232
:100C3000000193BF1EEF06F020EF06F021EF06F053
:100C4000949393BF2EEF06F0935106E19205D8B02E
:100C50002CEF06F02EEF06F034EF06F0000E316EAA
:100C6000010E306E38EF06F092C030F093C031F0D4
:100C700090C032F091C033F034503510D8A443EF17
:100C800006F045EF06F04CEF06F094A54AEF06F0AB
:100C90004CEF06F04FEF06F03206D8A03306000EF8
:100CA0003F6E1F0E3E6E000EB56FD3EF06F03E0690
:100CB000D8A03F06960E3E24D96E000E3F20DA6E75
:100CC00036C001F037C002F038C003F039C004F07C
:100CD0003AC005F03BC006F03CC007F03DC008F04C
:100CE0000A0E096E000E0A6E000E0B6E000E0C6EE0
:100CF000000E0D6E000E0E6E000E0F6E000E106ECA
:100D0000CDEC09F001C026F002C027F003C028F0A6
:100D100004C029F005C02AF006C02BF007C02CF053
:100D200008C02DF026C013F028C014F0EFEC0DF031
:100D30001350300FDF6E3006D8A031063206D8A02F
:100D4000330636C001F037C002F038C003F039C0B6
:100D500004F03AC005F03BC006F03CC007F03DC0CF
:100D600008F00A0E096E000E0A6E000E0B6E000EE1
:100D70000C6E000E0D6E000E0E6E000E0F6E000E4D
:100D8000106E09EC09F001C036F002C037F003C064
:100D900038F004C039F005C03AF006C03BF007C097
:100DA0003CF008C03DF03FBEDEEF06F03F5008E1EA
:100DB0003E04D8A0DEEF06F0E0EF06F011EF07F0FA
:100DC00036503710381039103A103B103C103D1097
:100DD000D8A4EDEF06F0EFEF06F057EF06F031BEC6
:100DE000FCEF06F0315006E13004D8B0FAEF06F01F
:100DF000FCEF06F057EF06F033BE07EF07F0335075
:100E000008E13204D8A007EF07F009EF07F011EF6F
:100E100007F0000194B30FEF07F011EF07F057EF61
:100E200006F034503510D8A418EF07F01AEF07F089
:100E300022EF07F0000194A520EF07F022EF07F062
:100E400040EF07F03E06D8A03F0634503510D8A436
:100E50002CEF07F02EEF07F034EF07F0000E2F6EA7
:100E60002B0E2E6E38EF07F0000E2F6E2D0E2E6E0D
:100E7000960E3E24D96E000E3F20DA6E2EC0DFFFA4
:100E80001CC011F01DC012F0960E3E24136E000E11
:100E90003F20146E32C015F033C016F0EDEC0BF0AD
:100EA00011C01CF012C01DF0120042C0D9FF43C097
:100EB000DAFFDECFF6FFDDCFF7FF0800F550250A99
:100EC000D8A465EF07F067EF07F013EF08F042C012
:100ED000D9FF43C0DAFFDE2A000EDD22000E00013A
:100EE000916F000E906F90C094F091C095F0926950
:100EF000936942C0D9FF43C0DAFFDECFF6FFDDCFF2
:100F0000F7FF0800F550640AD8B489EF07F08BEFBB
:100F100007F09DEF07F042C0D9FF43C0DAFFDECFF4
:100F2000F6FFDDCFF7FF0800F550690AD8A49BEF64
:100F300007F09DEF07F0DDEF07F042C0D9FF43C097
:100F4000DAFFDE2A000EDD2244C0D9FF45C0DAFFF9
:100F5000DFCF46F0020EDE26DFCF47F0000EDD22A7
:100F600046C0D9FF47C0DAFFDECF48F0DDCF49F0F9
:100F7000000E49BEFF0E4A6E4B6E4C6E4D6E4E6EAD
:100F80004F6E40C01CF041C01DF048C01EF049C06B
:100F90001FF04AC020F04BC021F04CC022F04DC0E1
:100FA00023F04EC024F04FC025F0E4EC05F01CC047
:100FB00040F01DC041F02EEF08F042C0D9FF43C001
:100FC000DAFFDECFF6FFDDCFF7FF0800F550250A88
:100FD000D8A4EDEF07F0EFEF07F006EF08F042C0FE
:100FE000D9FF43C0DAFFDE2A000EDD22000E026EBA
:100FF000250E016E40C003F041C004F088EC0BF0F8
:10100000000E416E010E406E2EEF08F042C0D9FF77
:1010100043C0DAFFDE2A000EDD22000E416E000E14
:10102000406E2EEF08F042C0D9FF43C0DAFFDECF9A
:10103000F6FFDDCFF7FF0800F550016E026A40C0F1
:1010400003F041C004F088EC0BF042C0D9FF43C06C
:10105000DAFFDE2A000EDD2200EF08F01200096E32
:101060000950D8B436EF08F038EF08F05AEF08F01E
:1010700004BE3FEF08F03DEF08F05AEF08F001C062
:1010800005F002C006F003C007F004C008F0051E1A
:10109000061E071E081E052A000E06220722082229
:1010A00005C00BF006C00CF007C00DF008C00EF034
:1010B00062EF08F001C00BF002C00CF003C00DF0AD
:1010C00004C00EF00150021003100410D8A46BEFFE
:1010D00008F06DEF08F077EF08F0000E016E000EDB
:1010E000026E000E036E000E046E08EF09F0960EFD
:1010F0000A6E81EF08F00A2AD8900E320D320C32B7
:101100000B32000E0B14056E000E0C14066E000E52
:101110000D14076EFE0E0E14086E05500610071013
:101120000810D8A496EF08F098EF08F07BEF08F0CD
:10113000A6EF08F00A2A010E0B26000E0C220D2243
:101140000E22D8900E320D320C320B32000E0B14E0
:10115000056E000E0C14066E000E0D14076EFF0EC9
:101160000E14086E0550061007100810D8A4BBEF27
:1011700008F0BDEF08F09AEF08F0C5EF08F00A0696
:10118000D8900B360C360D360E360DBECAEF08F071
:10119000CCEF08F0D4EF08F0020E0A60D2EF08F0AE
:1011A000D4EF08F0BFEF08F00AB0D9EF08F0DBEF9A
:1011B00008F0DCEF08F00D9ED8900A320AC005F066
:1011C000066A076A086A05C008F0076A066A056ABF
:1011D00005500B1206500C1207500D1208500E123B
:1011E0000950D8B4F6EF08F0F8EF08F000EF09F076
:1011F00004BEFFEF08F0FDEF08F000EF09F00E8EDF
:101200000BC001F00CC002F00DC003F00EC004F0E2
:101210001200000E126E10BE12EF09F010EF09F06E
:1012200024EF09F0101E0F1E0E1E0D1E0C1E0B1EAD
:101230000A1E096C000E0A220B220C220D220E221D
:101240000F221022010E126E08BE2BEF09F029EFBB
:1012500009F03DEF09F0081E071E061E051E041EBC
:10126000031E021E016C000E02220322042205222C
:10127000062207220822010E121A20EE13F0070E92
:10128000DE6AE806FDE209500A100B100C100D1082
:101290000E100F101010D8B450EF09F052EF09F0F3
:1012A000A4EF09F0010E116E60EF09F0D890093635
:1012B0000A360B360C360D360E360F361036112A1E
:1012C00010AE65EF09F067EF09F056EF09F0D8901E
:1012D00013361436153616361736183619361A36AA
:1012E0000950015C0A5002580B5003580C50045826
:1012F0000D5005580E5006580F50075810500858FA
:10130000D8A085EF09F087EF09F098EF09F00950B0
:10131000015E0A50025A0B50035A0C50045A0D50E9
:10132000055A0E50065A0F50075A1050085A13808B
:10133000D89010320F320E320D320C320B320A328C
:101340000932112E67EF09F01250D8B4AAEF09F054
:10135000ACEF09F0BCEF09F01A1E191E181E171E7B
:10136000161E151E141E136C000E142215221622B2
:101370001722182219221A2213C001F014C002F0F9
:1013800015C003F016C004F017C005F018C006F031
:1013900019C007F01AC008F01200000E126E08BE45
:1013A000D6EF09F0D4EF09F0E8EF09F0081E071EA8
:1013B000061E051E041E031E021E016C000E0222E4
:1013C000032204220522062207220822010E126EA1
:1013D00010BEEFEF09F0EDEF09F0FFEF09F0101E7E
:1013E0000F1E0E1E0D1E0C1E0B1E0A1E096C000E7B
:1013F0000A220B220C220D220E220F22102209504B
:101400000A100B100C100D100E100F101010D8B485
:101410000CEF0AF00EEF0AF056EF0AF0010E116E13
:101420001CEF0AF0D89009360A360B360C360D360A
:101430000E360F361036112A10AE21EF0AF023EFC8
:101440000AF012EF0AF00950015C0A5002580B50E2
:1014500003580C5004580D5005580E5006580F50A4
:10146000075810500858D8A038EF0AF03AEF0AF0A1
:101470004AEF0AF00950015E0A50025A0B50035A13
:101480000C50045A0D50055A0E50065A0F50075A68
:101490001050085AD89010320F320E320D320C32E2
:1014A0000B320A320932112E23EF0AF01250D8B44F
:1014B0005CEF0AF05EEF0AF06EEF0AF0081E071EFE
:1014C000061E051E041E031E021E016C000E0222D3
:1014D00003220422052206220722082201C001F06D
:1014E00002C002F003C003F004C004F005C005F020
:1014F00006C006F007C007F008C008F01200000E92
:101500000A6E08BE88EF0AF086EF0AF092EF0AF042
:10151000081E071E061E056C000E06220722082262
:10152000010E0A6E04BE99EF0AF097EF0AF0A3EFDE
:101530000AF0041E031E021E016C000E022203228A
:101540000422010E0A1A000E0B6E000E0C6E000E25
:101550000D6E000E0E6E0550061007100810D8B460
:10156000B4EF0AF0B6EF0AF0ECEF0AF0010E096EE4
:10157000C0EF0AF0D8900536063607360836092A35
:1015800008AEC5EF0AF0C7EF0AF0BAEF0AF0D8903C
:101590000B360C360D360E360550015C06500258DF
:1015A0000750035808500458D8A0D9EF0AF0DBEFD1
:1015B0000AF0E4EF0AF00550015E0650025A0750A7
:1015C000035A0850045A0B80D8900832073206326A
:1015D0000532092EC7EF0AF00A50D8B4F2EF0AF02C
:1015E000F4EF0AF0FCEF0AF00E1E0D1E0C1E0B6C41
:1015F000000E0C220D220E220BC001F00CC002F0D6
:101600000DC003F00EC004F012002A342B34316EEA
:101610003150D8A40EEF0BF010EF0BF01AEF0BF0D7
:10162000000E286E000E296E000E2A6E000E2B6E24
:1016300087EF0BF028C02CF029C02DF02AC02EF027
:101640002BC02FF0200E2AEF0BF0D8902F322E3225
:101650002D322C32E82E25EF0BF02C50306E2A8ED6
:10166000FF0E2816FF0E2916FF0E2A16000E2B1647
:10167000960E315E31BE41EF0BF03FEF0BF057EFAE
:101680000BF03150800A970FD8B049EF0BF04BEFB9
:101690000BF04DEF0BF010EF0BF0D8902B322A32FD
:1016A00029322832313E4DEF0BF06FEF0BF01F0E59
:1016B00031645DEF0BF05FEF0BF067EF0BF010EFB5
:1016C0000BF0D890283629362A362B363106315081
:1016D000D8A46DEF0BF06FEF0BF061EF0BF0305013
:1016E000D8B475EF0BF077EF0BF07FEF0BF02B1EFC
:1016F0002A1E291E286C000E29222A222B2228C0ED
:1017000028F029C029F02AC02AF02BC02BF01200A3
:1017100003500410D8B48FEF0BF091EF0BF09AEF59
:101720000BF003500410D8A498EF0BF09AEF0BF0D5
:101730009FEF0BF001509AEC0EF0ECEF0BF020EE67
:1017400004F00350D9260450DA22DE50DE10D8B45B
:10175000ACEF0BF0AEEF0BF0C9EF0BF020EE04F0A6
:101760000350D9260450DA2210EE02F00350E1268D
:101770000450E222DE50E65CE650800A096EDE503C
:10178000800A0958D8B0C7EF0BF0C9EF0BF0ECEFA7
:101790000BF020EE02F00350D9260450DA22DECFFF
:1017A00005F0DDCF06F003C0D9FF04C0DAFFDECFBD
:1017B00007F0DDCF08F005500724D96E0650082049
:1017C000DA6E01C0DFFF20EE02F00350D92604508C
:1017D000DA22DE2A000EDD221200000194A1F3EFCE
:1017E0000BF0F5EF0BF0FFEF0BF013C00AF014C095
:1017F0000BF011C00CF012C00DF0CDEC0DF016BEC8
:1018000004EF0CF006EF0CF00CEF0CF015C01AF022
:1018100016C01BF010EF0CF0000E1B6E000E1A6EBF
:10182000000E196E000E186E22EF0CF0000E026E04
:10183000200E016E11C003F012C004F088EC0BF012
:10184000184A192A1A50185C1950800A176E1B5032
:10185000800A1758D8A02FEF0CF031EF0CF016EFDC
:101860000CF0000194B137EF0CF039EF0CF043EFBE
:101870000CF013C00AF014C00BF011C00CF012C031
:101880000DF0CDEC0DF013C001F014C002F00FEC20
:101890000EF01A500124116E1B500220126E12001D
:1018A000000E376E000E366E92EC0EF0470E8CEC8A
:1018B0000EF0010E2AEC0EF0000E2AEC0EF0376E40
:1018C00096EC0EF03750386E396A3A6A3B6A9A0ED7
:1018D000136E990E146E990E156E3F0E166E38C06B
:1018E00001F039C002F03AC003F03BC004F0000E32
:1018F0002FEC08F001C00FF002C010F003C011F08F
:1019000004C012F017EC04F00FC028F010C029F04A
:1019100011C02AF012C02BF005EC0BF028C038F0F3
:1019200029C039F02AC03AF02BC03BF038C032F061
:1019300039C033F03AC034F03BC035F01200800EAD
:101940000F6E250E106E000E116E000E126EE7EC7B
:101950000CF0180E026E080E036E50EC0DF06BECDE
:101960000EF081EC0EF0100EA8EC0DF03CC08AF0E9
:101970003DC08BF03EC08CF03FC08DF06C0E586EB9
:10198000000E596E010E5A6E080E5B6E8AC05CF036
:101990008BC05DF08CC05EF08DC05FF07FEC0DF011
:1019A0006C0E026E000E036E50EC0DF0030E000183
:1019B0006B6F8A0E6A6F550EE82EFED76A2FFCD722
:1019C0006B2FFAD700D0B3EF0CF000EF00F0949C2F
:1019D000948E100E056E000E066E000E076E000E41
:1019E000086E000E016E090E026E3D0E036E000EB3
:1019F000046E7FEC0AF001C017F002C018F003C0BB
:101A000019F004C01AF017C001F018C002F019C094
:101A100003F01AC004F00FC005F010C006F011C0AA
:101A200007F012C008F07FEC0AF00104AF6EAC843E
:101A3000AC98AB8EAC9CAC8AAB9CAB88120052C00D
:101A400056F053C057F0000E00018F6F000E8E6FDE
:101A50003DEF0DF050C040F051C041F0560E426EC7
:101A6000000E436E54C044F055C045F055EC07F0ED
:101A7000405000018E2741508F2356C0F6FF57C0BB
:101A8000F7FF0800F5500009D8A449EF0DF04BEF1F
:101A90000DF02AEF0DF08EC050F08FC051F0120003
:101AA00066EF0DF002C0F6FF03C0F7FFF86A070EFD
:101AB000F76403D00800F55005D0F6CFE1FFF7CF6B
:101AC000E2FFE75076EC0EF0024A032A02C0F6FF6E
:101AD00003C0F7FFF86A070EF76403D00800F5505B
:101AE00005D0F6CFE1FFF7CFE2FFE7500009D8A419
:101AF0007CEF0DF07EEF0DF052EF0DF012005C0E5A
:101B00000001626F000E636F58C064F059C065F049
:101B1000000E676F000E666F000E696F000E686F33
:101B2000640E506E000E516E5AC052F05BC053F0FE
:101B3000620E546E000E556E1FEC0DF000016651E2
:101B40005824D96E67515920DA6E000EDF6E1200EC
:101B5000416E010E54EC0EF0415054EC0EF050EC7E
:101B60000CF032C042F033C043F034C044F035C012
:101B700045F0EA0E406EC30EE82EFED7402EFCD78D
:101B800000F0000E54EC0EF042C03CF043C03DF0BB
:101B900044C03EF045C03FF01200000E106E000E33
:101BA0000F6EDEEF0DF00EC001F0026A0CC003F004
:101BB0000DC004F088EC0BF00F4A102A0F500A24D5
:101BC000D96E10500B20DA6EDF500E6E0E50D8A476
:101BD000ECEF0DF0EEEF0DF0D3EF0DF0120014BEB0
:101BE000FCEF0DF0145006E11304D8B0FAEF0DF03D
:101BF000FCEF0DF00AEF0EF013C015F014C016F054
:101C0000151E161E154A162A15C013F016C014F01C
:101C10000EEF0EF013C013F014C014F0120001C048
:101C200003F002C004F017EF0EF0014A022A01C0CF
:101C3000D9FF02C0DAFFDF50D8A421EF0EF023EF66
:101C40000EF015EF0EF00350015C016E04500258C7
:101C5000026E1200026E41EC0EF0C58641EC0EF0F1
:101C6000C9CF03F041EC0EF00250D8B43AEF0EF0B9
:101C70003DEF0EF0C58A3EEF0EF0C59AC5880350C1
:101C80001200C5CF01F01F0E0116D8A44AEF0EF0C6
:101C90004CEF0EF041EF0EF0C7B451EF0EF053EFE2
:101CA0000EF041EF0EF01200036E92EC0EF0460EB5
:101CB0008CEC0EF003508CEC0EF096EC0EF0120053
:101CC00000EE8EF0280EEE6AE806FDE1000EF86EDA
:101CD00000019FEF0CF093809382800EC76E280E58
:101CE000C66E000EC56E090EC86E1200016E01C0F0
:101CF000ADFFACA27EEF0EF080EF0EF079EF0EF0AC
:101D00001200820E046EDE0EE82EFED7042EFCD7E3
:101D1000000E54EC0EF01200026E41EC0EF002C008
:101D2000C9FF120041EC0EF0C580120041EC0EF02C
:061D3000C5841200120040
:020000040020DA
:08000000FFFFFFFFFFFFFFFF00
:020000040030CA
:0E0000000000191EFF8180FF0FC00FE00F40AF
:00000001FF
