:020000040000FA
:0400000007EF00F016
:100008005F829CED1BF0FCEF1BF0000E156E000EDE
:100018001E6E000E1F6E000E206E000E216E9FEFEA
:1000280002F029EC1CF0226E2F0E22641EEF00F065
:1000380020EF00F031EF00F03A0E226026EF00F0DA
:1000480028EF00F031EF00F0300E225E22501E6ED5
:100058001F6A206A216AC1EF02F0400EDFEC1EF031
:10006800010E156EC1EF02F0000E176E000E166E2F
:1000780029EC1CF0226E2F0E226445EF00F047EFAA
:1000880000F092EF00F03A0E22604DEF00F04FEFD3
:1000980000F092EF00F0300E225E7CEF00F022506C
:1000A8001E6E1F6A206A216A1EC001F01FC002F07E
:1000B80020C003F021C004F00A0E056E000E066E83
:1000C800000E076E000E086E36EC1BF001C01EF025
:1000D80002C01FF003C020F004C021F099EF00F027
:1000E80022501E26000E1F222022212299EF00F006
:1000F80016C011F017C012F01250000AD8B487EFDA
:1001080000F099EF00F01150000AD8B453EF00F056
:10011800010AD8B474EF00F099EF00F0010E156EE3
:10012800400EDFEC1EF0C1EF02F0164A172A17BE88
:10013800A7EF00F0175009E1020E165CD8A0A7EF50
:1001480000F0A9EF00F03CEF00F0C1EF02F0000E64
:10015800196E000E186E29EC1CF0226E2F0E226408
:10016800B8EF00F0BAEF00F01EEF01F03A0E22608F
:10017800C0EF00F0C2EF00F01EEF01F0300E225E7B
:1001880004EF01F022501E6E1F6A206A216A1EC009
:1001980001F01FC002F020C003F021C004F0640E7B
:1001A800056E000E066E000E076E000E086E36EC29
:1001B8001BF001C01EF002C01FF003C020F004C0F5
:1001C80021F025EF01F022500A0DF3CF11F0F4CF02
:1001D80012F0000E12BEFF0E136E146E11501E2682
:1001E80012501F22135020221450212225EF01F013
:1001F80022501E26000E1F222022212225EF01F068
:1002080018C011F019C012F01250000AD8B40FEF3C
:1002180001F025EF01F01150000AD8B4C6EF00F044
:10022800010AD8B4E7EF00F0030AD8B4FCEF00F0F5
:1002380025EF01F0010E156E400EDFEC1EF0C1EF48
:1002480002F0184A192A19BE33EF01F0195009E1D2
:10025800030E185CD8A033EF01F035EF01F0AFEFD3
:1002680000F0C1EF02F0000E1B6E000E1A6E29ECB2
:100278001CF0226E2F0E226444EF01F046EF01F0CD
:10028800C3EF01F03A0E22604CEF01F04EEF01F09F
:10029800C3EF01F0300E225EA5EF01F022501E6E72
:1002A8001F6A206A216A1EC001F01FC002F020C028
:1002B80003F021C004F0E80E056E030E066E000E72
:1002C800076E000E086E36EC1BF001C01EF002C06F
:1002D8001FF003C020F004C021F0CAEF01F0225043
:1002E800640DF3CF11F0F4CF12F0000E12BEFF0E22
:1002F800136E146E11501E2612501F221350202206
:1003080014502122CAEF01F022500A0DF3CF11F048
:10031800F4CF12F0000E12BEFF0E136E146E1150C1
:100328001E2612501F221350202214502122CAEFD9
:1003380001F022501E26000E1F2220222122CAEF81
:1003480001F01AC011F01BC012F01250000AD8B404
:10035800B0EF01F0CAEF01F01150000AD8B452EF23
:1003680001F0010AD8B473EF01F0030AD8B488EF9A
:1003780001F0010AD8B49DEF01F0CAEF01F0010EB7
:10038800156E400EDFEC1EF0C1EF02F01A4A1B2A70
:100398001BBED8EF01F01B5009E1040E1A5CD8A06F
:1003A800D8EF01F0DAEF01F03BEF01F0C1EF02F016
:1003B800000E1D6E000E1C6E29EC1CF0226E2F0E16
:1003C8002264E9EF01F0EBEF01F086EF02F03A0E5C
:1003D8002260F1EF01F0F3EF01F086EF02F0300E4A
:1003E800225E64EF02F022501E6E1F6A206A216AA4
:1003F8001EC001F01FC002F020C003F021C004F0AD
:10040800100E056E270E066E000E076E000E086EA3
:1004180036EC1BF001C01EF002C01FF003C020F034
:1004280004C021F08DEF02F022C001F0026A030E31
:10043800046EE80E036E81EC1EF001C011F002C0DC
:1004480012F0000E12BEFF0E136E146E11501E260F
:1004580012501F2213502022145021228DEF02F037
:100468002250640DF3CF11F0F4CF12F0000E12BE3B
:10047800FF0E136E146E11501E2612501F221350B9
:100488002022145021228DEF02F022500A0DF3CFC2
:1004980011F0F4CF12F0000E12BEFF0E136E146EA0
:1004A80011501E2612501F221350202214502122B0
:1004B80022501E26000E1F22202221228DEF02F03C
:1004C8001CC011F01DC012F01250000AD8B46FEF12
:1004D80002F08DEF02F01150000AD8B4F7EF01F0E6
:1004E800010AD8B418EF02F0030AD8B434EF02F0C6
:1004F800010AD8B449EF02F0070AD8B45CEF02F059
:100508008DEF02F0010E156E400EDFEC1EF0C1EF0C
:1005180002F01C4A1D2A1DBE9BEF02F01D5009E186
:10052800050E1C5CD8A09BEF02F09DEF02F0E0EFF7
:1005380001F0C1EF02F00DC011F00EC012F0125020
:10054800000AD8B4AAEF02F0C1EF02F01150010A74
:10055800D8B415EF00F0030AD8B438EF00F0010A58
:10056800D8B4ABEF00F0070AD8B437EF01F0010AAE
:10057800D8B4DCEF01F0C1EF02F00001D951D8A4E2
:10058800C8EF02F0CAEF02F0D2EF02F01550D8B46B
:10059800D0EF02F0D2EF02F0DCEF02F0400E0D6E69
:1005A800000E0E6E000E0F6E000E106EE4EF02F0DD
:1005B8001EC00DF01FC00EF020C00FF021C010F0BB
:1005C800120042C0D9FF43C0DAFFDECFF6FFDDCF0D
:1005D800F7FF0800F550250AD8A4F5EF02F0F7EF69
:1005E80002F051EF05F042C0D9FF43C0DAFFDE2A1E
:1005F800000EDD22000E0001C16F000EC06FC0C0EA
:10060800C4F0C1C0C5F0C269C369000E556E000EC2
:10061800546E5AEF03F00001C48142C0D9FF43C0B1
:10062800DAFFDE2A000EDD225AEF03F00001C48350
:1006380011EF03F00001C48511EF03F00001C48736
:1006480011EF03F00001C48911EF03F0000E556E9D
:10065800010E546E5AEF03F042C0D9FF43C0DAFFCF
:10066800DECFF6FFDDCFF7FF0800F550466E476A8C
:100678004750000AD8B443EF03F02AEF03F046507E
:10068800200AD8B422EF03F0030AD8B426EF03F007
:10069800080AD8B41EEF03F0060AD8B40FEF03F027
:1006A8001D0AD8B41AEF03F02AEF03F0545055107E
:1006B800D8B461EF03F063EF03F030EF03F000010B
:1006C800C4A169EF03F06BEF03F06CEF03F0C49380
:1006D80042C0D9FF43C0DAFFDECFF6FFDDCFF7FF18
:1006E8000800F5502A0AD8A47CEF03F07EEF03F047
:1006F800A7EF03F042C0D9FF43C0DAFFDE2A000E9D
:10070800DD2244C0D9FF45C0DAFFDFCF46F0020E34
:10071800DE26DFCF47F0000EDD2246C0D9FF47C0F6
:10072800DAFFDECFC0F0DDCFC1F0C1BFA0EF03F02C
:100738009EEF03F0EAEF03F0C481C06DC11FD8B08B
:10074800C12BEAEF03F042C0D9FF43C0DAFFDECF86
:1007580008F0DDCF09F01BEC0FF008C0C0F009C0AD
:10076800C1F0BEEF03F042C0D9FF43C0DAFFDE2A72
:10077800000EDD22D00E466EFF0E476E42C0D9FF36
:1007880043C0DAFFDECFF6FFDDCFF7FF0800F550F4
:10079800486E496A465048264750492249500AE15E
:1007A8000A0E485CD8A0DBEF03F0DEEF03F0010E81
:1007B800DFEF03F0000E566E576A56505710D8A454
:1007C800E8EF03F0EAEF03F0B7EF03F042C0D9FF18
:1007D80043C0DAFFDECFF6FFDDCFF7FF0800F550A4
:1007E8002E0AD8A4FAEF03F0FCEF03F07AEF04F036
:1007F800000E0001C36F000EC26F42C0D9FF43C094
:10080800DAFFDE2A000EDD2242C0D9FF43C0DAFF3C
:10081800DECFF6FFDDCFF7FF0800F5502A0AD8A48F
:1008280018EF04F01AEF04F037EF04F042C0D9FFD4
:1008380043C0DAFFDE2A000EDD2244C0D9FF45C0DE
:10084800DAFFDFCF46F0020EDE26DFCF47F0000EDC
:10085800DD2246C0D9FF47C0DAFFDECFC2F0DDCFC8
:10086800C3F07AEF04F042C0D9FF43C0DAFFDECF0D
:1008780008F0DDCF09F01BEC0FF008C0C2F009C08A
:10088800C3F04EEF04F042C0D9FF43C0DAFFDE2ABE
:10089800000EDD22D00E466EFF0E476E42C0D9FF15
:1008A80043C0DAFFDECFF6FFDDCFF7FF0800F550D3
:1008B800486E496A465048264750492249500AE13D
:1008C8000A0E485CD8A06BEF04F06EEF04F0010E3E
:1008D8006FEF04F0000E586E596A58505910D8A49A
:1008E80078EF04F07AEF04F047EF04F042C0D9FF44
:1008F80043C0DAFFDECFF6FFDDCFF7FF0800F55083
:10090800640AD8B48AEF04F08CEF04F09EEF04F088
:1009180042C0D9FF43C0DAFFDECFF6FFDDCFF7FFD5
:100928000800F550690AD8A49CEF04F09EEF04F083
:10093800DEEF04F042C0D9FF43C0DAFFDE2A000E22
:10094800DD2244C0D9FF45C0DAFFDFCF46F0020EF2
:10095800DE26DFCF47F0000EDD2246C0D9FF47C0B4
:10096800DAFFDECF4AF0DDCF4BF0000E4BBEFF0EB4
:100978004C6E4D6E4E6E4F6E506E516E40C01CF0F8
:1009880041C01DF04AC01EF04BC01FF04CC020F003
:100998004DC021F04EC022F04FC023F050C024F0CB
:1009A80051C025F0DDEC0AF01CC040F01DC041F03C
:1009B8006CEF05F042C0D9FF43C0DAFFDECFF6FF87
:1009C800DDCFF7FF0800F550730AD8A4EEEF04F066
:1009D800F0EF04F01BEF05F042C0D9FF43C0DAFF87
:1009E800DE2A000EDD2244C0D9FF45C0DAFFDFCF82
:1009F80046F0020EDE26DFCF47F0000EDD2246C0AD
:100A0800D9FF47C0DAFFDECF52F0DDCF53F040C048
:100A18000AF041C00BF052C00CF053C00DF031EC9D
:100A280012F00AC040F00BC041F06CEF05F042C074
:100A3800D9FF43C0DAFFDECFF6FFDDCFF7FF0800AE
:100A4800F550250AD8A42BEF05F02DEF05F044EF5B
:100A580005F042C0D9FF43C0DAFFDE2A000EDD22CE
:100A6800000E026E250E016E40C003F041C004F076
:100A780048EC17F0000E416E010E406E6CEF05F069
:100A880042C0D9FF43C0DAFFDE2A000EDD22000E85
:100A9800416E000E406E6CEF05F042C0D9FF43C0B6
:100AA800DAFFDECFF6FFDDCFF7FF0800F550016E65
:100AB800026A40C003F041C004F048EC17F042C09D
:100AC800D9FF43C0DAFFDE2A000EDD223EEF05F033
:100AD80012002B50800B346E2B502B243A6E2AAE0A
:100AE80078EF05F07AEF05F07BEF05F03A803A50A1
:100AF800D8B481EF05F083EF05F096EF05F03A28BA
:100B0800D8A489EF05F08BEF05F093EF05F0000E00
:100B1800286E000E296E000E2A6E000E2B6E2A8E8D
:100B28009EEF05F0000E286E000E296E000E2A6E4C
:100B3800000E2B6E2F50800B341A2F502F24396E35
:100B48002EAEA9EF05F0ABEF05F0ACEF05F039805C
:100B58003950D8B4B2EF05F0B4EF05F0C7EF05F09F
:100B68003928D8A4BAEF05F0BCEF05F0C4EF05F0BA
:100B7800000E2C6E000E2D6E000E2E6E000E2F6EC7
:100B88002E8ECFEF05F0000E2C6E000E2D6E000E8F
:100B98002E6E000E2F6E3950D8B4D5EF05F0D7EF72
:100BA80005F0DFEF05F03A50D8A4DDEF05F0DFEFF0
:100BB80005F0E9EF05F0000E286E000E296E000E14
:100BC8002A6E000E2B6E81EF07F02E502802F3CF0D
:100BD8003FF0F4CF40F03F50356E366A376A386AD6
:100BE80040503B6E3C6A3D6A3E6A2D502902F3CF65
:100BF8003FF0F4CF40F03F503526000E3622372222
:100C0800382240503B26000E3C223D223E222C50EA
:100C18002A02F3CF3FF0F4CF40F03F503526000EC4
:100C280036223722382240503B26000E3C223D22F5
:100C38003E2237C038F036C037F035C036F0356A56
:100C48002C502902F3CF3FF0F4CF40F03F50352627
:100C580040503622000E3722000E38222D5028022E
:100C6800F3CF3FF0F4CF40F03F50352640503622C6
:100C7800000E3722000E382237C038F036C037F061
:100C880035C036F0356A2C502802F3CF3FF0F4CF48
:100C980040F03F50352640503622000E3722000ED5
:100CA80038222E502902F3CF3FF0F4CF40F03F50C6
:100CB8003B2640503C22000E3D22000E3E222D5085
:100CC8002A02F3CF3FF0F4CF40F03F503B2640508C
:100CD8003C22000E3D22000E3E222E502A02F3CF67
:100CE8003FF0F4CF40F03F50306E4050316E326AE2
:100CF800336A32C033F031C032F030C031F0306A7C
:100D080030503B2631503C2232503D2233503E2257
:100D180035C030F036C031F037C032F038C033F06B
:100D2800190E9CEF06F0D89033323232313230321D
:100D3800E82E97EF06F030503B2631503C223250D7
:100D48003D2233503E2237C038F036C037F035C028
:100D580036F0356A39503AC030F0316A3026000E24
:100D68003122820E30243F6EFF0E3120406ED2EFCA
:100D780006F0D8903B363C363D363E3638AEC7EFA7
:100D880006F0C9EF06F0CAEF06F03B80D89035367A
:100D98003636373638363F06D8A040063DAED7EF50
:100DA80006F0D9EF06F0BDEF06F0000E396E38AE4A
:100DB800E0EF06F0E2EF06F006EF07F0FF0E35145D
:100DC800306EFF0E3614316EFF0E3714326E7F0E02
:100DD8003814336E3050311032103310D8B4F7EF66
:100DE80006F0F9EF06F0FDEF06F0010E396E06EF9A
:100DF80007F03BA002EF07F004EF07F006EF07F05B
:100E0800F9EF06F03950D8B40CEF07F00EEF07F001
:100E180032EF07F0010E3B26000E3C223D223E2217
:100E28003EA019EF07F01BEF07F032EF07F03BC0C9
:100E380030F03CC031F03DC032F03EC033F03334C6
:100E4800333232323132303230C03BF031C03CF0D4
:100E580032C03DF033C03EF03F4A402A40BE3DEF2D
:100E680007F0405008E13F28D8A03DEF07F03FEFDA
:100E780007F049EF07F0000E3B6E000E3C6E800E47
:100E88003D6E7F0E3E6E77EF07F040BE56EF07F0DF
:100E9800405006E13F04D8B054EF07F056EF07F092
:100EA80062EF07F0000E3B6E000E3C6E000E3D6ECA
:100EB800000E3E6E000E346E77EF07F03FC03AF03A
:100EC800FF0E3B16FF0E3C167F0E3D16000E3E161B
:100ED8003AA071EF07F073EF07F074EF07F03D8E5B
:100EE800D8903A303E6E34503E123BC028F03CC099
:100EF80029F03DC02AF03EC02BF012001250800BA2
:100F08001F6E12501224266E11AE8DEF07F08FEF70
:100F180007F090EF07F026802650D8B496EF07F038
:100F280098EF07F0ADEF07F02628D8A49EEF07F05A
:100F3800A0EF07F0A8EF07F0000E0F6E000E106E7E
:100F4800000E116E000E126E118E000E126EB5EFAD
:100F580007F0000E0F6E000E106E000E116E000EE0
:100F6800126E1650800B1F1A16501624276E15AED7
:100F7800C0EF07F0C2EF07F0C3EF07F02780275054
:100F8800D8B4C9EF07F0CBEF07F0E0EF07F0272858
:100F9800D8A4D1EF07F0D3EF07F0DBEF07F0000E8E
:100FA800136E000E146E000E156E000E166E158E62
:100FB800000E166EE8EF07F0000E136E000E146EAA
:100FC800000E156E000E166E135014101510161024
:100FD800D8A4F1EF07F0F3EF07F00BEF08F0000EDD
:100FE8000F6E000E106E000E116E000E126E800E47
:100FF80011127F0E12121F5012120FC00FF010C0E4
:1010080010F011C011F012C012F04EEF09F0265086
:10101800D8A411EF08F013EF08F01DEF08F0000E48
:101028000F6E000E106E000E116E000E126E4EEF57
:1010380009F0275026C017F0186A175E000E185AD4
:101048007F0E1724206E000E1820216E0FC01BF093
:1010580010C01CF011C01DF012C01EF0000E0F6E63
:10106800000E106E000E116E000E126E000E226E33
:10107800000E236E000E246E000E256E000E276EE5
:101088007EEF08F02750D8B44CEF08F04EEF08F088
:1010980065EF08F0D8901B361C361D361E36D890E2
:1010A8000F3610361136123625AE5DEF08F05FEFB9
:1010B80008F060EF08F00F80D890223623362436E7
:1010C800253613501B5C14501C5815501D581650CB
:1010D8001E58D8A072EF08F074EF08F07DEF08F002
:1010E800258C13501B5E14501C5A15501D5A16504F
:1010F8001E5A272A190E276484EF08F086EF08F095
:1011080046EF08F01B501C101D101E10D8B48FEFAE
:1011180008F091EF08F0A9EF08F02280A9EF08F095
:10112800D8900F3610361136123625AE9EEF08F0DD
:10113800A0EF08F0A1EF08F00F80D89022362336F0
:10114800243625362006D8A0210611AEAEEF08F0C9
:10115800B0EF08F094EF08F0000E276E25AEB7EF59
:1011680008F0B9EF08F0DDEF08F0FF0E2214176E53
:10117800FF0E2314186EFF0E2414196E7F0E25140B
:101188001A6E1750181019101A10D8B4CEEF08F0AC
:10119800D0EF08F0D4EF08F0010E276EDDEF08F06D
:1011A8000FA0D9EF08F0DBEF08F0DDEF08F0D0EF83
:1011B80008F02750D8B4E3EF08F0E5EF08F009EF9E
:1011C80009F0010E0F26000E10221122122212A081
:1011D800F0EF08F0F2EF08F009EF09F00FC017F090
:1011E80010C018F011C019F012C01AF01A341A32CF
:1011F80019321832173217C00FF018C010F019C082
:1012080011F01AC012F0204A212A21BE14EF09F069
:10121800215008E12028D8A014EF09F016EF09F0B2
:1012280021EF09F0000E216E2068000E0F6E000EEF
:10123800106E000E116E000E126E21BE2EEF09F018
:10124800215006E12004D8B02CEF09F02EEF09F068
:101258003CEF09F0000E216E000E206E000E0F6E9E
:10126800000E106E000E116E000E126E000E1F6E34
:1012780020C026F026A043EF09F045EF09F048EF1B
:1012880009F0118E49EF09F0119ED8902630126EA0
:10129800FFEF07F01200320E0001666F010E676F54
:1012A8009C0E686F7F0E696FE8C06AF0E9C06BF04A
:1012B800EAC06CF0EBC06DF053EC1CF0320E026E1D
:1012C800010E036ECDEC1BF0E8EF09F0000E666F1F
:1012D800010E676F870E686F7D0E696FD6C06AF062
:1012E8006B6BD5C06CF06D6B53EC1CF012EF0AF011
:1012F800000E666F010E676F860E686F7E0E696F4F
:10130800D6C06AF06B6BD5C06CF06D6B53EC1CF0FB
:1013180012EF0AF0000E666F010E676F3E0E686FDF
:101328007E0E696FD6C06AF06B6BD5C06CF06D6BC2
:1013380053EC1CF012EF0AF0000E666F010E676F97
:101348003B0E686F7D0E696FD6C06AF06B6BD5C0B7
:101358006CF06D6B53EC1CF012EF0AF0000E666F28
:10136800010E676F620E686F7E0E696FD6C06AF0F5
:101378006B6BD5C06CF06D6B53EC1CF012EF0AF080
:10138800000E666F010E676FAC0E686F7D0E696F99
:10139800D6C06AF06B6BD5C06CF06D6B53EC1CF06B
:1013A80012EF0AF0000E666F010E676F1A0E686F73
:1013B8007E0E696FD6C06AF06B6BD5C06CF06D6B32
:1013C80053EC1CF012EF0AF00001D3515C6E5D6A19
:1013D8005D50000AD8B4F3EF09F012EF0AF05C5040
:1013E800010AD8B46AEF09F0030AD8B47CEF09F00F
:1013F800010AD8B48EEF09F0070AD8B4A0EF09F0B3
:10140800010AD8B4B2EF09F0030AD8B4C4EF09F05E
:10141800010AD8B4D6EF09F012EF0AF0000E026EF6
:10142800010E036ECDEC1BF0DE0E026E7F0E036E16
:10143800CDEC1BF0EB0E026E7E0E036ECDEC1BF0B6
:10144800C00E026E7C0E036ECDEC1BF0EA0E026E2F
:101458007C0E036ECDEC1BF0D10E026E7D0E036E7A
:10146800CDEC1BF0000E0001A36F000EA26FA2C00E
:1014780001F0A3C002F0000E046E0C0E036E81ECA6
:101488001EF08D0E0124D96E010E0220DA6EDF5097
:10149800D8B451EF0AF053EF0AF0C6EF0AF0A2C031
:1014A80001F0A3C002F0000E046E0C0E036E81EC76
:1014B8001EF0840E0124D96E010E0220DA6EDF5070
:1014C8005C6E5C5000019A6F9B6BA2C001F0A3C0D8
:1014D80002F0000E046E0C0E036E81EC1EF08D0EF1
:1014E8000124D96E010E0220DA6EDF505C6E5C506A
:1014F80000019C6F9D6BA2C001F0A3C002F0000E1A
:10150800046E0C0E036E81EC1EF08F0E0124D96E52
:10151800010E0220DA6EDF505C6E5C5000019E6F97
:101528009F6BA2C001F0A3C002F0000E046E0C0E67
:10153800036E81EC1EF0850E01240001A06F010EE0
:101548000220A16F7C0E666F000E676F580E686FE1
:101558007F0E696F9AC06AF09BC06BF09CC06CF0FC
:101568009DC06DF09EC06EF09FC06FF0A0C070F07F
:10157800A1C071F053EC1CF07C0E026E000E036EDD
:10158800CDEC1BF00001A24BA32BA3BFD5EF0AF0B3
:10159800A35109E1180EA25DD8A0D5EF0AF0D7EF44
:1015A8000AF03BEF0AF03EEC1DF0260EDFEC1EF0D1
:1015B80012001EC036F01FC037F020C038F021C01E
:1015C80039F022C03AF023C03BF024C03CF025C0DB
:1015D8003DF03DBEF2EF0AF0F5EF0AF0010EF6EF2E
:1015E8000AF0000E346E356A34503510D8B4FFEF67
:1015F8000AF001EF0BF011EF0BF03D1E3C1E3B1EF5
:101608003A1E391E381E371E366C000E3722382215
:1016180039223A223B223C223D220001C3BF17EF68
:101628000BF019EF0BF01AEF0BF0C493C3BF27EFC1
:101638000BF0C35106E1C205D8B025EF0BF027EF38
:101648000BF02DEF0BF0000E316E010E306E31EF06
:101658000BF0C2C030F0C3C031F0C0C032F0C1C01E
:1016680033F034503510D8A43CEF0BF03EEF0BF0BC
:1016780045EF0BF0C4A543EF0BF045EF0BF048EF37
:101688000BF03206D8A03306000E3F6E1F0E3E6EDA
:10169800000E0101836FCDEF0BF03E06D8A03F0688
:1016A800640E3E24D96E010E3F20DA6E36C001F07A
:1016B80037C002F038C003F039C004F03AC005F072
:1016C8003BC006F03CC007F03DC008F00A0E096EAA
:1016D800000E0A6E000E0B6E000E0C6E000E0D6EE4
:1016E800000E0E6E000E0F6E000E106EABEC13F0B7
:1016F80001C026F002C027F003C028F004C029F07A
:1017080005C02AF006C02BF007C02CF008C02DF049
:1017180026C013F028C014F05EEC1DF01350300FF3
:10172800DF6E3006D8A031063206D8A0330636C0A0
:1017380001F037C002F038C003F039C004F03AC0F5
:1017480005F03BC006F03CC007F03DC008F00A0EAB
:10175800096E000E0A6E000E0B6E000E0C6E000E67
:101768000D6E000E0E6E000E0F6E000E106E6DECFC
:1017780011F001C036F002C037F003C038F004C0E1
:1017880039F005C03AF006C03BF007C03CF008C08D
:101798003DF03FBED8EF0BF03F5008E13E04D8A023
:1017A800D8EF0BF0DAEF0BF00BEF0CF036503710E8
:1017B800381039103A103B103C103D10D8A4E7EF10
:1017C8000BF0E9EF0BF051EF0BF031BEF6EF0BF039
:1017D800315006E13004D8B0F4EF0BF0F6EF0BF01F
:1017E80051EF0BF033BE01EF0CF0335008E1320437
:1017F800D8A001EF0CF003EF0CF00BEF0CF0000198
:10180800C4B309EF0CF00BEF0CF051EF0BF03450B0
:101818003510D8A412EF0CF014EF0CF01CEF0CF0FC
:101828000001C4A51AEF0CF01CEF0CF03AEF0CF015
:101838003E06D8A03F0634503510D8A426EF0CF049
:1018480028EF0CF02EEF0CF0000E2F6E2B0E2E6EE4
:1018580032EF0CF0000E2F6E2D0E2E6E640E3E240D
:10186800D96E010E3F20DA6E2EC0DFFF1CC011F0CA
:101878001DC012F0640E3E24136E010E3F20146E3C
:1018880032C015F033C016F0ADEC17F011C01CF0E3
:1018980012C01DF01200000E5A6E000E596E0001A3
:1018A800D851D8A45AEF0CF05CEF0CF069EF0CF0AB
:1018B800B151B011AF1109E1C80EAE5DD8A067EF04
:1018C8000CF069EF0CF07BEF0CF0000EAE6F000E21
:1018D800AF6F000EB06F000EB16F000EA66F000E56
:1018E800A76F000EA86F000EA96F000ED86FBA512F
:1018F800E85D136EBB51E959146E5EEC1DF013C020
:101908005BF014C05CF0000E5CBEFF0E5D6E5E6E98
:10191800CD0E2C6ECC0E2D6E4C0E2E6E3F0E2F6EF5
:101928005BC001F05CC002F05DC003F05EC004F073
:10193800000E41EC0EF001C028F002C029F003C0EF
:101948002AF004C02BF06DEC05F028C041F029C046
:1019580042F02AC043F02BC044F0C5EC16F041C059
:10196800B2F042C0B3F043C0B4F044C0B5F09A0E30
:101978002C6E990E2D6E990E2E6E3F0E2F6E5B50AB
:101988000001AE25016E5C50AF21026E5D50B021A2
:10199800036E5E50B121046E000E41EC0EF001C0E2
:1019A80028F002C029F003C02AF004C02BF06DEC27
:1019B80005F028C041F029C042F02AC043F02BC0EE
:1019C80044F0C5EC16F041C0AEF042C0AFF043C0E1
:1019D800B0F044C0B1F0000E2C6E000E2D6EC00E9B
:1019E8002E6E3F0E2F6E0001A6515B5C016EA75153
:1019F8005C58026EA8515D58036EA9515E58046E7A
:101A0800000E41EC0EF001C028F002C029F003C01E
:101A18002AF004C02BF06DEC05F028C041F029C075
:101A280042F02AC043F02BC044F0C5EC16F041C088
:101A3800AAF042C0ABF043C0ACF044C0ADF05BC00C
:101A4800A6F05CC0A7F05DC0A8F05EC0A9F00001D8
:101A5800AE51B225576EAF51B321586EAA515724D3
:101A6800596EAB5158205A6E5ABE44EF0DF05A5079
:101A780009E1650E595CD8A044EF0DF046EF0DF072
:101A88004CEF0DF0000E5A6E640E596E5EEF0DF0BD
:101A98005ABE5AEF0DF05A5007E1050E595CD8B0FE
:101AA80058EF0DF05AEF0DF05EEF0DF0000E5A6E84
:101AB800050E596E59C04BF05AC04CF0010E4D6ED0
:101AC80067EC0DF012004BC01BF04CC01CF01D6AF7
:101AD8001E6A000E1F6E000E206E000E216E000E94
:101AE800226E640E236E000E246E000E256E000E0C
:101AF800266E000E276E000E286E000E296E000E50
:101B08002A6EFF0E2B6E030E2C6E000E2D6E000E2D
:101B18002E6E4CEC1AF01BC053F01CC054F01DC0C4
:101B280055F01EC056F056BEA6EF0DF05650551093
:101B380007E1040E545CD8B0A4EF0DF0A6EF0DF049
:101B480040EF0EF0000E2C6E000E2D6EFA0E2E6E6B
:101B5800430E2F6E000E136EC00E146E7F0E156EA0
:101B6800440E166E53C001F054C002F055C003F085
:101B780056C004F0010E41EC0EF001C00FF002C097
:101B880010F003C011F004C012F082EC07F00FC08F
:101B980028F010C029F011C02AF012C02BF06DEC0B
:101BA80005F028C041F029C042F02AC043F02BC0FC
:101BB80044F0C5EC16F041C053F042C054F043C0A5
:101BC80055F044C056F02BEF0EF0020E4E6E53C087
:101BD8004FF054C050F055C051F056C052F04E6608
:101BE800F8EF0DF000EF0EF052345232513250320D
:101BF8004F324E2EF3EF0DF04F50BE6ECF0EBD1686
:101C08005338F00B300BBD1240EF0EF0020E4E6E43
:101C180053C04FF054C050F055C051F056C052F068
:101C28004E6619EF0EF021EF0EF052345232513257
:101C380050324F324E2E14EF0EF04F50BB6ECF0E77
:101C4800BA165338F00B300BBA1240EF0EF04D5065
:101C58004E6E4F6A4F50000AD8B435EF0EF040EF81
:101C68000EF04E50010AD8B4E9EF0DF0030AD8B4CB
:101C78000AEF0EF040EF0EF01200096E0950D8B4CA
:101C880048EF0EF04AEF0EF06CEF0EF004BE51EF85
:101C98000EF04FEF0EF06CEF0EF001C005F002C031
:101CA80006F003C007F004C008F0051E061E071E54
:101CB800081E052A000E06220722082205C00BF07E
:101CC80006C00CF007C00DF008C00EF074EF0EF05F
:101CD80001C00BF002C00CF003C00DF004C00EF000
:101CE8000150021003100410D8A47DEF0EF07FEF0E
:101CF8000EF089EF0EF0000E016E000E026E000E5F
:101D0800036E000E046E1AEF0FF0960E0A6E93EF34
:101D18000EF00A2AD8900E320D320C320B32000E19
:101D28000B14056E000E0C14066E000E0D14076ED3
:101D3800FE0E0E14086E0550061007100810D8A4E1
:101D4800A8EF0EF0AAEF0EF08DEF0EF0B8EF0EF040
:101D58000A2A010E0B26000E0C220D220E22D89004
:101D68000E320D320C320B32000E0B14056E000EC3
:101D78000C14066E000E0D14076EFF0E0E14086E7E
:101D88000550061007100810D8A4CDEF0EF0CFEFBD
:101D98000EF0ACEF0EF0D7EF0EF00A06D8900B3627
:101DA8000C360D360E360DBEDCEF0EF0DEEF0EF003
:101DB800E6EF0EF0020E0A60E4EF0EF0E6EF0EF02A
:101DC800D1EF0EF00AB0EBEF0EF0EDEF0EF0EEEF04
:101DD8000EF00D9ED8900A320AC005F0066A076A0E
:101DE800086A05C008F0076A066A056A05500B12FA
:101DF80006500C1207500D1208500E120950D8B494
:101E080008EF0FF00AEF0FF012EF0FF004BE11EF1A
:101E18000FF00FEF0FF012EF0FF00E8E0BC001F066
:101E28000CC002F00DC003F00EC004F01200000E4A
:101E3800166E000E156E000E0F6E000E0E6E27EF5A
:101E48000FF0084A092A010E146E08C0F6FF09C0EF
:101E5800F7FF0800F550200AD8B435EF0FF037EF38
:101E68000FF054EF0FF0F70E0A6EFF0E0B6E08C05E
:101E7800F6FF09C0F7FF0800F5500C6E0D6A0A500E
:101E88000C260B500D220D5009E1050E0C5CD8A054
:101E980050EF0FF052EF0FF054EF0FF0000E146EEA
:101EA80014C010F0116A10501110D8A45EEF0FF092
:101EB80060EF0FF025EF0FF06AEF0FF0000E0F6ED6
:101EC800010E0E6E084A092A9FEF0FF008C0F6FFB0
:101ED80009C0F7FF0800F5500A6E0B6A0B50000A9C
:101EE800D8B479EF0FF09FEF0FF00A502B0AD8B44F
:101EF80066EF0FF0060AD8B462EF0FF09FEF0FF00D
:101F080015C001F016C002F0000E046E0A0E036E32
:101F180081EC1EF008C0F6FF09C0F7FF0800F55075
:101F2800015E000E025A300E0124156E000E0220CA
:101F3800166E66EF0FF0D00E0A6EFF0E0B6E08C01D
:101F4800F6FF09C0F7FF0800F5500C6E0D6A0A503D
:101F58000C260B500D220D500AE10A0E0C5CD8A07D
:101F6800B8EF0FF0BBEF0FF0010EBCEF0FF0000E53
:101F7800126E136A12501310D8A4C5EF0FF0C7EFF2
:101F88000FF084EF0FF00E500F10D8A4CEEF0FF023
:101F9800D0EF0FF0DEEF0FF015C00AF016C00BF00F
:101FA8000A1E0B1E0A4A0B2A0AC008F00BC009F0C9
:101FB800E2EF0FF015C008F016C009F0120000019A
:101FC800CE51D8B4EAEF0FF0ECEF0FF060EF10F05D
:101FD800100EF5EC1CF057C0BAF058C0BBF059C051
:101FE800BCF05AC0BDF089EC1AF00009D8B4FFEF74
:101FF8000FF001EF10F00CEF10F00001D751D8A44A
:1020080008EF10F00AEF10F00CEF10F023EF10F0CB
:102018000001D751D8B413EF10F015EF10F021EFED
:1020280010F0000ED76F010ED86F000E4C6E050E23
:102038004B6E010E4D6E67EC0DF04FEC0CF000018D
:10204800CA4BCB2B1E0ECA19CB11D8A42EEF10F0F9
:1020580030EF10F0A7EF10F0000ECB6F000ECA6F34
:10206800C64BC72BC851C65DC951C759D8A03FEF49
:1020780010F041EF10F0A7EF10F0000E4C6E000EBC
:102088004B6E010E4D6E67EC0DF0000E0001C76F30
:10209800000EC66F000ECE6FD6510C0D8E0EF324B7
:1020A800D96E010EF420DA6E010EDF6ED6C0D0F0C4
:1020B800000ECF6FA7EF10F056EC1EF009EC1FF0E2
:1020C8000001D051D619D8B46CEF10F06EEF10F0B3
:1020D80082EF10F0CF51D8A474EF10F076EF10F023
:1020E80082EF10F0D0510C0D8E0EF324D96E010E34
:1020F800F420DA6E000EDF6E010ECF6FCAEC19F015
:1021080001500210D8B48BEF10F08DEF10F0A7EF4C
:1021180010F00001D6510C0D8F0EF324D96E010E6C
:10212800F420DA6EDF50656F6551C86FC96B010E18
:10213800CE6FD6510C0D8E0EF324D96E010EF420FD
:10214800DA6E000EDF6E1200000E5E6E000E5D6E1F
:102158005DC001F05EC002F0000E046E0C0E036E4E
:1021680081EC1EF0840E0124D96E010E0220DA6E75
:102178005DC0DFFF5DC001F05EC002F0000E046EBE
:102188000C0E036E81EC1EF08D0E0124D96E010E2B
:102198000220DA6E000EDF6E5DC001F05EC002F054
:1021A800000E046E0C0E036E81EC1EF08E0E0124E0
:1021B800D96E010E0220DA6E000EDF6E5DC001F0EE
:1021C8005EC002F0000E046E0C0E036E81EC1EF071
:1021D8008F0E0124D96E010E0220DA6E010EDF6E19
:1021E8005D4A5E2A5EBE02EF11F05E5009E1180EEC
:1021F8005D5CD8A002EF11F004EF11F0ACEF10F025
:10220800000E5C6E000E5B6E000E5A6E000E596E6C
:102218005BC001F05CC002F0000E046E0C0E036E91
:1022280081EC1EF0840E576E010E586E010E572673
:10223800000E582201505726025058225950572450
:10224800D96E5A505820DA6E000EDF6E594A5A2A53
:102258005ABE38EF11F05A5009E1070E595CD8A060
:1022680038EF11F03AEF11F00CEF11F05BC001F00C
:102278005CC002F0000E046E0C0E036E81EC1EF0C2
:102288008B0E0124D96E010E0220DA6E000EDF6E6D
:102298005B4A5C2A5CBE5AEF11F05C5009E1180EEB
:1022A8005B5CD8A05AEF11F05CEF11F008EF11F069
:1022B800000E4C6E000E4B6E010E4D6E67EC0DF06D
:1022C800E8C0B6F0E9C0B7F0EAC0B8F0EBC0B9F0C2
:1022D8001200000E126E10BE76EF11F074EF11F0BE
:1022E80088EF11F0101E0F1E0E1E0D1E0C1E0B1E69
:1022F8000A1E096C000E0A220B220C220D220E2245
:102308000F221022010E126E08BE8FEF11F08DEF12
:1023180011F0A1EF11F0081E071E061E051E041E6F
:10232800031E021E016C000E022203220422052253
:10233800062207220822010E121A20EE13F0070EB9
:10234800DE6AE806FDE209500A100B100C100D10A9
:102358000E100F101010D8B4B4EF11F0B6EF11F042
:1023680008EF12F0010E116EC4EF11F0D890093683
:102378000A360B360C360D360E360F361036112A45
:1023880010AEC9EF11F0CBEF11F0BAEF11F0D89001
:1023980013361436153616361736183619361A36D1
:1023A8000950015C0A5002580B5003580C5004584D
:1023B8000D5005580E5006580F5007581050085821
:1023C800D8A0E9EF11F0EBEF11F0FCEF11F0095094
:1023D800015E0A50025A0B50035A0C50045A0D5011
:1023E800055A0E50065A0F50075A1050085A1380B3
:1023F800D89010320F320E320D320C320B320A32B4
:102408000932112ECBEF11F01250D8B40EEF12F0A2
:1024180010EF12F020EF12F01A1E191E181E171EC8
:10242800161E151E141E136C000E142215221622D9
:102438001722182219221A2213C001F014C002F020
:1024480015C003F016C004F017C005F018C006F058
:1024580019C007F01AC008F0120020EEDDF010EEE7
:102468000FF0060EDBCFE3FFE806FCE20CC01AF023
:102478000DC01BF01A501B10D8A445EF12F047EFFF
:1024880012F04BEF12F00F0E1A6E000E1B6E1AC0F0
:1024980001F01BC002F0F3EC1DF001C01EF002C0F9
:1024A8001FF0C2C01CF0C3C01DF01DBE5EEF12F0CD
:1024B80060EF12F075EF12F01E501C5C1D50800A80
:1024C8000E6E1F50800A0E58D8A06DEF12F06FEFF5
:1024D80012F071EF12F075EF12F01CC01EF01DC063
:1024E8001FF01EC01CF01FC01DF0C0C018F0C1C0F6
:1024F80019F00001C4B183EF12F085EF12F0A2EFDA
:1025080012F093EF12F0000E026E200E016E0AC058
:1025180003F00BC004F048EC17F01E4A1F2A1850AD
:102528001E5C1F50800A0E6E1950800A0E58D8A0E3
:10253800A0EF12F0A2EF12F087EF12F0000E176E64
:10254800000E166EBBEF12F01AC0D9FF1BC0DAFFDF
:10255800DF500E6E0E50016E026A0AC003F00BC007
:1025680004F048EC17F01A4A1B2A164A172A1C507E
:10257800165C1750800A0E6E1D50800A0E58D8A09F
:10258800C8EF12F0CAEF12F0A8EF12F00001C4A1D0
:10259800D0EF12F0D2EF12F0EFEF12F0E0EF12F0FE
:1025A800000E026E200E016E0AC003F00BC004F08C
:1025B80048EC17F01E4A1F2A18501E5C1F50800A4C
:1025C8000E6E1950800A0E58D8A0EDEF12F0EFEFFA
:1025D80012F0D4EF12F01EC00AF01FC00BF0120068
:1025E800000E0D6E000E0C6E000E046E000E036ED3
:1025F8009DEC1DF0096E0C4A0D2A540E0918D8A43A
:1026080008EF13F00AEF13F0A7EF13F0000E0F6EA8
:10261800000E0E6E0EC001F00FC002F0000E046E28
:102628000C0E036E81EC1EF0840E0124D96E010E8F
:102638000220DA6E0CC003F00DC004F09DEC1DF012
:10264800DF6E0C4A0D2A000E0B6E000E0A6E0EC0CD
:1026580001F00FC002F0000E046E0C0E036E81EC48
:102668001EF0840E076E010E086E010E0726000E7E
:10267800082201500726025008220A500724D96E62
:102688000B500820DA6E0CC003F00DC004F09DEC6E
:102698001DF0DF6E0C4A0D2A0A4A0B2A0BBE5EEFAC
:1026A80013F00B5009E1070E0A5CD8A05EEF13F097
:1026B80060EF13F02BEF13F00EC001F00FC002F023
:1026C800000E046E0C0E036E81EC1EF08D0E0124BC
:1026D800D96E010E0220DA6E0CC003F00DC004F0B2
:1026E8009DEC1DF0DF6E0C4A0D2A0EC001F00FC0E4
:1026F80002F0000E046E0C0E036E81EC1EF08F0EBD
:102708000124D96E010E0220DA6E0CC003F00DC050
:1027180004F09DEC1DF0DF6E0C4A0D2A0E4A0F2ABC
:102728000FBEA0EF13F00F5009E1180E0E5CD8A0F1
:10273800A0EF13F0A2EF13F00EEF13F0450EDFEC4D
:102748001EF0AAEF13F0400EDFEC1EF01200000E90
:10275800126E08BEB4EF13F0B2EF13F0C6EF13F029
:10276800081E071E061E051E041E031E021E016CFF
:10277800000E022203220422052206220722082232
:10278800010E126E10BECDEF13F0CBEF13F0DDEF9C
:1027980013F0101E0F1E0E1E0D1E0C1E0B1E0A1E01
:1027A800096C000E0A220B220C220D220E220F2287
:1027B800102209500A100B100C100D100E100F10DB
:1027C8001010D8B4EAEF13F0ECEF13F034EF14F074
:1027D800010E116EFAEF13F0D89009360A360B364F
:1027E8000C360D360E360F361036112A10AEFFEFA6
:1027F80013F001EF14F0F0EF13F00950015C0A50E8
:1028080002580B5003580C5004580D5005580E50E0
:1028180006580F50075810500858D8A016EF14F053
:1028280018EF14F028EF14F00950015E0A50025A0C
:102838000B50035A0C50045A0D50055A0E50065AA4
:102848000F50075A1050085AD89010320F320E32D3
:102858000D320C320B320A320932112E01EF14F00C
:102868001250D8B43AEF14F03CEF14F04CEF14F0D7
:10287800081E071E061E051E041E031E021E016CEE
:10288800000E022203220422052206220722082221
:1028980001C001F002C002F003C003F004C004F05C
:1028A80005C005F006C006F007C007F008C008F02C
:1028B8001200000E106E000E0F6E000E086E000E55
:1028C800076E540E096E27EC1EF00F4A102A000EF0
:1028D800126E000E116E0FC007F010C008F011C084
:1028E80001F012C002F0000E046E0C0E036E81ECB3
:1028F8001EF0840E0124D96E010E0220DA6EDF501C
:10290800096E27EC1EF00F4A102A000E0E6E000EFC
:102918000D6E0FC007F010C008F011C001F012C012
:1029280002F0000E046E0C0E036E81EC1EF0840E95
:102938000B6E010E0C6E010E0B26000E0C220150C0
:102948000B2602500C220D500B24D96E0E500C2071
:10295800DA6EDF50096E27EC1EF00F4A102A0D4A76
:102968000E2A0EBEC1EF14F00E5009E1070E0D5CE1
:10297800D8A0C1EF14F0C3EF14F08DEF14F00FC01E
:1029880007F010C008F011C001F012C002F0000EEC
:10299800046E0C0E036E81EC1EF08D0E0124D96EB0
:1029A800010E0220DA6EDF50096E27EC1EF00F4A86
:1029B800102A0FC007F010C008F011C001F012C0B3
:1029C80002F0000E046E0C0E036E81EC1EF08F0EEA
:1029D8000124D96E010E0220DA6EDF50096E27EC51
:1029E8001EF00F4A102A114A122A12BE05EF15F0DE
:1029F800125009E1180E115CD8A005EF15F007EF89
:102A080015F06FEF14F01200000E0E6E020E0D6E30
:102A180009EC00F00D50286E400E2818D8B417EFB6
:102A280015F019EF15F0A9EF15F0000E0E6E010E56
:102A38000D6E09EC00F00D50296E2904D8A427EF7B
:102A480015F029EF15F094EF15F0000E266E000E24
:102A5800256E000E0E6E010E0D6E09EC00F00D5085
:102A6800276E400E2718D8B43CEF15F03EEF15F04E
:102A780073EF15F048EF15F0300E276E5DEF15F087
:102A8800310E276E5DEF15F02750236E246A24500F
:102A9800000AD8B452EF15F05DEF15F02350000A84
:102AA800D8B440EF15F0010AD8B444EF15F05DEF43
:102AB80015F028500C0D840E236E010E246E010EA5
:102AC8002326000E2422F3502326F45024222550D6
:102AD8002324D96E26502420DA6E27C0DFFF254A2A
:102AE800262A26BE81EF15F0265009E1070E255C3F
:102AF800D8A081EF15F083EF15F02DEF15F02850D1
:102B08000C0D8D0EF324D96E010EF420DA6E29C057
:102B1800DFFF5DEC14F0450EDFEC1EF0A9EF15F0B9
:102B28002950D8A49AEF15F09CEF15F0A9EF15F0ED
:102B380028500C0D8D0EF324D96E010EF420DA6E98
:102B480029C0DFFF450EDFEC1EF01200000E000169
:102B5800CD6F000E0E6E010E0D6E09EC00F00DC06B
:102B680023F00EC024F00FC025F010C026F023C0BB
:102B780001F024C002F025C003F026C004F0E80EDE
:102B8800056E030E066E000E076E000E086E36EC1C
:102B98001BF0000E0E6E010E0D6E09EC00F00DC05C
:102BA80023F00EC024F00FC025F010C026F023C07B
:102BB80001F024C002F025C003F026C004F0640E22
:102BC800056E000E066E000E076E000E086E36ECDF
:102BD8001BF001C027F002C028F003C029F004C090
:102BE8002AF0000E0E6E020E0D6E09EC00F00D506C
:102BF80027260E5028220F50292210502A22400E34
:102C08002718281029102A10D8B40DEF16F00FEF46
:102C180016F03BEF16F027C0E8F028C0E9F029C00D
:102C2800EAF02AC0EBF00001B651E8190FE1B751FC
:102C3800E9190CE1B851EA1909E1B951EB19D8B40D
:102C480028EF16F02AEF16F02EEF16F0010ED76FC8
:102C580030EF16F0000ED76FE8C0B6F0E9C0B7F055
:102C6800EAC0B8F0EBC0B9F0450EDFEC1EF0010E7B
:102C78000001CD6F1200000E166E14BE48EF16F05C
:102C880046EF16F052EF16F0141E131E121E116CAA
:102C9800000E122213221422010E166E10BE59EFD6
:102CA80016F057EF16F063EF16F0101E0F1E0E1EEB
:102CB8000D6C000E0E220F221022010E161A000EA5
:102CC800176E000E186E000E196E000E1A6E115057
:102CD800121013101410D8B474EF16F076EF16F023
:102CE800ACEF16F0010E156E80EF16F0D890113685
:102CF800123613361436152A14AE85EF16F087EF00
:102D080016F07AEF16F0D8901736183619361A36A4
:102D180011500D5C12500E5813500F581450105883
:102D2800D8A099EF16F09BEF16F0A4EF16F011500B
:102D38000D5E12500E5A13500F5A1450105A178025
:102D4800D8901432133212321132152E87EF16F042
:102D58001650D8B4B2EF16F0B4EF16F0BCEF16F078
:102D68001A1E191E181E176C000E182219221A2274
:102D780017C00DF018C00EF019C00FF01AC010F0EF
:102D88001200433444344A6E4A50D8A4CEEF16F0A9
:102D9800D0EF16F0DAEF16F0000E416E000E426E1C
:102DA800000E436E000E446E47EF17F041C045F029
:102DB80042C046F043C047F044C048F0200EEAEF56
:102DC80016F0D8904832473246324532E82EE5EFC1
:102DD80016F04550496E438EFF0E4116FF0E4216FF
:102DE800FF0E4316000E4416960E4A5E4ABE01EFC9
:102DF80017F0FFEF16F017EF17F04A50800A970FF9
:102E0800D8B009EF17F00BEF17F00DEF17F0D0EF70
:102E180016F0D89044324332423241324A3E0DEFE6
:102E280017F02FEF17F01F0E4A641DEF17F01FEF72
:102E380017F027EF17F0D0EF16F0D890413642364A
:102E4800433644364A064A50D8A42DEF17F02FEFE0
:102E580017F021EF17F04950D8B435EF17F037EFD6
:102E680017F03FEF17F0441E431E421E416C000E40
:102E780042224322442241C041F042C042F043C0B2
:102E880043F044C044F0120003500410D8B44FEF8C
:102E980017F051EF17F05AEF17F003500410D8A4A9
:102EA80058EF17F05AEF17F05FEF17F0015023ECC7
:102EB8001FF0ACEF17F020EE04F00350D9260450B1
:102EC800DA22DE50DE10D8B46CEF17F06EEF17F090
:102ED80089EF17F020EE04F00350D9260450DA22C7
:102EE80010EE02F00350E1260450E222DE50E65CC8
:102EF800E650800A096EDE50800A0958D8B087EF7C
:102F080017F089EF17F0ACEF17F020EE02F003503E
:102F1800D9260450DA22DECF05F0DDCF06F003C053
:102F2800D9FF04C0DAFFDECF07F0DDCF08F0055087
:102F38000724D96E06500820DA6E01C0DFFF20EEA4
:102F480002F00350D9260450DA22DE2A000EDD22D0
:102F580012000001C4A1B3EF17F0B5EF17F0BFEFEF
:102F680017F013C00AF014C00BF011C00CF012C017
:102F78000DF01CEC1DF016BEC4EF17F0C6EF17F0ED
:102F8800CCEF17F015C01AF016C01BF0D0EF17F0F1
:102F9800000E1B6E000E1A6E000E196E000E186ED3
:102FA800E2EF17F0000E026E200E016E11C003F062
:102FB80012C004F048EC17F0184A192A1A50185C85
:102FC8001950800A176E1B50800A1758D8A0EFEFC7
:102FD80017F0F1EF17F0D6EF17F00001C4B1F7EFD3
:102FE80017F0F9EF17F003EF18F013C00AF014C048
:102FF8000BF011C00CF012C00DF01CEC1DF013C04A
:1030080001F014C002F0F3EC1DF01A500124116E07
:103018001B500220126E1200000E066E04BE19EF3D
:1030280018F017EF18F01FEF18F0036C041ED8B053
:10303800042A010E066E02BE26EF18F024EF18F0DF
:103048002CEF18F0016C021ED8B0022A010E061AE5
:10305800000E086E000E076E03500410D8B437EF48
:1030680018F039EF18F061EF18F0010E056E41EF16
:1030780018F0D89003360436052A04AE46EF18F047
:1030880048EF18F03DEF18F0D8900736083603508F
:10309800015C04500258D8A054EF18F056EF18F00D
:1030A8005BEF18F00350015E0450025A0780D89075
:1030B80004320332052E48EF18F00650D8B467EFF3
:1030C80018F069EF18F06DEF18F0076C081ED8B00B
:1030D800082A07C001F008C002F01200000E516E65
:1030E800000E526E1BEC1FF0470E11EC1FF0010E84
:1030F8003FEC1EF0526E000E3FEC1EF0516E1FECBE
:103108001FF0515052C04FF0506A4FC050F04F6AF4
:103118004F26000E50224FC053F050C054F0000EFE
:1031280054BEFF0E556E566E9A0E136E990E146E9F
:10313800990E156E3F0E166E53C001F054C002F082
:1031480055C003F056C004F0000E41EC0EF001C06B
:103158000FF002C010F003C011F004C012F082ECAE
:1031680007F00FC041F010C042F011C043F012C088
:1031780044F0C5EC16F041C053F042C054F043C0CF
:1031880055F044C056F053C04BF054C04CF055C0F5
:103198004DF056C04EF012005E6E9D9AF6EF18F094
:1031A8007EEC1DF028EF19F008EC15F028EF19F067
:1031B8000CEC1AF028EF19F04FEC09F028EF19F091
:1031C800A5EC1CF028EF19F0AAEC15F0BBEC1DF0EB
:1031D80028EF19F0F4EC12F028EF19F00EEC1EF0BD
:1031E80028EF19F05E500001A46FA56BA551000AE5
:1031F800D8B401EF19F028EF19F0A451010AD8B496
:10320800D4EF18F0030AD8B4D8EF18F0010AD8B4EC
:10321800DCEF18F0070AD8B4E0EF18F0010AD8B4C8
:10322800E4EF18F0030AD8B4E8EF18F0010AD8B4AC
:10323800EAEF18F00F0AD8B4EEEF18F0010AD8B484
:10324800F2EF18F028EF19F09D8A1200000E066EB2
:1032580002BE33EF19F031EF19F039EF19F0016CB4
:10326800021ED8B0022A010E066E04BE40EF19F005
:103278003EEF19F044EF19F0036C041ED8B0042A8D
:1032880003500410D8B44BEF19F04DEF19F071EF5B
:1032980019F0010E056E55EF19F0D8900336043673
:1032A800052A04AE5AEF19F05CEF19F051EF19F046
:1032B8000350015C04500258D8A065EF19F067EF7D
:1032C80019F06BEF19F00350015E0450025AD890C0
:1032D80004320332052E5CEF19F00650D8B477EFAC
:1032E80019F079EF19F07DEF19F0016C021ED8B0D2
:1032F800022A01C001F002C002F01200EAEC1EF03E
:10330800F5EC1EF0010ECDEC1CF0A8EC10F0F28EDE
:10331800F28CF28A9D8A070ED56EE4C0D6FFE5C00E
:10332800D7FFF284D58E800E1B6E250E1C6E000E04
:103338001D6E000E1E6EFEEC1AF0870E026E7F0EDA
:10334800036ECDEC1BF00001D251D8B4AEEF19F0EA
:10335800B0EF19F0B7EF19F0000ED26F300EDB5F47
:10336800DB51D0EC18F00001D151D8B4BEEF19F000
:10337800C0EF19F0A7EF19F0000ED96F000ED16F4A
:10338800E3EC0FF0A7EF19F007EF00F0000E066E60
:103398000001D6510C0D8D0EF324D96E010EF420C8
:1033A800DA6EDF50D8B4DBEF19F0DDEF19F008EF73
:1033B8001AF0D6510C0D8E0EF324D96E010EF4209E
:1033C800DA6EDF50D8A4EBEF19F0EDEF19F008EF43
:1033D8001AF0D6510C0D840E036E010E046EF350D4
:1033E8000326F4500422D3510324D96E000E04207E
:1033F800DA6E310EDE18D8A404EF1AF006EF1AF0D0
:1034080008EF1AF0010E066E06C001F0026A1200FB
:10341800000E0E6E020E0D6E09EC00F00D50256EBA
:10342800400E2518D8B41BEF1AF01DEF1AF04BEF19
:103438001AF0000E0E6E020E0D6E09EC00F00D5023
:10344800246E400E2418D8B42CEF1AF02EEF1AF080
:103458004BEF1AF025500C0D8F0EF324D96E010E88
:10346800F420DA6E24C0DFFF25500C0D8F0EF324F4
:10347800D96E010EF420DA6EDF50236E235000015E
:10348800C86FC96B5DEC14F0450EDFEC1EF012003E
:103498001F501B5C016E20501C58026E21501D5895
:1034A800036E22501E58046E27502B5C056E285060
:1034B8002C58066E29502D58076E2A502E58086E23
:1034C80036EC1BF001C00DF002C00EF003C00FF087
:1034D80004C010F01F50235C116E20502458126E47
:1034E80021502558136E22502658146E3FEC16F0C2
:1034F80027500D241B6E28500E201C6E29500F20BB
:103508001D6E2A5010201E6E1200040E0001E825C0
:10351800016E000EE921026E000EEA21036E000E14
:10352800EB21046EBA51015CBB510258BC510358DF
:10353800BD510458D8A0A3EF1AF0A5EF1AF0C3EFB5
:103548001AF0FC0EE825016EFF0EE921026EFF0E4F
:10355800EA21036EFF0EEB21046E0150BA5D0250A2
:10356800BB590350BC590450BD59D8A0BEEF1AF03E
:10357800C0EF1AF0C3EF1AF0010EC4EF1AF0000EF4
:103588001200236E000E246E000E256E000E0E6EC5
:10359800020E0D6E09EC00F00D50266E400E261836
:1035A800D8B4D9EF1AF0DBEF1AF0FCEF1AF026C006
:1035B80001F0026A000E046E0A0E036E10EC18F099
:1035C8000F0E01160138F00B256E26C001F0026AB5
:1035D800000E046E0A0E036E2AEC19F001500F0B50
:1035E800251225C003F02350B7EC1EF0010E246EFF
:1035F80024501200949C948E100E116E000E126EC0
:10360800000E136E000E146E000E0D6E090E0E6E77
:103618003D0E0F6E000E106E3FEC16F00DC023F03D
:103628000EC024F00FC025F010C026F023C00DF006
:1036380024C00EF025C00FF026C010F01BC011F0FA
:103648001CC012F01DC013F01EC014F03FEC16F0A1
:103658000D04AF6EAC84AC98AB8EAC9CAC8AAB9CC2
:10366800AB881200000E096E000E0A6E000E0B6E7B
:10367800000E0C6E01A043EF1BF045EF1BF04DEF61
:103688001BF00550092606500A2207500B22085045
:103698000C22D8900536063607360836D8900432FC
:1036A8000332023201320150021003100410D8A470
:1036B80060EF1BF062EF1BF03EEF1BF009C001F05A
:1036C8000AC002F00BC003F00CC004F0120062C084
:1036D8005AF063C05BF0000E0001BF6F000EBE6FB2
:1036E80089EF1BF060C040F061C041F05A0E426E95
:1036F800000E436E64C044F065C045F0E5EC02F08E
:1037080040500001BE274150BF235AC0F6FF5BC09E
:10371800F7FF0800F5500009D8A495EF1BF097EFC4
:103728001BF076EF1BF0BEC060F0BFC061F0120066
:103738000600F2A4A2EF1BF0A4EF1BF0BFEF1BF0F2
:103748000001D951D8B4ABEF1BF0ADEF1BF0B8EFC7
:103758001BF0DC2BDC05D8A4B4EF1BF0B6EF1BF094
:10376800B8EF1BF0010EDA6FF294E4C0D6FFE5C0A3
:10377800D7FF010ED16F9EAAC4EF1BF0C6EF1BF056
:10378800CBEF1BF0AECFDBF0010E0001D26F5F92E2
:103798001100E3EF1BF002C0F6FF03C0F7FFF86A61
:1037A800070EF76403D00800F55005D0F6CFE1FF07
:1037B800F7CFE2FFE750DFEC1EF0024A032A02C00F
:1037C800F6FF03C0F7FFF86A070EF76403D0080096
:1037D800F55005D0F6CFE1FFF7CFE2FFE75000093B
:1037E800D8A4F9EF1BF0FBEF1BF0CFEF1BF0120092
:1037F800000EF66E3E0EF76E000EF86E00EEDDF06F
:1038080010EE11F00900F5CFEEFFE550E150FAE1B6
:1038180001EE84F011EE20F0EE6AE550E150FCE193
:10382800E250FAE101EE00F0840EEE6AE806FDE1EE
:1038380000EEA6F0370EEE6AE806FDE15F905F92B3
:10384800000EF86E000182EF19F0670ED76E690E50
:10385800D66E000E0001DA6F010ED96F000EDB6F15
:10386800000EDC6F9EBA3BEF1CF03DEF1CF045EFFD
:103878001CF0DA51D8B443EF1CF045EF1CF036EFDA
:103888001CF0DA51D8A44BEF1CF04DEF1CF051EFAF
:103898001CF0AECFDBF0000ED96FDB5112006A0EC0
:1038A8000001746F000E756F66C076F067C077F020
:1038B800000E796F000E786F000E7B6F000E7A6F26
:1038C800760E606F000E616F68C062F069C063F0C9
:1038D800740E646F000E656F6BEC1BF0000178517D
:1038E8006625D96E79516721DA6E000EDF6E1200F7
:1038F800010E076E200E01180210D8B486EF1CF0D6
:1039080088EF1CF0A1EF1CF0F70E036EFF0E046E9B
:1039180001C005F002C006F0035005260450062237
:10392800065009E1050E055CD8A09DEF1CF09FEF3D
:103938001CF0A1EF1CF0000E076E07C001F0026A30
:103948001200100EF5EC1CF057C0BAF058C0BBF0CE
:1039580059C0BCF05AC0BDF0320E0001666F010EAE
:10396800676F700E686F7F0E696FBAC06AF0BBC070
:103978006BF0BCC06CF0BDC06DF053EC1CF0320EA7
:10398800026E010E036ECDEC1BF0260EDFEC1EF06E
:103998001200036ECA80CA827C0ECB6EDEEF1CF06A
:1039A8009494BD86BD84F3EF1CF09492BA86BA84D1
:1039B800F3EF1CF00350016E026A0250000AD8B4FB
:1039C800E8EF1CF0F3EF1CF00150010AD8B4D4EF73
:1039D8001CF0030AD8B4D9EF1CF0F3EF1CF0CA842A
:1039E80012000001606F010ED3EC1EF0000160515F
:1039F800D3EC1EF072EC18F04BC061F04CC062F0D2
:103A08004DC063F04EC064F0EA0E5B6EC30EE82E44
:103A1800FED75B2EFCD700F0000ED3EC1EF061C081
:103A280057F062C058F063C059F064C05AF01200F1
:103A3800000E106E000E0F6E2DEF1DF00EC001F07F
:103A4800026A0CC003F00DC004F048EC17F00F4AEE
:103A5800102A0F500A24D96E10500B20DA6EDF504E
:103A68000E6E0E50D8A43BEF1DF03DEF1DF022EF77
:103A78001DF01200000E026E000E016E320E0124BF
:103A8800D96E010E0220DA6E000EDF6E014A022A9C
:103A980002BE58EF1DF0025009E1320E015CD8A0B9
:103AA80058EF1DF05AEF1DF042EF1DF0000E010116
:103AB800636F120014BE6BEF1DF0145006E113047F
:103AC800D8B069EF1DF06BEF1DF079EF1DF013C052
:103AD80015F014C016F0151E161E154A162A15C024
:103AE80013F016C014F07DEF1DF013C013F014C0CE
:103AF80014F01200020EC5EC1AF00009D8B487EFD2
:103B08001DF089EF1DF09CEF1DF0010EC5EC1AF0B9
:103B18000009D8B492EF1DF094EF1DF09CEF1DF052
:103B2800000E036E000EB7EC1EF0450EDFEC1EF023
:103B380012001BEC1FF0AE0E11EC1FF0045011EC3C
:103B48001FF0035011EC1FF017EC1FF0AF0E11EC33
:103B58001FF0C6EC1EF0066E1FEC1FF00D0E056E72
:103B6800FC0EE82EFED7052EFCD7065012000001E9
:103B7800CD51D8A4C2EF1DF0C4EF1DF0D4EF1DF055
:103B8800030EC5EC1AF00009D8B4CDEF1DF0CFEF45
:103B98001DF0D6EF1DF0450EDFEC1EF0D6EF1DF040
:103BA800000ECD6F1200D00E036EFF0E046E01C022
:103BB80005F002C006F00350052604500622065000
:103BC8000AE10A0E055CD8A0ECEF1DF0EFEF1DF03E
:103BD800010EF0EF1DF0000E016E026A120001C026
:103BE80003F002C004F0FBEF1DF0014A022A01C0F5
:103BF800D9FF02C0DAFFDF50D8A405EF1EF007EFA7
:103C08001EF0F9EF1DF00350015C016E04500258DC
:103C1800026E1200100E056E058205C003F0020E3A
:103C2800B7EC1EF0000E036E010EB7EC1EF0000E8E
:103C3800036E000EB7EC1EF0C00E026E7F0E036E10
:103C4800CDEC1BF012001BEC1FF0AE0E11EC1FF0B8
:103C5800085011EC1FF0075011EC1FF0095011EC3F
:103C68001FF01FEC1FF00D0E0A6EFC0EE82EFED79B
:103C78000A2EFCD71200026E94EC1EF0C58694EC56
:103C88001EF0C9CF03F094EC1EF00250D8B44FEFE9
:103C98001EF052EF1EF0C58A53EF1EF0C59AC58874
:103CA80003501200000E6CEC1EF0A7EC1EF0000191
:103CB800D46F010E6CEC1EF0A7EC1EF00001D56F5E
:103CC800020E6CEC1EF0A7EC1EF00001D66F12007D
:103CD800036E1BEC1FF0D00E11EC1FF0035011EC1B
:103CE8001FF017EC1FF0D10E11EC1FF0C6EC1EF000
:103CF800046E1FEC1FF00450120001500302F3CFB2
:103D080005F0F4CF06F001500402F35006260250E5
:103D18000302F350062605C001F006C002F01200A7
:103D2800C5CF01F01F0E0116D8A49DEF1EF09FEF1E
:103D38001EF094EF1EF0C7B4A4EF1EF0A6EF1EF01D
:103D480094EF1EF01200026E02380F0B0F0B036E79
:103D580002C001F00F0E011603500A0DF3500124A2
:103D6800036E03501200046E1BEC1FF0D00E11EC12
:103D78001FF0045011EC1FF0035011EC1FF01FEC62
:103D88001FF0120094EC1EF0C58694EC1EF0C9CF0B
:103D980002F094EC1EF0C58AC58802501200036E2A
:103DA8001BEC1FF0460E11EC1FF0035011EC1FF036
:103DB8001FEC1FF01200016E01C0ADFFACA2E7EFCF
:103DC8001EF0E9EF1EF0E2EF1EF0120093809382DE
:103DD800800EC76E280EC66E000EC56E090EC86E20
:103DE8001200820E046EDE0EE82EFED7042EFCD7DB
:103DF800000ED3EC1EF01200286E756C6C29007B47
:093E0800E100000F0000006967F1
:103E1200030E6CEC1EF0A7EC1EF00001D36F120033
:103E2200026E94EC1EF002C0C9FF120094EC1EF068
:103E3200C582120094EC1EF0C580120094EC1EF0B4
:063E4200C584120012000D
:107C8800000D0A20332E2050726F6772616D617289
:107C9800207469656D706F20646520496C756D6925
:107CA8006E6163696F6E20656E20756E20686F72F5
:107CB8006172696F200D0A000D0A54203D204D495C
:107CC8004E55544F53205155452044555241524129
:107CD800204C4120494C554D494E4143494F4E0D8A
:107CE8000A000D0A44203D2044494153205155457E
:107CF80020454E204C4F532051554520534520498F
:107D08004C554D494E4152410D0A000D0A20322E64
:107D180020417369676E617220486F726172696F82
:107D280073207061726120496C756D696E61722093
:107D38000D0A00484F5241203D2025302E32643A2A
:107D480025302E3264207C20444941203D204D4975
:107D58004552434F4C45530D0A000D0A20496E67A2
:107D68007265736120756E61206F7063696F6E2034
:107D780061205265616C697A61723A200D0A004887
:107D88004F5241203D2025302E32643A25302E3284
:107D980064207C20444941203D20444F4D494E47B2
:107DA8004F0D0A00484F5241203D2025302E3264A5
:107DB8003A25302E3264207C20444941203D20560B
:107DC8004945524E45530D0A0020202020202020EE
:107DD800202020202020202020202020202020209B
:107DE80020202020444C4D494A56530D0A000D0AC4
:107DF80020382E20436172676172206461746F734A
:107E0800206465206C61206D656D6F726961200D5D
:107E18000A00484F5241203D2025302E32643A2531
:107E2800302E3264207C20444941203D2053414279
:107E380041444F0D0A00484F5241203D2025302E25
:107E480032643A25302E3264207C20444941203D5A
:107E5800204D41525445530D0A00484F5241203D90
:107E68002025302E32643A25302E3264207C20447E
:107E78004941203D204A55455645530D0A00484F73
:107E88005241203D2025302E32643A25302E32646E
:107E9800207C20444941203D204C554E45530D0A35
:107EA800000D0A20352E204D6F7374726172207692
:107EB800616C6F7265732073656E736F7265732082
:107EC8000D0A000D0A20342E2044616D652064617E
:107ED800746F732064656C2073697374656D6120B9
:107EE8000D0A000D0A52203D20494C554D494E417E
:107EF80052282031205349207C2030204E4F290D14
:107F08000A000D0A20312E2046696A617220486FE6
:107F180072612041637475616C200D0A000D0A209E
:107F2800372E2046696A6172204469612041637472
:107F380075616C200D0A000D0A20362E20417369E8
:107F4800676E617220536574706F696E740D0A00F4
:107F5800483A2532647C523A25647C543A25326486
:107F68007C443A25730D0A000D4C757A206D6564C2
:107F78006964613A202564206C7578730A0D000DD8
:107F88000A53697374656D6120496E696369616438
:107F98006F0A0D000D0A536574706F696E74203D89
:107FA800202564207C200041542B4E414D45534DE3
:107FB800415254484F4D45000D0A52544320444500
:107FC8004641554C540A0D000D0A204F7063696FE5
:107FD8006E3A20200D000D0A48203D20484F52419E
:107FE8000D0A0041542B50494E323530310041546E
:087FF8002B4241554434000006
:020000040020DA
:08000000FFFFFFFFFFFFFFFF00
:020000040030CA
:0E0000000000191EFF8180FF0FC00FE00F40AF
:00000001FF
