:020000040000FA
:0400000032EF1CF0CF
:10080000000D4C757A206D65646964613A20252E6F
:100810003266206C7578730D0A00494E46004E41D1
:100820004E00696E66006E616E006C660000000E20
:1008300000017B6F000E7A6F3EC08CF03FC08DF0E0
:1008400040C08EF041C08FF08FBF2BEF04F029EF36
:1008500004F041EF04F0000E7B6F010E7A6F8CC044
:1008600001F08DC002F08EC003F08FC004F08AEC5E
:100870001BF001C08CF002C08DF003C08EF004C0EC
:100880008FF0000E0001936F000E926FDDC07FF0BD
:10089000DEC080F07A517B11D8A451EF04F053EF01
:1008A00004F05AEF04F0E1A558EF04F05AEF04F019
:1008B00074EF04F07A517B11D8A461EF04F063EF78
:1008C00004F069EF04F0000E656F2B0E646F6DEF9E
:1008D00004F0000E656F2D0E646F64C000F1924B42
:1008E000932B7F07D8A080078CC001F08DC002F049
:1008F0008EC003F08FC004F097EC16F001040210D4
:10090000D8A485EF04F087EF04F0DEEF04F0BF0E0B
:10091000436EFF0E446E4250456E466A4350452674
:100920004450462246500AE11A0E455CD8A09BEF7F
:1009300004F09EEF04F0010E9FEF04F0000E0001A2
:10094000666F676B66516711D8B4A9EF04F0ABEF1F
:1009500004F0B9EF04F0000E9225016E010E932110
:10096000026E1A0E036E080E046E84EC1AF0C5EFC8
:1009700004F0000E9225016E010E9321026E220EEC
:10098000036E080E046E84EC1AF00001FD0E7F2742
:10099000FF0E80233CC011F03DC012F0000E136E1C
:1009A000010E146E7FC015F080C016F0E6EC17F053
:1009B00011C03CF012C03DF0EEEF09F08CC001F028
:1009C0008DC002F08EC003F08FC004F097EC16F0DB
:1009D00001500210D8A4EFEF04F0F1EF04F031EF72
:1009E00005F0BF0E436EFF0E446E4250456E466AE0
:1009F000435045264450462246500AE11A0E455CB3
:100A0000D8A005EF05F008EF05F0010E09EF05F09D
:100A1000000E0001686F696B68516911D8B413EF5B
:100A200005F015EF05F023EF05F0000E9225016E9D
:100A3000010E9321026E1E0E036E080E046E84ECEE
:100A40001AF0C5EF04F0000E9225016E010E9321FD
:100A5000026E260E036E080E046E84EC1AF0C5EFCB
:100A600004F0000E0001946F000E956F800E966FDB
:100A70003F0E976F000E916F000E906F8CC001F0CB
:100A80008DC002F08EC003F08FC004F0000E056E22
:100A9000000E066E000E076E000E086E03EC19F0D5
:100AA000D8B055EF05F057EF05F0DAEF05F076EF27
:100AB00005F094C001F095C002F096C003F097C015
:100AC00004F0000E056E000E066E200E076E410E3D
:100AD000086E7FEC0EF001C094F002C095F003C0E8
:100AE00096F004C097F00001904B912B8CC01AF047
:100AF0008DC01BF08EC01CF08FC01DF0000E056E67
:100B0000000E066E200E076E410E086E94C001F0B6
:100B100095C002F096C003F097C004F07FEC0EF091
:100B200001C01EF002C01FF003C020F004C021F07D
:100B300015EC16F0D8B09FEF05F0A1EF05F059EFD6
:100B400005F0C1EF05F094C00FF095C010F096C00D
:100B500011F097C012F0000E136E000E146E200EEE
:100B6000156E410E166E94EC10F00FC094F010C08C
:100B700095F011C096F012C097F000019007D8A030
:100B800091078CC01AF08DC01BF08EC01CF08FC076
:100B90001DF094C01EF095C01FF096C020F097C0C5
:100BA00021F015EC16F0D8A0D8EF05F0DAEF05F03B
:100BB000A3EF05F042C007F0086A54EC1AF00750A2
:100BC0000001816F81C07EF0670E8119D8A4EBEF20
:100BD00005F0EDEF05F013EF06F0DF51E011D8A4BA
:100BE000F4EF05F0F6EF05F0FAEF05F0000EE06F18
:100BF000010EDF6FE0BF07EF06F0E05106E1DF0511
:100C0000D8B005EF06F007EF06F00DEF06F0000E86
:100C10007D6F060E7C6F1CEF06F0DFC07CF0E0C03D
:100C20007DF01CEF06F0E0BF18EF06F01AEF06F0BB
:100C300007EF06F00DEF06F0670E8119D8A423EF39
:100C400006F025EF06F054EF06F091AF33EF06F013
:100C5000FC0E905DFF0E9159D8A031EF06F033EFF6
:100C600006F052EF06F0FF0E436EFF0E446E7CC09E
:100C700045F07DC046F043504526445046229051F1
:100C8000455C4650800A476E9151800A4758D8A06B
:100C90004CEF06F04EEF06F052EF06F0660E7E6F58
:100CA00054EF06F0650E7E6F7CC074F07DC075F069
:100CB000670E8119D8A45FEF06F061EF06F071EFBF
:100CC00006F0660E7E19D8A468EF06F06AEF06F00B
:100CD00073EF06F091BF71EF06F06FEF06F073EF60
:100CE00006F0744B752B660E7E19D8A47AEF06F0C9
:100CF0007CEF06F09CEF06F091BF83EF06F081EFEA
:100D000006F08FEF06F0000E946F000E956F800EC8
:100D1000966F3F0E976F000E916F000E906F670EEB
:100D20008119D8B496EF06F098EF06F09CEF06F024
:100D30009051742791517523000E8B6F000E8A6FAE
:100D40008CC082F08DC083F08EC084F08FC085F09F
:100D500094C060F095C061F096C062F097C063F0F7
:100D60002DEF07F082C00FF083C010F084C011F0A7
:100D700085C012F094C013F095C014F096C015F021
:100D800097C016F094EC10F00FC028F010C029F0B6
:100D900011C02AF012C02BF061EC12F028C086F0CE
:100DA00029C087F02AC088F02BC089F086C028F0BF
:100DB00087C029F088C02AF089C02BF092EC15F08A
:100DC00028C078F029C079F082C01AF083C01BF0E7
:100DD00084C01CF085C01DF094C005F095C006F0DD
:100DE00096C007F097C008F086C001F087C002F0F7
:100DF00088C003F089C004F07FEC0EF001C01EF043
:100E000002C01FF003C020F004C021F029EC1BF049
:100E10001AC082F01BC083F01CC084F01DC085F096
:100E200094C00FF095C010F096C011F097C012F06A
:100E3000000E136E000E146E200E156E410E166E0F
:100E400094EC10F00FC094F010C095F011C096F023
:100E500012C097F000018A4B8B2B74518A5D8B5125
:100E6000800A436E7551800A4358D8A03AEF07F0C4
:100E70003CEF07F0B2EF06F094C001F095C002F02D
:100E800096C003F097C004F0000E056E000E066ECB
:100E9000A00E076E400E086E7FEC0EF001C086F0CB
:100EA00002C087F003C088F004C089F082C01AF045
:100EB00083C01BF084C01CF085C01DF086C01EF0EE
:100EC00087C01FF088C020F089C021F015EC16F013
:100ED000D8B06DEF07F06FEF07F07AEF07F0000E74
:100EE0000001866F000E876F000E886F000E896FFD
:100EF000A3EF07F082C001F083C002F084C003F0CA
:100F000085C004F086C005F087C006F088C007F0F1
:100F100089C008F003EC19F0D8A091EF07F093EF27
:100F200007F0A3EF07F0000178B199EF07F09BEF0E
:100F300007F0A3EF07F0000E866F000E876F000E1C
:100F4000886F000E896F8CC001F08DC002F08EC0DA
:100F500003F08FC004F086C005F087C006F088C09B
:100F600007F089C008F0EFEC09F001C082F002C080
:100F700083F003C084F004C085F060C094F061C0C9
:100F800095F062C096F063C097F0650E00017E197F
:100F9000D8B4CDEF07F0CFEF07F0D5EF07F090C052
:100FA00076F091C077F0D9EF07F0000E776F000E62
:100FB000766F000E736F000E726F000E716F000E71
:100FC000706F000E8B6F000E8A6FD4EF08F082C036
:100FD0000FF083C010F084C011F085C012F094C0EF
:100FE00013F095C014F096C015F097C016F094EC6D
:100FF00010F00FC028F010C029F011C02AF012C064
:101000002BF061EC12F028C086F029C087F02AC0CE
:1010100088F02BC089F086C028F087C029F088C0EE
:101020002AF089C02BF092EC15F028C078F029C086
:1010300079F00001E1B91FEF08F021EF08F03EEF71
:1010400008F078517911D8A428EF08F02AEF08F0B9
:101050003EEF08F0670E8119D8A431EF08F033EFA6
:1010600008F03EEF08F077BF3AEF08F038EF08F0ED
:101070003EEF08F0704B712B88EF08F0725173113E
:10108000D8A445EF08F047EF08F071EF08F077BFFC
:101090004EEF08F04CEF08F071EF08F0000E9225CB
:1010A000D96E010E9321DA6E2E0EDF6E924B932BCA
:1010B0007F07D8A08007000E736F010E726F71EF6B
:1010C00008F0000E9225D96E010E9321DA6E300ED3
:1010D000DF6E924B932B7F07D8A080077007D8A0B4
:1010E000710770517111D8A478EF08F07AEF08F009
:1010F00061EF08F0000E9225D96E010E9321DA6E91
:101100007851300FDF6E924B932B7F07D8A080076A
:1011100082C01AF083C01BF084C01CF085C01DF093
:1011200094C005F095C006F096C007F097C008F08F
:1011300086C001F087C002F088C003F089C004F0C7
:101140007FEC0EF001C01EF002C01FF003C020F0C3
:1011500004C021F029EC1BF01AC082F01BC083F000
:101160001CC084F01DC085F094C00FF095C010F035
:1011700096C011F097C012F0000E136E000E146EA0
:10118000200E156E410E166E94EC10F00FC094F008
:1011900010C095F011C096F012C097F000017607CC
:1011A000D8A077078A4B8B2B74518A5D8B51800AAC
:1011B000436E7551800A4358D8B0E1EF08F0E3EF71
:1011C00008F0F1EF08F093BFEFEF08F0935109E159
:1011D0004B0E925DD8A0EFEF08F0F1EF08F0E7EFCB
:1011E00007F072517311D8A4F8EF08F0FAEF08F085
:1011F0000BEF09F0E1A9FFEF08F001EF09F00BEFA9
:1012000009F0000E9225D96E010E9321DA6E2E0E92
:10121000DF6E924B932B000E9225D96E010E932117
:10122000DA6E000EDF6E650E7E19D8A41AEF09F093
:101230001CEF09F0CAEF04F0000E8B6F4F0E8A6F9F
:10124000000E8A25D96E010E8B21DA6E000EDF6E3C
:10125000000E7B6F000E7A6F91BF33EF09F031EF14
:1012600009F03BEF09F0000E7B6F010E7A6F906D75
:10127000911FD8B0912B000E7D6F020E7C6F6CEF2A
:1012800009F08A07D8A08B07000E8A25D96E010EB7
:101290008B21DA6E90C001F091C002F0000E046E56
:1012A0000A0E036EABEC18F00150300FDF6E90C0E9
:1012B00001F091C002F0000E046E0A0E036E49ECBC
:1012C00018F001C090F002C091F000017C07D8A096
:1012D0007D077F07D8A0800790519111D8A473EFA4
:1012E00009F075EF09F041EF09F07DBF82EF09F0D9
:1012F0007D5106E17C05D8B080EF09F082EF09F05E
:1013000041EF09F08A07D8A08B077A517B11D8A446
:101310008CEF09F08EEF09F094EF09F0000E6B6F7F
:101320002B0E6A6F98EF09F0000E6B6F2D0E6A6F2F
:10133000000E8A25D96E010E8B21DA6E6AC0DFFF9E
:101340007F07D8A080078A07D8A08B07BF0E436EFF
:10135000FF0E446E4250456E466A43504526445047
:10136000462246500AE11A0E455CD8A0BAEF09F0B1
:10137000BDEF09F0010EBEEF09F0000E6E6F6F6B4E
:101380006E516F11D8A4C7EF09F0C9EF09F0CFEF84
:1013900009F0000E6D6F650E6C6FD3EF09F0000E53
:1013A0006D6F450E6C6F000E8A25D96E010E8B2174
:1013B000DA6E6CC0DFFF7F07D8A08007000E922591
:1013C000016E010E9321026E000E8A25036E010E3E
:1013D0008B21046E84EC1AF0CAEF04F01200045062
:1013E000800B0D6E045004240F6E03AEFAEF09F06B
:1013F000FCEF09F0FDEF09F00F800F50D8B403EFB8
:101400000AF005EF0AF01AEF0AF00F28D8A40BEF44
:101410000AF00DEF0AF015EF0AF0000E016E000E53
:10142000026E000E036E000E046E038E000E046E3C
:1014300022EF0AF0000E016E000E026E000E036E27
:10144000000E046E0850800B0E6E0D500E18D8B4AE
:101450002CEF0AF02EEF0AF02FEF0AF00D8C085057
:1014600008240E6E07AE37EF0AF039EF0AF03AEFB4
:101470000AF00E800E50D8B440EF0AF042EF0AF0A6
:1014800057EF0AF00E28D8A448EF0AF04AEF0AF006
:1014900052EF0AF0000E056E000E066E000E076E8B
:1014A000000E086E078E000E086E5FEF0AF0000E49
:1014B000056E000E066E000E076E000E086E0F50D1
:1014C0000E5CD8B066EF0AF068EF0AF08FEF0AF012
:1014D0000DAC6DEF0AF06FEF0AF071EF0AF0800EBD
:1014E0000D1A0FC010F00EC00FF010C00EF001C0AA
:1014F00010F005C001F010C005F002C010F006C0E9
:1015000002F010C006F003C010F007C003F010C0D6
:1015100007F004C010F008C004F010C008F0000E7E
:10152000106E0F500EC009F00A6A095E000E0A5ACA
:101530000ABEA4EF0AF00A5009E11A0E095CD8A00D
:10154000A4EF0AF0A6EF0AF0DDEF0AF00150021056
:1015500003100410D8A4AFEF0AF0B2EF0AF0010EA6
:10156000B3EF0AF0000E106E000E016E000E026E58
:10157000000E036E000E046E0EC00FF0E6EF0AF0D0
:1015800010A0C5EF0AF0C7EF0AF0CDEF0AF0D8902F
:1015900010300109106ECFEF0AF0D890103201A080
:1015A000D4EF0AF0D6EF0AF0D7EF0AF0108E043429
:1015B00004320332023201320F2A0E500F5CD8A0DF
:1015C000E4EF0AF0E6EF0AF0C0EF0AF00DBCEBEF33
:1015D0000AF0EDEF0AF02DEF0BF00F50D8A4F3EF67
:1015E0000AF0F5EF0AF0FFEF0AF0000E016E000EB0
:1015F000026E000E036E000E046E4EEF0CF00550EE
:10160000012606500222075003220850042204A09B
:101610000CEF0BF00EEF0BF0BAEF0BF010A013EF86
:101620000BF015EF0BF01BEF0BF0D8901030010909
:10163000106E1DEF0BF0D890103201A022EF0BF0CE
:1016400024EF0BF025EF0BF0108E0434043203323C
:10165000023201320F2ABAEF0BF00550015C06503E
:101660000258075003580450800A096E0850800A37
:101670000958D8B03EEF0BF040EF0BF06BEF0BF0DA
:101680000150055C096E025006580A6E0350075857
:101690000B6E045008580C6EFF0E0924016EFF0EED
:1016A0000A20026EFF0E0B20036EFF0E0C20046E4C
:1016B000800E0D1A106C1050D8A461EF0BF063EF80
:1016C0000BF073EF0BF0010E0126000E0222032235
:1016D000042273EF0BF00550015E0650025A0750CA
:1016E000035A0850045A0150021003100410D8A4E1
:1016F0007CEF0BF07EEF0BF0B3EF0BF01050D8A4A3
:1017000084EF0BF086EF0BF0B3EF0BF0000E016EE1
:10171000000E026E000E036E000E046E4EEF0CF013
:10172000D890013602360336043610AE9AEF0BF02D
:101730009CEF0BF09DEF0BF0018010A0A2EF0BF0DF
:10174000A4EF0BF0A8EF0BF0D8801036AAEF0BF047
:10175000D89010360F50D8B4B0EF0BF0B2EF0BF0BA
:10176000B3EF0BF00F0603AEB8EF0BF0BAEF0BF0D0
:1017700090EF0BF0000E0E6E10AEC1EF0BF0C3EF4A
:101780000BF0DBEF0BF010C009F07F0E0916D8B498
:10179000CCEF0BF0CEEF0BF0D2EF0BF0010E0E6E94
:1017A000DBEF0BF001A0D7EF0BF0D9EF0BF0DBEF85
:1017B0000BF0CEEF0BF00E50D8B4E1EF0BF0E3EFEF
:1017C0000BF00EEF0CF0010E0126000E0222032298
:1017D000042204A0EEEF0BF0F0EF0BF00EEF0CF094
:1017E00001C009F002C00AF003C00BF004C00CF005
:1017F0000C340C320B320A32093209C001F00AC033
:1018000002F00BC003F00CC004F00F28D8B40BEFAB
:101810000CF00DEF0CF00EEF0CF00F2A0F28D8B4DF
:1018200014EF0CF016EF0CF01EEF0CF00F50D8A4D4
:101830001CEF0CF01EEF0CF030EF0CF0000E016E00
:10184000000E026E000E036E000E046E0F50D8A440
:101850002CEF0CF02EEF0CF030EF0CF0000E0D6EB4
:101860000FA035EF0CF037EF0CF03AEF0CF0038ED1
:101870003BEF0CF0039ED8900F30046E0DAE43EF9B
:101880000CF045EF0CF046EF0CF0048E01C001F0B7
:1018900002C002F003C003F004C004F012004AC00A
:1018A000D9FF4BC0DAFFDECFF6FFDDCFF7FF080030
:1018B000F550250AD8A45FEF0CF061EF0CF063EF50
:1018C0000EF04AC0D9FF4BC0DAFFDE2A000EDD223F
:1018D000000E0001DE6F000EDD6FDDC0E1F0DEC046
:1018E000E2F0DF69E0694AC0D9FF4BC0DAFFDECF22
:1018F000F6FFDDCFF7FF0800F5502E0AD8A483EFDE
:101900000CF085EF0CF002EF0DF0000EE06F000E12
:10191000DF6F4AC0D9FF4BC0DAFFDE2A000EDD229E
:101920004AC0D9FF4BC0DAFFDECFF6FFDDCFF7FFAD
:101930000800F5502A0AD8A4A0EF0CF0A2EF0CF092
:10194000BFEF0CF04AC0D9FF4BC0DAFFDE2A000E11
:10195000DD224CC0D9FF4DC0DAFFDFCF4EF0020EC2
:10196000DE26DFCF4FF0000EDD224EC0D9FF4FC084
:10197000DAFFDECFDFF0DDCFE0F002EF0DF04AC09E
:10198000D9FF4BC0DAFFDECF08F0DDCF09F044EC21
:1019900014F008C0DFF009C0E0F0D6EF0CF04AC048
:1019A000D9FF4BC0DAFFDE2A000EDD22D00E4E6ECC
:1019B000FF0E4F6E4AC0D9FF4BC0DAFFDECFF6FFF5
:1019C000DDCFF7FF0800F550506E516A4E5050269B
:1019D0004F50512251500AE10A0E505CD8A0F3EF4B
:1019E0000CF0F6EF0CF0010EF7EF0CF0000E526E5B
:1019F000536A52505310D8A400EF0DF002EF0DF0CF
:101A0000CFEF0CF04AC0D9FF4BC0DAFFDECFF6FFB4
:101A1000DDCFF7FF0800F550076E086A54EC1AF0A6
:101A200007505A6E5A50D8B418EF0DF01AEF0DF057
:101A300052EF0DF04AC0D9FF4BC0DAFFDECF4EF0B7
:101A4000DDCF4FF0010E4E26000E4F224EC0F6FFA6
:101A50004FC0F7FF0800F550076E086A54EC1AF003
:101A600007505B6E5B50D8B438EF0DF03AEF0DF0D5
:101A700052EF0DF04AC0D9FF4BC0DAFFDECF4EF077
:101A8000DDCF4FF0020E4E26000E4F224EC0F6FF65
:101A90004FC0F7FF0800F550076E086A54EC1AF0C3
:101AA00007505C6E660E5A18D8A459EF0DF05BEF24
:101AB0000DF09BEF0DF04AC0D9FF4BC0DAFFDECF2F
:101AC000F6FFDDCFF7FF0800F5CF5DF04AC0D9FF84
:101AD0004BC0DAFFDE2A000EDD224CC0D9FF4DC01C
:101AE000DAFFDFCF4EF0040EDE26DFCF4FF0000E20
:101AF000DD224EC0D9FF4FC0DAFFDECF56F0DECF79
:101B000057F0DECF58F0DECF59F048C03CF049C066
:101B10003DF056C03EF057C03FF058C040F059C0AD
:101B200041F05DC042F017EC04F03CC048F03DC00D
:101B300049F07EEF0EF05A0E016E000E026E2A0E74
:101B4000036E080E046E000E066E020E056E16EC95
:101B500017F001500210D8A4B0EF0DF0B2EF0DF065
:101B60002DEF0EF04AC0D9FF4BC0DAFFDECF4EF0AA
:101B7000DDCF4FF0010E4E26000E4F224EC0F6FF75
:101B80004FC0F7FF0800F5CF5DF0BF0E4E6EFF0EA1
:101B90004F6E4AC0D9FF4BC0DAFFDECFF6FFDDCF74
:101BA000F7FF0800F550506E516A4E5050264F50C6
:101BB000512251500AE11A0E505CD8A0E2EF0DF00C
:101BC000E5EF0DF0010EE6EF0DF0000E546E556AD4
:101BD00054505510D8B4EFEF0DF0F1EF0DF00BEFBE
:101BE0000EF04CC0D9FF4DC0DAFFDFCF4EF0040E2F
:101BF000DE26DFCF4FF0000EDD224EC0D9FF4FC0F2
:101C0000DAFFDECF56F0DECF57F0DECF58F0DECF72
:101C100059F023EF0EF04CC0D9FF4DC0DAFFDFCFF3
:101C20004EF0040EDE26DFCF4FF0000EDD224EC058
:101C3000D9FF4FC0DAFFDECF56F0DECF57F0DECF50
:101C400058F0DECF59F0020E4AC0D9FF4BC0DAFF80
:101C5000DE26000EDD2285EF0DF04AC0D9FF4BC015
:101C6000DAFFDECFF6FFDDCFF7FF0800F550250ADB
:101C7000D8A43DEF0EF03FEF0EF056EF0EF04AC045
:101C8000D9FF4BC0DAFFDE2A000EDD22000E026E05
:101C9000250E016E48C003F049C004F081EC17F036
:101CA000000E496E010E486E7EEF0EF04AC0D9FF5D
:101CB0004BC0DAFFDE2A000EDD22000E496E000E58
:101CC000486E7EEF0EF04AC0D9FF4BC0DAFFDECF80
:101CD000F6FFDDCFF7FF0800F550016E026A48C03D
:101CE00003F049C004F081EC17F04AC0D9FF4BC0A3
:101CF000DAFFDE2A000EDD2250EF0EF01200045053
:101D0000800B0D6E04500424136E03AE8AEF0EF0A8
:101D10008CEF0EF08DEF0EF013801350D8B493EFCC
:101D20000EF095EF0EF0A8EF0EF01328D8A49BEF5D
:101D30000EF09DEF0EF0A5EF0EF0000E016E000EFE
:101D4000026E000E036E000E046E038EB0EF0EF0F6
:101D5000000E016E000E026E000E036E000E046E89
:101D60000850800B0D1A08500824126E07AEBBEF06
:101D70000EF0BDEF0EF0BEEF0EF012801250D8B490
:101D8000C4EF0EF0C6EF0EF0D9EF0EF01228D8A473
:101D9000CCEF0EF0CEEF0EF0D6EF0EF0000E056E8B
:101DA000000E066E000E076E000E086E078EE1EF45
:101DB0000EF0000E056E000E066E000E076E000E91
:101DC000086E1250D8B4E7EF0EF0E9EF0EF0F1EF25
:101DD0000EF01350D8A4EFEF0EF0F1EF0EF0FBEF82
:101DE0000EF0000E016E000E026E000E036E000E6D
:101DF000046E93EF10F007500102F3CF18F0F4CF08
:101E000019F018500E6E0F6A106A116A1950146E8C
:101E1000156A166A176A06500202F3CF18F0F4CF5B
:101E200019F018500E26000E0F2210221122195000
:101E30001426000E15221622172205500302F3CF96
:101E400018F0F4CF19F018500E26000E0F221022B1
:101E5000112219501426000E15221622172210C026
:101E600011F00FC010F00EC00FF00E6A0550020204
:101E7000F3CF18F0F4CF19F018500E2619500F2296
:101E8000000E1022000E112206500102F3CF18F0AE
:101E9000F4CF19F018500E2619500F22000E102200
:101EA000000E112210C011F00FC010F00EC00FF084
:101EB0000E6A05500102F3CF18F0F4CF19F0185054
:101EC0000E2619500F22000E1022000E112207506C
:101ED0000202F3CF18F0F4CF19F01850142619505D
:101EE0001522000E1622000E172206500302F3CF11
:101EF00018F0F4CF19F01850142619501522000EBE
:101F00001622000E172207500302F3CF18F0F4CF69
:101F100019F01850096E19500A6E0B6A0C6A0BC042
:101F20000CF00AC00BF009C00AF0096A0950142627
:101F30000A5015220B5016220C5017220EC009F021
:101F40000FC00AF010C00BF011C00CF0190EAEEF6C
:101F50000FF0D8900C320B320A320932E82EA9EF7A
:101F60000FF0095014260A5015220B5016220C505F
:101F7000172210C011F00FC010F00EC00FF00E6A43
:101F8000125013C009F00A6A0926000E0A22820EB6
:101F90000924186EFF0E0A20196EE4EF0FF0D89096
:101FA000143615361636173611AED9EF0FF0DBEFB3
:101FB0000FF0DCEF0FF01480D8900E360F3610368D
:101FC00011361806D8A0190616AEE9EF0FF0EBEFA0
:101FD0000FF0CFEF0FF0000E126E11AEF2EF0FF018
:101FE000F4EF0FF018EF10F0FF0E0E14096EFF0E55
:101FF0000F140A6EFF0E10140B6E7F0E11140C6E70
:1020000009500A100B100C10D8B409EF10F00BEFA8
:1020100010F00FEF10F0010E126E18EF10F014A078
:1020200014EF10F016EF10F018EF10F00BEF10F0A7
:102030001250D8B41EEF10F020EF10F044EF10F063
:10204000010E1426000E15221622172217A02BEFC0
:1020500010F02DEF10F044EF10F014C009F015C08F
:102060000AF016C00BF017C00CF00C340C320B3217
:102070000A32093209C014F00AC015F00BC016F07C
:102080000CC017F0184A192A19BE4FEF10F019505A
:1020900008E11828D8A04FEF10F051EF10F05BEFD7
:1020A00010F0000E146E000E156E800E166E7F0E70
:1020B000176E89EF10F019BE68EF10F0195006E1A5
:1020C0001804D8B066EF10F068EF10F074EF10F05D
:1020D000000E146E000E156E000E166E000E176EBA
:1020E000000E0D6E89EF10F018C013F0FF0E1416DD
:1020F000FF0E15167F0E1616000E171613A083EF8F
:1021000010F085EF10F086EF10F0168ED890133097
:10211000176E0D50171214C001F015C002F016C052
:1021200003F017C004F012001250800B1F6E125003
:102130001224266E11AE9FEF10F0A1EF10F0A2EF67
:1021400010F026802650D8B4A8EF10F0AAEF10F0B7
:10215000BFEF10F02628D8A4B0EF10F0B2EF10F0C7
:10216000BAEF10F0000E0F6E000E106E000E116E22
:10217000000E126E118E000E126EC7EF10F0000EE0
:102180000F6E000E106E000E116E000E126E1650C5
:10219000800B1F1A16501624276E15AED2EF10F0C2
:1021A000D4EF10F0D5EF10F027802750D8B4DBEF34
:1021B00010F0DDEF10F0F2EF10F02728D8A4E3EFD5
:1021C00010F0E5EF10F0EDEF10F0000E136E000EC2
:1021D000146E000E156E000E166E158E000E166E25
:1021E000FAEF10F0000E136E000E146E000E156E56
:1021F000000E166E1350141015101610D8A403EF0D
:1022000011F005EF11F01DEF11F0000E0F6E000E32
:10221000106E000E116E000E126E800E11127F0EE7
:1022200012121F5012120FC00FF010C010F011C088
:1022300011F012C012F060EF12F02650D8A423EF74
:1022400011F025EF11F02FEF11F0000E0F6E000EC0
:10225000106E000E116E000E126E60EF12F027501D
:1022600026C017F0186A175E000E185A7F0E172442
:10227000206E000E1820216E0FC01BF010C01CF045
:1022800011C01DF012C01EF0000E0F6E000E106E79
:10229000000E116E000E126E000E226E000E236EE6
:1022A000000E246E000E256E000E276E90EF11F0CA
:1022B0002750D8B45EEF11F060EF11F077EF11F016
:1022C000D8901B361C361D361E36D8900F36103669
:1022D0001136123625AE6FEF11F071EF11F072EF7B
:1022E00011F00F80D890223623362436253613502D
:1022F0001B5C14501C5815501D5816501E58D8A061
:1023000084EF11F086EF11F08FEF11F0258C135050
:102310001B5E14501C5A15501D5A16501E5A272A5F
:10232000190E276496EF11F098EF11F058EF11F0A5
:102330001B501C101D101E10D8B4A1EF11F0A3EFFC
:1023400011F0BBEF11F02280BBEF11F0D8900F36E7
:1023500010361136123625AEB0EF11F0B2EF11F093
:10236000B3EF11F00F80D89022362336243625366D
:102370002006D8A0210611AEC0EF11F0C2EF11F077
:10238000A6EF11F0000E276E25AEC9EF11F0CBEFCE
:1023900011F0EFEF11F0FF0E2214176EFF0E231451
:1023A000186EFF0E2414196E7F0E25141A6E175026
:1023B000181019101A10D8B4E0EF11F0E2EF11F074
:1023C000E6EF11F0010E276EEFEF11F00FA0EBEF2B
:1023D00011F0EDEF11F0EFEF11F0E2EF11F02750F7
:1023E000D8B4F5EF11F0F7EF11F01BEF12F0010E7A
:1023F0000F26000E10221122122212A002EF12F05C
:1024000004EF12F01BEF12F00FC017F010C018F01D
:1024100011C019F012C01AF01A341A3219321832D7
:10242000173217C00FF018C010F019C011F01AC001
:1024300012F0204A212A21BE26EF12F0215008E195
:102440002028D8A026EF12F028EF12F033EF12F078
:10245000000E216E2068000E0F6E000E106E000E32
:10246000116E000E126E21BE40EF12F0215006E1F7
:102470002004D8B03EEF12F040EF12F04EEF12F011
:10248000000E216E000E206E000E0F6E000E106EFC
:10249000000E116E000E126E000E1F6E20C026F090
:1024A00026A055EF12F057EF12F05AEF12F0118EEE
:1024B0005BEF12F0119ED8902630126E11EF11F0E2
:1024C0001200D3C038F0D4C039F0D5C03AF0D6C02D
:1024D0003BF028C038F029C039F02AC03AF02BC0B0
:1024E0003BF0810E2C6EFF0E2D6E38C02EF039C0E1
:1024F0002FF03AC030F03BC031F0180E85EF12F0EB
:10250000D890313230322F322E32E82E80EF12F056
:102510002E502C24366E000E2D20376E37BE9AEFCB
:1025200012F0375009E1170E365CD8A09AEF12F07E
:102530009CEF12F0A6EF12F028C028F029C029F075
:102540002AC02AF02BC02BF069EF13F037BEABEF97
:1025500012F0ADEF12F01DEF13F036C02CF0FF0EAD
:102560002D6EFF0E2E6E7F0E2F6E000E306E2C66BF
:10257000BCEF12F0C4EF12F0303430322F322E3272
:102580002D322C2EB7EF12F02DC032F02EC033F0CA
:102590002FC034F030C035F0325038142C6E335028
:1025A00039142D6E34503A142E6E35503B142F6E64
:1025B0002C502D102E102F10D8A4E1EF12F0E3EFC5
:1025C00012F0E5EF12F09CEF12F038C02CF039C099
:1025D0002DF03AC02EF03BC02FF0200EF5EF12F098
:1025E000D8902F322E322D322C32E82EF0EF12F00E
:1025F0002C502D102E102F10D8B401EF13F003EF34
:1026000013F00BEF13F03250382633503922345088
:102610003A2235503B22321C2C6E331C2D6E341C5A
:102620002E6E351C2F6E2C5038162D5039162E500C
:102630003A162F503B1661EF13F038C02CF039C01A
:102640002DF03AC02EF03BC02FF0200E2DEF13F0EE
:10265000D8902F322E322D322C32E82E28EF13F064
:102660002C502D102E102F10D8A439EF13F03BEF63
:1026700013F045EF13F0000E386E000E396E000EA9
:102680003A6E000E3B6E61EF13F0D89038342C6E2A
:1026900039342D6E3A342E6E3B342F6E2C502D1063
:1026A0002E102F10D8B457EF13F059EF13F061EF3D
:1026B00013F0000E386E000E396E800E3A6EBF0EAB
:1026C0003B6E38C028F039C029F03AC02AF03BC030
:1026D0002BF01200096E0950D8B471EF13F073EFAC
:1026E00013F095EF13F004BE7AEF13F078EF13F0C8
:1026F00095EF13F001C005F002C006F003C007F02B
:1027000004C008F0051E061E071E081E052A000E3E
:1027100006220722082205C00BF006C00CF007C0F5
:102720000DF008C00EF09DEF13F001C00BF002C0D9
:102730000CF003C00DF004C00EF0015002100310A5
:102740000410D8A4A6EF13F0A8EF13F0B2EF13F023
:10275000000E016E000E026E000E036E000E046E7F
:1027600043EF14F0960E0A6EBCEF13F00A2AD890CD
:102770000E320D320C320B32000E0B14056E000EB1
:102780000C14066E000E0D14076EFE0E0E14086E6D
:102790000550061007100810D8A4D1EF13F0D3EF9E
:1027A00013F0B6EF13F0E1EF13F00A2A010E0B2637
:1027B000000E0C220D220E22D8900E320D320C3259
:1027C0000B32000E0B14056E000E0C14066E000E7C
:1027D0000D14076EFF0E0E14086E0550061007103C
:1027E0000810D8A4F6EF13F0F8EF13F0D5EF13F0BC
:1027F00000EF14F00A06D8900B360C360D360E3664
:102800000DBE05EF14F007EF14F00FEF14F0020EF9
:102810000A600DEF14F00FEF14F0FAEF13F00AB0A6
:1028200014EF14F016EF14F017EF14F00D9ED8907B
:102830000A320AC005F0066A076A086A05C008F08D
:10284000076A066A056A05500B1206500C120750FB
:102850000D1208500E120950D8B431EF14F033EFB6
:1028600014F03BEF14F004BE3AEF14F038EF14F01C
:102870003BEF14F00E8E0BC001F00CC002F00DC047
:1028800003F00EC004F01200000E166E000E156E5E
:10289000000E0F6E000E0E6E50EF14F0084A092A5B
:1028A000010E146E08C0F6FF09C0F7FF0800F550CE
:1028B000200AD8B45EEF14F060EF14F07DEF14F04E
:1028C000F70E0A6EFF0E0B6E08C0F6FF09C0F7FF89
:1028D0000800F5500C6E0D6A0A500C260B500D22A4
:1028E0000D5009E1050E0C5CD8A079EF14F07BEFD8
:1028F00014F07DEF14F0000E146E14C010F0116A85
:1029000010501110D8A487EF14F089EF14F04EEF97
:1029100014F093EF14F0000E0F6E010E0E6E084AC5
:10292000092AC8EF14F008C0F6FF09C0F7FF080035
:10293000F5500A6E0B6A0B50000AD8B4A2EF14F0DF
:10294000C8EF14F00A502B0AD8B48FEF14F0060A1F
:10295000D8B48BEF14F0C8EF14F015C001F016C016
:1029600002F0000E046E0A0E036E0CEC1CF008C0A0
:10297000F6FF09C0F7FF0800F550015E000E025A8D
:10298000300E0124156E000E0220166E8FEF14F02B
:10299000D00E0A6EFF0E0B6E08C0F6FF09C0F7FFDF
:1029A0000800F5500C6E0D6A0A500C260B500D22D3
:1029B0000D500AE10A0E0C5CD8A0E1EF14F0E4EF30
:1029C00014F0010EE5EF14F0000E126E136A1250AF
:1029D0001310D8A4EEEF14F0F0EF14F0ADEF14F0F4
:1029E0000E500F10D8A4F7EF14F0F9EF14F007EF22
:1029F00015F015C00AF016C00BF00A1E0B1E0A4A8D
:102A00000B2A0AC008F00BC009F00BEF15F015C037
:102A100008F016C009F01200000E0A6E08BE15EF8D
:102A200015F013EF15F01FEF15F0081E071E061E18
:102A3000056C000E062207220822010E0A6E04BE53
:102A400026EF15F024EF15F030EF15F0041E031EED
:102A5000021E016C000E022203220422010E0A1A39
:102A6000000E0B6E000E0C6E000E0D6E000E0E6E44
:102A70000550061007100810D8B441EF15F043EFC9
:102A800015F079EF15F0010E096E4DEF15F0D890A5
:102A90000536063607360836092A08AE52EF15F015
:102AA00054EF15F047EF15F0D8900B360C360D3675
:102AB0000E360550015C0650025807500358085066
:102AC0000458D8A066EF15F068EF15F071EF15F017
:102AD0000550015E0650025A0750035A0850045A26
:102AE0000B80D8900832073206320532092E54EF97
:102AF00015F00A50D8B47FEF15F081EF15F089EF8B
:102B000015F00E1E0D1E0C1E0B6C000E0C220D225D
:102B10000E220BC001F00CC002F00DC003F00EC07D
:102B200004F012002A342B34316E3150D8A49BEFBC
:102B300015F09DEF15F0A7EF15F0000E286E000EB2
:102B4000296E000E2A6E000E2B6E14EF16F028C0B0
:102B50002CF029C02DF02AC02EF02BC02FF0200E13
:102B6000B7EF15F0D8902F322E322D322C32E82EBE
:102B7000B2EF15F02C50306E2A8EFF0E2816FF0E85
:102B80002916FF0E2A16000E2B16960E315E31BE48
:102B9000CEEF15F0CCEF15F0E4EF15F03150800AD0
:102BA000970FD8B0D6EF15F0D8EF15F0DAEF15F093
:102BB0009DEF15F0D8902B322A3229322832313E3F
:102BC000DAEF15F0FCEF15F01F0E3164EAEF15F0A7
:102BD000ECEF15F0F4EF15F09DEF15F0D8902836D6
:102BE00029362A362B3631063150D8A4FAEF15F0A3
:102BF000FCEF15F0EEEF15F03050D8B402EF16F000
:102C000004EF16F00CEF16F02B1E2A1E291E286C5E
:102C1000000E29222A222B2228C028F029C029F0C0
:102C20002AC02AF02BC02BF01200000E1A14226EBC
:102C3000000E1B14236E800E1C14246E7F0E1D14B8
:102C4000256E2250231024102510D8A42AEF16F048
:102C50002CEF16F034EF16F0000E1A6E000E1B6EFD
:102C6000000E1C6E000E1D6E000E1E14226E000E55
:102C70001F14236E800E2014246E7F0E2114256EE7
:102C80002250231024102510D8A449EF16F04BEF42
:102C900016F053EF16F0000E1E6E000E1F6E000EA3
:102CA000206E000E216E1DAE58EF16F05AEF16F092
:102CB00063EF16F01A6C1B1ED8B01B2A1C1ED8B06E
:102CC0001C2A800E1D5621AE68EF16F06AEF16F032
:102CD00073EF16F01E6C1F1ED8B01F2A201ED8B02E
:102CE000202A800E2156000E1A1A000E1B1A000E02
:102CF0001C1A800E1D1A000E1E1A000E1F1A000E3E
:102D0000201A800E211A1E501A5C1F501B5820508A
:102D10001C5821501D58D8B090EF16F092EF16F0C5
:102D200095EF16F0D89096EF16F0D8801200D7C025
:102D30000BF0D8C00CF0D9C00DF0DAC00EF001C015
:102D40000BF002C00CF003C00DF004C00EF00BC07D
:102D500005F00CC006F00DC007F00EC008F0180E0C
:102D6000B7EF16F0D8900832073206320532E82E57
:102D7000B2EF16F00550096E0A6A09500A10D8A47D
:102D8000C4EF16F0C6EF16F0E6EF16F0D8900B344D
:102D9000056E0C34066E0D34076E0E34086E055049
:102DA000061007100810D8A4D8EF16F0DAEF16F0C6
:102DB000E0EF16F0000E026E020E016E15EF17F036
:102DC000000E026E030E016E15EF17F009280A10AF
:102DD000D8A4EDEF16F0EFEF16F011EF17F00BC0DF
:102DE00005F00CC006F00DC007F00EC008F0090E8B
:102DF000D8900536063607360836E82EF8EF16F076
:102E00000550061007100810D8B409EF17F00CEFA2
:102E100017F0010E0DEF17F0000E016E026A15EFAC
:102E200017F0000E026E040E016E120001C008F0D1
:102E300002C009F003C00AF004C00BF00506D8A0D8
:102E40000606052806E10628D8A429EF17F02BEF7F
:102E500017F038EF17F0000E026E000E016E80EFD3
:102E600017F0084A092A0A4A0B2A0506D8A00606BE
:102E700008C0D9FF09C0DAFFDF50D8B442EF17F01D
:102E800044EF17F06FEF17F00AC0F6FF0BC0F7FF23
:102E90000800F5500009D8B450EF17F052EF17F0C2
:102EA0006FEF17F005500610D8B459EF17F05BEF2D
:102EB00017F06FEF17F008C0D9FF09C0DAFFDF5035
:102EC000076E0AC0F6FF0BC0F7FF0800F5500718A1
:102ED000D8B46DEF17F06FEF17F031EF17F008C0AF
:102EE000D9FF09C0DAFFDF50076E0AC0F6FF0BC03A
:102EF000F7FF0800F550075C016E026AD8A00206D1
:102F0000120003500410D8B488EF17F08AEF17F0BE
:102F100093EF17F003500410D8A491EF17F093EF3C
:102F200017F098EF17F001507EEC1CF0E5EF17F06A
:102F300020EE04F00350D9260450DA22DE50DE10D1
:102F4000D8B4A5EF17F0A7EF17F0C2EF17F020EEF7
:102F500004F00350D9260450DA2210EE02F0035098
:102F6000E1260450E222DE50E65CE650800A096E5B
:102F7000DE50800A0958D8B0C0EF17F0C2EF17F042
:102F8000E5EF17F020EE02F00350D9260450DA22C4
:102F9000DECF05F0DDCF06F003C0D9FF04C0DAFFB5
:102FA000DECF07F0DDCF08F005500724D96E0650BC
:102FB0000820DA6E01C0DFFF20EE02F00350D926B0
:102FC0000450DA22DE2A000EDD2212000001E1A107
:102FD000ECEF17F0EEEF17F0F8EF17F013C00AF070
:102FE00014C00BF011C00CF012C00DF04CEC1BF033
:102FF00016BEFDEF17F0FFEF17F005EF18F015C044
:103000001AF016C01BF009EF18F0000E1B6E000E30
:103010001A6E000E196E000E186E1BEF18F0000EDF
:10302000026E200E016E11C003F012C004F081EC9C
:1030300017F0184A192A1A50185C1950800A176E8E
:103040001B50800A1758D8A028EF18F02AEF18F064
:103050000FEF18F00001E1B130EF18F032EF18F087
:103060003CEF18F013C00AF014C00BF011C00CF0C4
:1030700012C00DF04CEC1BF013C001F014C002F0B4
:10308000C2EC1BF01A500124116E1B500220126E6C
:103090001200000E066E04BE52EF18F050EF18F04A
:1030A00058EF18F0036C041ED8B0042A010E066E07
:1030B00002BE5FEF18F05DEF18F065EF18F0016CDD
:1030C000021ED8B0022A010E061A000E086E000E6B
:1030D000076E03500410D8B470EF18F072EF18F0B8
:1030E0009AEF18F0010E056E7AEF18F0D8900336BB
:1030F0000436052A04AE7FEF18F081EF18F076EF62
:1031000018F0D890073608360350015C0450025876
:10311000D8A08DEF18F08FEF18F094EF18F003504F
:10312000015E0450025A0780D89004320332052E03
:1031300081EF18F00650D8B4A0EF18F0A2EF18F005
:10314000A6EF18F0076C081ED8B0082A07C001F0D7
:1031500008C002F01200000E066E02BEB4EF18F0B6
:10316000B2EF18F0BAEF18F0016C021ED8B0022AC4
:10317000010E066E04BEC1EF18F0BFEF18F0C5EFE8
:1031800018F0036C041ED8B0042A03500410D8B4FD
:10319000CCEF18F0CEEF18F0F2EF18F0010E056E3C
:1031A000D6EF18F0D89003360436052A04AEDBEFCC
:1031B00018F0DDEF18F0D2EF18F00350015C045066
:1031C0000258D8A0E6EF18F0E8EF18F0ECEF18F08E
:1031D0000350015E0450025AD89004320332052E87
:1031E000DDEF18F00650D8B4F8EF18F0FAEF18F049
:1031F000FEEF18F0016C021ED8B0022A01C001F0E7
:1032000002C002F01200000E0114096E000E02143A
:103210000A6E800E03140B6E7F0E04140C6E0950A0
:103220000A100B100C10D8A418EF19F01AEF19F0AF
:1032300022EF19F0000E016E000E026E000E036EFA
:10324000000E046E000E0514096E000E06140A6EC0
:10325000800E07140B6E7F0E08140C6E09500A10B6
:103260000B100C10D8A437EF19F039EF19F041EF1B
:1032700019F0000E056E000E066E000E076E000EB1
:10328000086E055001180FE1065002180CE10750B6
:10329000031809E108500418D8B451EF19F053EF9E
:1032A00019F056EF19F0D89057EF19F0D8801200A6
:1032B000376E010E43EC1CF0375043EC1CF004EC6D
:1032C0001BF004C038F005C039F006C03AF007C062
:1032D0003BF0EA0E366EC30EE82EFED7362EFCD734
:1032E00000F0000E43EC1CF09A0E136E990E146E53
:1032F000990E156E3F0E166E38C001F039C002F0FF
:103300003AC003F03BC004F0000E6AEC13F001C0B9
:103310000FF002C010F003C011F004C012F094ECE2
:1033200010F00FC028F010C029F011C02AF012C010
:103330002BF092EC15F028C038F029C039F02AC0E3
:103340003AF02BC03BF038C032F039C033F03AC00D
:1033500034F03BC035F01200800E0F6E250E106E5B
:10336000000E116E000E126EEBEC19F04FEC1CF01B
:1033700065EC1CF0100E58EC19F032C0CFF033C0E1
:10338000D0F034C0D1F035C0D2F0B10E00019E6F44
:10339000000E9F6F010EA06F080EA16FCFC0A2F0AC
:1033A000D0C0A3F0D1C0A4F0D2C0A5F0B2EC1AF006
:1033B000B10E026E000E036EDDEC1BF00D0E00016F
:1033C000B06FFB0EE82EFED7B02FFCD700D0BAEFBF
:1033D00019F000EF00F0949C948E100E056E000E14
:1033E000066E000E076E000E086E000E016E090ECE
:1033F000026E3D0E036E000E046E0CEC15F001C063
:1034000017F002C018F003C019F004C01AF017C07A
:1034100001F018C002F019C003F01AC004F00FC088
:1034200005F010C006F011C007F012C008F00CEC57
:1034300015F00104AF6EAC84AC98AB8EAC9CAC8A3A
:10344000AB9CAB8812009AC05EF09BC05FF0000E90
:103450000001DC6F000EDB6F41EF1AF098C048F0FE
:1034600099C049F05E0E4A6E000E4B6E9CC04CF047
:103470009DC04DF04FEC0CF048500001DB27495047
:10348000DC235EC0F6FF5FC0F7FF0800F5500009BF
:10349000D8A44DEF1AF04FEF1AF02EEF1AF0DBC060
:1034A00098F0DCC099F01200BF0E096EFF0E0A6E94
:1034B00007C00BF008C00CF009500B260A500C2274
:1034C0000C500AE11A0E0B5CD8A069EF1AF06CEFF1
:1034D0001AF0010E6DEF1AF0000E0D6E0E6A0D500F
:1034E0000E10D8B476EF1AF078EF1AF07FEF1AF0DA
:1034F000200E0710076E0850086E83EF1AF007C001
:1035000007F008C008F0120003C007F004C008F07C
:1035100001C009F002C00AF00750056E0850066E9F
:10352000074A082A05C0F6FF06C0F7FFF86A09C077
:10353000D9FF0AC0DAFF094A0A2A070EF76403D046
:103540000800F55005D0F6CFE1FFF7CFE2FFE750D6
:10355000DF6EDF50D8A4AFEF1AF0B1EF1AF08CEFA6
:103560001AF01200A20E0001A86F000EA96F9EC0F3
:10357000AAF09FC0ABF0000EAD6F000EAC6F000E56
:10358000AF6F000EAE6FAA0E986F000E996FA0C0BD
:103590009AF0A1C09BF0A80E9C6F000E9D6F23ECCB
:1035A0001AF00001AC519E25D96EAD519F21DA6E03
:1035B000000EDF6E1200010E076E200E01180210C1
:1035C000D8B4E5EF1AF0E7EF1AF000EF1BF0F70EB2
:1035D000036EFF0E046E01C005F002C006F003503A
:1035E000052604500622065009E1050E055CD8A008
:1035F000FCEF1AF0FEEF1AF000EF1BF0000E076E62
:1036000007C001F0026A1200000E0B6E76EC1CF08F
:10361000470E70EC1CF0010EF5EC1BF00B6E000E6B
:10362000F5EC1BF00A6E7AEC1CF00A500BC008F0A7
:10363000096A08C009F0086A0826000E092208C0B5
:1036400004F009C005F0000E05BEFF0E066E076E01
:103650001200000E1E1A000E1F1A000E201A800EF5
:10366000211A1AC001F01BC002F01CC003F01DC0DB
:1036700004F01EC005F01FC006F020C007F021C0F6
:1036800008F0EFEC09F001C01AF002C01BF003C013
:103690001CF004C01DF01200000E106E000E0F6E24
:1036A0005DEF1BF00EC001F0026A0CC003F00DC00C
:1036B00004F081EC17F00F4A102A0F500A24D96E3B
:1036C00010500B20DA6EDF500E6E0E50D8A46BEF48
:1036D0001BF06DEF1BF052EF1BF01200BF0E036EDC
:1036E000FF0E046E01C005F002C006F0035005266F
:1036F0000450062206500AE11A0E055CD8A083EF9A
:103700001BF086EF1BF0010E87EF1BF0000E016E21
:10371000026A12000150021003100410D8B493EF93
:103720001BF095EF1BF09DEF1BF0000E011A000E31
:10373000021A000E031A800E041A01C001F002C022
:1037400002F003C003F004C004F01200D00E036EB8
:10375000FF0E046E01C005F002C006F003500526FE
:103760000450062206500AE10A0E055CD8A0BBEF01
:103770001BF0BEEF1BF0010EBFEF1BF0000E016E41
:10378000026A120001C003F002C004F0CAEF1BF08D
:10379000014A022A01C0D9FF02C0DAFFDF50D8A4D3
:1037A000D4EF1BF0D6EF1BF0C8EF1BF00350015C09
:1037B000016E04500258026E1200E8EF1BF002C0C6
:1037C000D9FF03C0DAFFDF505AEC1CF0024A032A8B
:1037D00002C0D9FF03C0DAFFDF50D8A4F2EF1BF01C
:1037E000F4EF1BF0DFEF1BF01200026E1FEC1CF079
:1037F000C5861FEC1CF0C9CF03F01FEC1CF0025073
:10380000D8B405EF1CF008EF1CF0C58A09EF1CF0D6
:10381000C59AC5880350120001500302F3CF05F08A
:10382000F4CF06F001500402F350062602500302C2
:10383000F350062605C001F006C002F01200C5CF05
:1038400001F01F0E0116D8A428EF1CF02AEF1CF07F
:103850001FEF1CF0C7B42FEF1CF031EF1CF01FEF6F
:103860001CF0120001EE00F0500EEE6AE806FDE1D9
:1038700000EED3F0100EEE6AE806FDE1000EF86EE1
:103880000001ACEF19F0036E76EC1CF0460E70EC04
:103890001CF0035070EC1CF07AEC1CF012009380CA
:1038A0009382800EC76E280EC66E000EC56E090E7E
:1038B000C86E1200016E01C0ADFFACA262EF1CF039
:1038C00064EF1CF05DEF1CF01200820E046EDE0E41
:1038D000E82EFED7042EFCD7000E43EC1CF012009D
:1038E000026E1FEC1CF002C0C9FF12001FEC1CF09E
:0E38F000C58012001FEC1CF0C58412001200EF
:020000040020DA
:08000000FFFFFFFFFFFFFFFF00
:020000040030CA
:0E0000000000191EFF8180FF0FC00FE00F40AF
:00000001FF
