:020000040000FA
:0400000007EF00F016
:100008005F82E6ED19F046EF1AF0000E156E000E4D
:100018001E6E000E1F6E000E206E000E216E9FEFEA
:1000280002F073EC1AF0226E2F0E22641EEF00F01D
:1000380020EF00F031EF00F03A0E226026EF00F0DA
:1000480028EF00F031EF00F0300E225E22501E6ED5
:100058001F6A206A216AC1EF02F0400E29EC1DF0E8
:10006800010E156EC1EF02F0000E176E000E166E2F
:1000780073EC1AF0226E2F0E226445EF00F047EF62
:1000880000F092EF00F03A0E22604DEF00F04FEFD3
:1000980000F092EF00F0300E225E7CEF00F022506C
:1000A8001E6E1F6A206A216A1EC001F01FC002F07E
:1000B80020C003F021C004F00A0E056E000E066E83
:1000C800000E076E000E086E80EC19F001C01EF0DD
:1000D80002C01FF003C020F004C021F099EF00F027
:1000E80022501E26000E1F222022212299EF00F006
:1000F80016C011F017C012F01250000AD8B487EFDA
:1001080000F099EF00F01150000AD8B453EF00F056
:10011800010AD8B474EF00F099EF00F0010E156EE3
:10012800400E29EC1DF0C1EF02F0164A172A17BE3F
:10013800A7EF00F0175009E1020E165CD8A0A7EF50
:1001480000F0A9EF00F03CEF00F0C1EF02F0000E64
:10015800196E000E186E73EC1AF0226E2F0E2264C0
:10016800B8EF00F0BAEF00F01EEF01F03A0E22608F
:10017800C0EF00F0C2EF00F01EEF01F0300E225E7B
:1001880004EF01F022501E6E1F6A206A216A1EC009
:1001980001F01FC002F020C003F021C004F0640E7B
:1001A800056E000E066E000E076E000E086E80ECDF
:1001B80019F001C01EF002C01FF003C020F004C0F7
:1001C80021F025EF01F022500A0DF3CF11F0F4CF02
:1001D80012F0000E12BEFF0E136E146E11501E2682
:1001E80012501F22135020221450212225EF01F013
:1001F80022501E26000E1F222022212225EF01F068
:1002080018C011F019C012F01250000AD8B40FEF3C
:1002180001F025EF01F01150000AD8B4C6EF00F044
:10022800010AD8B4E7EF00F0030AD8B4FCEF00F0F5
:1002380025EF01F0010E156E400E29EC1DF0C1EFFF
:1002480002F0184A192A19BE33EF01F0195009E1D2
:10025800030E185CD8A033EF01F035EF01F0AFEFD3
:1002680000F0C1EF02F0000E1B6E000E1A6E73EC68
:100278001AF0226E2F0E226444EF01F046EF01F0CF
:10028800C3EF01F03A0E22604CEF01F04EEF01F09F
:10029800C3EF01F0300E225EA5EF01F022501E6E72
:1002A8001F6A206A216A1EC001F01FC002F020C028
:1002B80003F021C004F0E80E056E030E066E000E72
:1002C800076E000E086E80EC19F001C01EF002C027
:1002D8001FF003C020F004C021F0CAEF01F0225043
:1002E800640DF3CF11F0F4CF12F0000E12BEFF0E22
:1002F800136E146E11501E2612501F221350202206
:1003080014502122CAEF01F022500A0DF3CF11F048
:10031800F4CF12F0000E12BEFF0E136E146E1150C1
:100328001E2612501F221350202214502122CAEFD9
:1003380001F022501E26000E1F2220222122CAEF81
:1003480001F01AC011F01BC012F01250000AD8B404
:10035800B0EF01F0CAEF01F01150000AD8B452EF23
:1003680001F0010AD8B473EF01F0030AD8B488EF9A
:1003780001F0010AD8B49DEF01F0CAEF01F0010EB7
:10038800156E400E29EC1DF0C1EF02F01A4A1B2A27
:100398001BBED8EF01F01B5009E1040E1A5CD8A06F
:1003A800D8EF01F0DAEF01F03BEF01F0C1EF02F016
:1003B800000E1D6E000E1C6E73EC1AF0226E2F0ECE
:1003C8002264E9EF01F0EBEF01F086EF02F03A0E5C
:1003D8002260F1EF01F0F3EF01F086EF02F0300E4A
:1003E800225E64EF02F022501E6E1F6A206A216AA4
:1003F8001EC001F01FC002F020C003F021C004F0AD
:10040800100E056E270E066E000E076E000E086EA3
:1004180080EC19F001C01EF002C01FF003C020F0EC
:1004280004C021F08DEF02F022C001F0026A030E31
:10043800046EE80E036ECBEC1CF001C011F002C094
:1004480012F0000E12BEFF0E136E146E11501E260F
:1004580012501F2213502022145021228DEF02F037
:100468002250640DF3CF11F0F4CF12F0000E12BE3B
:10047800FF0E136E146E11501E2612501F221350B9
:100488002022145021228DEF02F022500A0DF3CFC2
:1004980011F0F4CF12F0000E12BEFF0E136E146EA0
:1004A80011501E2612501F221350202214502122B0
:1004B80022501E26000E1F22202221228DEF02F03C
:1004C8001CC011F01DC012F01250000AD8B46FEF12
:1004D80002F08DEF02F01150000AD8B4F7EF01F0E6
:1004E800010AD8B418EF02F0030AD8B434EF02F0C6
:1004F800010AD8B449EF02F0070AD8B45CEF02F059
:100508008DEF02F0010E156E400E29EC1DF0C1EFC3
:1005180002F01C4A1D2A1DBE9BEF02F01D5009E186
:10052800050E1C5CD8A09BEF02F09DEF02F0E0EFF7
:1005380001F0C1EF02F00DC011F00EC012F0125020
:10054800000AD8B4AAEF02F0C1EF02F01150010A74
:10055800D8B415EF00F0030AD8B438EF00F0010A58
:10056800D8B4ABEF00F0070AD8B437EF01F0010AAE
:10057800D8B4DCEF01F0C1EF02F00001D451D8A4E7
:10058800C8EF02F0CAEF02F0D2EF02F01550D8B46B
:10059800D0EF02F0D2EF02F0DCEF02F0400E0D6E69
:1005A800000E0E6E000E0F6E000E106EE4EF02F0DD
:1005B8001EC00DF01FC00EF020C00FF021C010F0BB
:1005C800120042C0D9FF43C0DAFFDECFF6FFDDCF0D
:1005D800F7FF0800F550250AD8A4F5EF02F0F7EF69
:1005E80002F051EF05F042C0D9FF43C0DAFFDE2A1E
:1005F800000EDD22000E0001BD6F000EBC6FBCC0F6
:10060800C0F0BDC0C1F0BE69BF69000E556E000ED6
:10061800546E5AEF03F00001C08142C0D9FF43C0B5
:10062800DAFFDE2A000EDD225AEF03F00001C08354
:1006380011EF03F00001C08511EF03F00001C0873E
:1006480011EF03F00001C08911EF03F0000E556EA1
:10065800010E546E5AEF03F042C0D9FF43C0DAFFCF
:10066800DECFF6FFDDCFF7FF0800F550466E476A8C
:100678004750000AD8B443EF03F02AEF03F046507E
:10068800200AD8B422EF03F0030AD8B426EF03F007
:10069800080AD8B41EEF03F0060AD8B40FEF03F027
:1006A8001D0AD8B41AEF03F02AEF03F0545055107E
:1006B800D8B461EF03F063EF03F030EF03F000010B
:1006C800C0A169EF03F06BEF03F06CEF03F0C09388
:1006D80042C0D9FF43C0DAFFDECFF6FFDDCFF7FF18
:1006E8000800F5502A0AD8A47CEF03F07EEF03F047
:1006F800A7EF03F042C0D9FF43C0DAFFDE2A000E9D
:10070800DD2244C0D9FF45C0DAFFDFCF46F0020E34
:10071800DE26DFCF47F0000EDD2246C0D9FF47C0F6
:10072800DAFFDECFBCF0DDCFBDF0BDBFA0EF03F038
:100738009EEF03F0EAEF03F0C081BC6DBD1FD8B097
:10074800BD2BEAEF03F042C0D9FF43C0DAFFDECF8A
:1007580008F0DDCF09F003EC0EF008C0BCF009C0CA
:10076800BDF0BEEF03F042C0D9FF43C0DAFFDE2A76
:10077800000EDD22D00E466EFF0E476E42C0D9FF36
:1007880043C0DAFFDECFF6FFDDCFF7FF0800F550F4
:10079800486E496A465048264750492249500AE15E
:1007A8000A0E485CD8A0DBEF03F0DEEF03F0010E81
:1007B800DFEF03F0000E566E576A56505710D8A454
:1007C800E8EF03F0EAEF03F0B7EF03F042C0D9FF18
:1007D80043C0DAFFDECFF6FFDDCFF7FF0800F550A4
:1007E8002E0AD8A4FAEF03F0FCEF03F07AEF04F036
:1007F800000E0001BF6F000EBE6F42C0D9FF43C09C
:10080800DAFFDE2A000EDD2242C0D9FF43C0DAFF3C
:10081800DECFF6FFDDCFF7FF0800F5502A0AD8A48F
:1008280018EF04F01AEF04F037EF04F042C0D9FFD4
:1008380043C0DAFFDE2A000EDD2244C0D9FF45C0DE
:10084800DAFFDFCF46F0020EDE26DFCF47F0000EDC
:10085800DD2246C0D9FF47C0DAFFDECFBEF0DDCFCC
:10086800BFF07AEF04F042C0D9FF43C0DAFFDECF11
:1008780008F0DDCF09F003EC0EF008C0BEF009C0A7
:10088800BFF04EEF04F042C0D9FF43C0DAFFDE2AC2
:10089800000EDD22D00E466EFF0E476E42C0D9FF15
:1008A80043C0DAFFDECFF6FFDDCFF7FF0800F550D3
:1008B800486E496A465048264750492249500AE13D
:1008C8000A0E485CD8A06BEF04F06EEF04F0010E3E
:1008D8006FEF04F0000E586E596A58505910D8A49A
:1008E80078EF04F07AEF04F047EF04F042C0D9FF44
:1008F80043C0DAFFDECFF6FFDDCFF7FF0800F55083
:10090800640AD8B48AEF04F08CEF04F09EEF04F088
:1009180042C0D9FF43C0DAFFDECFF6FFDDCFF7FFD5
:100928000800F550690AD8A49CEF04F09EEF04F083
:10093800DEEF04F042C0D9FF43C0DAFFDE2A000E22
:10094800DD2244C0D9FF45C0DAFFDFCF46F0020EF2
:10095800DE26DFCF47F0000EDD2246C0D9FF47C0B4
:10096800DAFFDECF4AF0DDCF4BF0000E4BBEFF0EB4
:100978004C6E4D6E4E6E4F6E506E516E40C01CF0F8
:1009880041C01DF04AC01EF04BC01FF04CC020F003
:100998004DC021F04EC022F04FC023F050C024F0CB
:1009A80051C025F0DDEC0AF01CC040F01DC041F03C
:1009B8006CEF05F042C0D9FF43C0DAFFDECFF6FF87
:1009C800DDCFF7FF0800F550730AD8A4EEEF04F066
:1009D800F0EF04F01BEF05F042C0D9FF43C0DAFF87
:1009E800DE2A000EDD2244C0D9FF45C0DAFFDFCF82
:1009F80046F0020EDE26DFCF47F0000EDD2246C0AD
:100A0800D9FF47C0DAFFDECF52F0DDCF53F040C048
:100A18000AF041C00BF052C00CF053C00DF08FEC3F
:100A28000FF00AC040F00BC041F06CEF05F042C077
:100A3800D9FF43C0DAFFDECFF6FFDDCFF7FF0800AE
:100A4800F550250AD8A42BEF05F02DEF05F044EF5B
:100A580005F042C0D9FF43C0DAFFDE2A000EDD22CE
:100A6800000E026E250E016E40C003F041C004F076
:100A7800CEEC15F0000E416E010E406E6CEF05F0E5
:100A880042C0D9FF43C0DAFFDE2A000EDD22000E85
:100A9800416E000E406E6CEF05F042C0D9FF43C0B6
:100AA800DAFFDECFF6FFDDCFF7FF0800F550016E65
:100AB800026A40C003F041C004F0CEEC15F042C019
:100AC800D9FF43C0DAFFDE2A000EDD223EEF05F033
:100AD80012002B50800B346E2B502B243A6E2AAE0A
:100AE80078EF05F07AEF05F07BEF05F03A803A50A1
:100AF800D8B481EF05F083EF05F096EF05F03A28BA
:100B0800D8A489EF05F08BEF05F093EF05F0000E00
:100B1800286E000E296E000E2A6E000E2B6E2A8E8D
:100B28009EEF05F0000E286E000E296E000E2A6E4C
:100B3800000E2B6E2F50800B341A2F502F24396E35
:100B48002EAEA9EF05F0ABEF05F0ACEF05F039805C
:100B58003950D8B4B2EF05F0B4EF05F0C7EF05F09F
:100B68003928D8A4BAEF05F0BCEF05F0C4EF05F0BA
:100B7800000E2C6E000E2D6E000E2E6E000E2F6EC7
:100B88002E8ECFEF05F0000E2C6E000E2D6E000E8F
:100B98002E6E000E2F6E3950D8B4D5EF05F0D7EF72
:100BA80005F0DFEF05F03A50D8A4DDEF05F0DFEFF0
:100BB80005F0E9EF05F0000E286E000E296E000E14
:100BC8002A6E000E2B6E81EF07F02E502802F3CF0D
:100BD8003FF0F4CF40F03F50356E366A376A386AD6
:100BE80040503B6E3C6A3D6A3E6A2D502902F3CF65
:100BF8003FF0F4CF40F03F503526000E3622372222
:100C0800382240503B26000E3C223D223E222C50EA
:100C18002A02F3CF3FF0F4CF40F03F503526000EC4
:100C280036223722382240503B26000E3C223D22F5
:100C38003E2237C038F036C037F035C036F0356A56
:100C48002C502902F3CF3FF0F4CF40F03F50352627
:100C580040503622000E3722000E38222D5028022E
:100C6800F3CF3FF0F4CF40F03F50352640503622C6
:100C7800000E3722000E382237C038F036C037F061
:100C880035C036F0356A2C502802F3CF3FF0F4CF48
:100C980040F03F50352640503622000E3722000ED5
:100CA80038222E502902F3CF3FF0F4CF40F03F50C6
:100CB8003B2640503C22000E3D22000E3E222D5085
:100CC8002A02F3CF3FF0F4CF40F03F503B2640508C
:100CD8003C22000E3D22000E3E222E502A02F3CF67
:100CE8003FF0F4CF40F03F50306E4050316E326AE2
:100CF800336A32C033F031C032F030C031F0306A7C
:100D080030503B2631503C2232503D2233503E2257
:100D180035C030F036C031F037C032F038C033F06B
:100D2800190E9CEF06F0D89033323232313230321D
:100D3800E82E97EF06F030503B2631503C223250D7
:100D48003D2233503E2237C038F036C037F035C028
:100D580036F0356A39503AC030F0316A3026000E24
:100D68003122820E30243F6EFF0E3120406ED2EFCA
:100D780006F0D8903B363C363D363E3638AEC7EFA7
:100D880006F0C9EF06F0CAEF06F03B80D89035367A
:100D98003636373638363F06D8A040063DAED7EF50
:100DA80006F0D9EF06F0BDEF06F0000E396E38AE4A
:100DB800E0EF06F0E2EF06F006EF07F0FF0E35145D
:100DC800306EFF0E3614316EFF0E3714326E7F0E02
:100DD8003814336E3050311032103310D8B4F7EF66
:100DE80006F0F9EF06F0FDEF06F0010E396E06EF9A
:100DF80007F03BA002EF07F004EF07F006EF07F05B
:100E0800F9EF06F03950D8B40CEF07F00EEF07F001
:100E180032EF07F0010E3B26000E3C223D223E2217
:100E28003EA019EF07F01BEF07F032EF07F03BC0C9
:100E380030F03CC031F03DC032F03EC033F03334C6
:100E4800333232323132303230C03BF031C03CF0D4
:100E580032C03DF033C03EF03F4A402A40BE3DEF2D
:100E680007F0405008E13F28D8A03DEF07F03FEFDA
:100E780007F049EF07F0000E3B6E000E3C6E800E47
:100E88003D6E7F0E3E6E77EF07F040BE56EF07F0DF
:100E9800405006E13F04D8B054EF07F056EF07F092
:100EA80062EF07F0000E3B6E000E3C6E000E3D6ECA
:100EB800000E3E6E000E346E77EF07F03FC03AF03A
:100EC800FF0E3B16FF0E3C167F0E3D16000E3E161B
:100ED8003AA071EF07F073EF07F074EF07F03D8E5B
:100EE800D8903A303E6E34503E123BC028F03CC099
:100EF80029F03DC02AF03EC02BF012001250800BA2
:100F08001F6E12501224266E11AE8DEF07F08FEF70
:100F180007F090EF07F026802650D8B496EF07F038
:100F280098EF07F0ADEF07F02628D8A49EEF07F05A
:100F3800A0EF07F0A8EF07F0000E0F6E000E106E7E
:100F4800000E116E000E126E118E000E126EB5EFAD
:100F580007F0000E0F6E000E106E000E116E000EE0
:100F6800126E1650800B1F1A16501624276E15AED7
:100F7800C0EF07F0C2EF07F0C3EF07F02780275054
:100F8800D8B4C9EF07F0CBEF07F0E0EF07F0272858
:100F9800D8A4D1EF07F0D3EF07F0DBEF07F0000E8E
:100FA800136E000E146E000E156E000E166E158E62
:100FB800000E166EE8EF07F0000E136E000E146EAA
:100FC800000E156E000E166E135014101510161024
:100FD800D8A4F1EF07F0F3EF07F00BEF08F0000EDD
:100FE8000F6E000E106E000E116E000E126E800E47
:100FF80011127F0E12121F5012120FC00FF010C0E4
:1010080010F011C011F012C012F04EEF09F0265086
:10101800D8A411EF08F013EF08F01DEF08F0000E48
:101028000F6E000E106E000E116E000E126E4EEF57
:1010380009F0275026C017F0186A175E000E185AD4
:101048007F0E1724206E000E1820216E0FC01BF093
:1010580010C01CF011C01DF012C01EF0000E0F6E63
:10106800000E106E000E116E000E126E000E226E33
:10107800000E236E000E246E000E256E000E276EE5
:101088007EEF08F02750D8B44CEF08F04EEF08F088
:1010980065EF08F0D8901B361C361D361E36D890E2
:1010A8000F3610361136123625AE5DEF08F05FEFB9
:1010B80008F060EF08F00F80D890223623362436E7
:1010C800253613501B5C14501C5815501D581650CB
:1010D8001E58D8A072EF08F074EF08F07DEF08F002
:1010E800258C13501B5E14501C5A15501D5A16504F
:1010F8001E5A272A190E276484EF08F086EF08F095
:1011080046EF08F01B501C101D101E10D8B48FEFAE
:1011180008F091EF08F0A9EF08F02280A9EF08F095
:10112800D8900F3610361136123625AE9EEF08F0DD
:10113800A0EF08F0A1EF08F00F80D89022362336F0
:10114800243625362006D8A0210611AEAEEF08F0C9
:10115800B0EF08F094EF08F0000E276E25AEB7EF59
:1011680008F0B9EF08F0DDEF08F0FF0E2214176E53
:10117800FF0E2314186EFF0E2414196E7F0E25140B
:101188001A6E1750181019101A10D8B4CEEF08F0AC
:10119800D0EF08F0D4EF08F0010E276EDDEF08F06D
:1011A8000FA0D9EF08F0DBEF08F0DDEF08F0D0EF83
:1011B80008F02750D8B4E3EF08F0E5EF08F009EF9E
:1011C80009F0010E0F26000E10221122122212A081
:1011D800F0EF08F0F2EF08F009EF09F00FC017F090
:1011E80010C018F011C019F012C01AF01A341A32CF
:1011F80019321832173217C00FF018C010F019C082
:1012080011F01AC012F0204A212A21BE14EF09F069
:10121800215008E12028D8A014EF09F016EF09F0B2
:1012280021EF09F0000E216E2068000E0F6E000EEF
:10123800106E000E116E000E126E21BE2EEF09F018
:10124800215006E12004D8B02CEF09F02EEF09F068
:101258003CEF09F0000E216E000E206E000E0F6E9E
:10126800000E106E000E116E000E126E000E1F6E34
:1012780020C026F026A043EF09F045EF09F048EF1B
:1012880009F0118E49EF09F0119ED8902630126EA0
:10129800FFEF07F01200320E0001666F010E676F54
:1012A8009C0E686F7F0E696FDFC06AF0E0C06BF05C
:1012B800E1C06CF0E2C06DF09DEC1AF0320E026EE7
:1012C800010E036E17EC1AF0E8EF09F0000E666FD6
:1012D800010E676F870E686F7D0E696FD2C06AF066
:1012E8006B6BD1C06CF06D6B9DEC1AF012EF0AF0CD
:1012F800000E666F010E676F860E686F7E0E696F4F
:10130800D2C06AF06B6BD1C06CF06D6B9DEC1AF0BB
:1013180012EF0AF0000E666F010E676F3E0E686FDF
:101328007E0E696FD2C06AF06B6BD1C06CF06D6BCA
:101338009DEC1AF012EF0AF0000E666F010E676F4F
:101348003B0E686F7D0E696FD2C06AF06B6BD1C0BF
:101358006CF06D6B9DEC1AF012EF0AF0000E666FE0
:10136800010E676F620E686F7E0E696FD2C06AF0F9
:101378006B6BD1C06CF06D6B9DEC1AF012EF0AF03C
:10138800000E666F010E676FAC0E686F7D0E696F99
:10139800D2C06AF06B6BD1C06CF06D6B9DEC1AF02B
:1013A80012EF0AF0000E666F010E676F1A0E686F73
:1013B8007E0E696FD2C06AF06B6BD1C06CF06D6B3A
:1013C8009DEC1AF012EF0AF00001CF515C6E5D6AD5
:1013D8005D50000AD8B4F3EF09F012EF0AF05C5040
:1013E800010AD8B46AEF09F0030AD8B47CEF09F00F
:1013F800010AD8B48EEF09F0070AD8B4A0EF09F0B3
:10140800010AD8B4B2EF09F0030AD8B4C4EF09F05E
:10141800010AD8B4D6EF09F012EF0AF0000E026EF6
:10142800010E036E17EC1AF0DE0E026E7F0E036ECD
:1014380017EC1AF0EB0E026E7E0E036E17EC1AF024
:10144800C00E026E7C0E036E17EC1AF0EA0E026EE6
:101458007C0E036E17EC1AF0D10E026E7D0E036E31
:1014680017EC1AF0000E0001A36F000EA26FA2C0C5
:1014780001F0A3C002F0000E046E0C0E036ECBEC5C
:101488001CF08D0E0124D96E010E0220DA6EDF5099
:10149800D8B451EF0AF053EF0AF0C6EF0AF0A2C031
:1014A80001F0A3C002F0000E046E0C0E036ECBEC2C
:1014B8001CF0840E0124D96E010E0220DA6EDF5072
:1014C8005C6E5C5000019A6F9B6BA2C001F0A3C0D8
:1014D80002F0000E046E0C0E036ECBEC1CF08D0EA9
:1014E8000124D96E010E0220DA6EDF505C6E5C506A
:1014F80000019C6F9D6BA2C001F0A3C002F0000E1A
:10150800046E0C0E036ECBEC1CF08F0E0124D96E0A
:10151800010E0220DA6EDF505C6E5C5000019E6F97
:101528009F6BA2C001F0A3C002F0000E046E0C0E67
:10153800036ECBEC1CF0850E01240001A06F010E98
:101548000220A16F7C0E666F000E676F580E686FE1
:101558007F0E696F9AC06AF09BC06BF09CC06CF0FC
:101568009DC06DF09EC06EF09FC06FF0A0C070F07F
:10157800A1C071F09DEC1AF07C0E026E000E036E95
:1015880017EC1AF00001A24BA32BA3BFD5EF0AF06A
:10159800A35109E1180EA25DD8A0D5EF0AF0D7EF44
:1015A8000AF03BEF0AF0A8EC1BF0260E29EC1DF020
:1015B80012001EC036F01FC037F020C038F021C01E
:1015C80039F022C03AF023C03BF024C03CF025C0DB
:1015D8003DF03DBEF2EF0AF0F5EF0AF0010EF6EF2E
:1015E8000AF0000E346E356A34503510D8B4FFEF67
:1015F8000AF001EF0BF011EF0BF03D1E3C1E3B1EF5
:101608003A1E391E381E371E366C000E3722382215
:1016180039223A223B223C223D220001BFBF17EF6C
:101628000BF019EF0BF01AEF0BF0C093BFBF27EFC9
:101638000BF0BF5106E1BE05D8B025EF0BF027EF40
:101648000BF02DEF0BF0000E316E010E306E31EF06
:101658000BF0BEC030F0BFC031F0BCC032F0BDC02E
:1016680033F034503510D8A43CEF0BF03EEF0BF0BC
:1016780045EF0BF0C0A543EF0BF045EF0BF048EF3B
:101688000BF03206D8A03306000E3F6E1F0E3E6EDA
:10169800000E0101836FCDEF0BF03E06D8A03F0688
:1016A800640E3E24D96E010E3F20DA6E36C001F07A
:1016B80037C002F038C003F039C004F03AC005F072
:1016C8003BC006F03CC007F03DC008F00A0E096EAA
:1016D800000E0A6E000E0B6E000E0C6E000E0D6EE4
:1016E800000E0E6E000E0F6E000E106EC6EC11F09E
:1016F80001C026F002C027F003C028F004C029F07A
:1017080005C02AF006C02BF007C02CF008C02DF049
:1017180026C013F028C014F088EC1BF01350300FCB
:10172800DF6E3006D8A031063206D8A0330636C0A0
:1017380001F037C002F038C003F039C004F03AC0F5
:1017480005F03BC006F03CC007F03DC008F00A0EAB
:10175800096E000E0A6E000E0B6E000E0C6E000E67
:101768000D6E000E0E6E000E0F6E000E106ECBEC9E
:101778000EF001C036F002C037F003C038F004C0E4
:1017880039F005C03AF006C03BF007C03CF008C08D
:101798003DF03FBED8EF0BF03F5008E13E04D8A023
:1017A800D8EF0BF0DAEF0BF00BEF0CF036503710E8
:1017B800381039103A103B103C103D10D8A4E7EF10
:1017C8000BF0E9EF0BF051EF0BF031BEF6EF0BF039
:1017D800315006E13004D8B0F4EF0BF0F6EF0BF01F
:1017E80051EF0BF033BE01EF0CF0335008E1320437
:1017F800D8A001EF0CF003EF0CF00BEF0CF0000198
:10180800C0B309EF0CF00BEF0CF051EF0BF03450B4
:101818003510D8A412EF0CF014EF0CF01CEF0CF0FC
:101828000001C0A51AEF0CF01CEF0CF03AEF0CF019
:101838003E06D8A03F0634503510D8A426EF0CF049
:1018480028EF0CF02EEF0CF0000E2F6E2B0E2E6EE4
:1018580032EF0CF0000E2F6E2D0E2E6E640E3E240D
:10186800D96E010E3F20DA6E2EC0DFFF1CC011F0CA
:101878001DC012F0640E3E24136E010E3F20146E3C
:1018880032C015F033C016F033EC16F011C01CF05E
:1018980012C01DF012004BC01BF04CC01CF01D6A9A
:1018A8001E6A000E1F6E000E206E000E216E000EC6
:1018B800226E640E236E000E246E000E256E000E3E
:1018C800266E000E276E000E286E000E296E000E82
:1018D8002A6EFF0E2B6E030E2C6E000E2D6E000E60
:1018E8002E6ED2EC18F01BC053F01CC054F01DC073
:1018F80055F01EC056F056BE8EEF0CF056505510DF
:1019080007E1040E545CD8B08CEF0CF08EEF0CF0AD
:1019180028EF0DF0000E2C6E000E2D6EFA0E2E6EB6
:10192800430E2F6E000E136EC00E146E7F0E156ED2
:10193800440E166E53C001F054C002F055C003F0B7
:1019480056C004F0010E29EC0DF001C00FF002C0E2
:1019580010F003C011F004C012F082EC07F00FC0C1
:1019680028F010C029F011C02AF012C02BF06DEC3D
:1019780005F028C041F029C042F02AC043F02BC02E
:1019880044F0D7EC14F041C053F042C054F043C0C7
:1019980055F044C056F013EF0DF0020E4E6E53C0D2
:1019A8004FF054C050F055C051F056C052F04E663A
:1019B800E0EF0CF0E8EF0CF0523452325132503272
:1019C8004F324E2EDBEF0CF04F50BE6ECF0EBD16D1
:1019D8005338F00B300BBD1228EF0DF0020E4E6E8F
:1019E80053C04FF054C050F055C051F056C052F09B
:1019F8004E6601EF0DF009EF0DF0523452325132BC
:101A080050324F324E2EFCEF0CF04F50BB6ECF0EC3
:101A1800BA165338F00B300BBA1228EF0DF04D50B0
:101A28004E6E4F6A4F50000AD8B41DEF0DF028EFE4
:101A38000DF04E50010AD8B4D1EF0CF0030AD8B417
:101A4800F2EF0CF028EF0DF01200096E0950D8B42F
:101A580030EF0DF032EF0DF054EF0DF004BE39EF1A
:101A68000DF037EF0DF054EF0DF001C005F002C096
:101A780006F003C007F004C008F0051E061E071E86
:101A8800081E052A000E06220722082205C00BF0B0
:101A980006C00CF007C00DF008C00EF05CEF0DF0AA
:101AA80001C00BF002C00CF003C00DF004C00EF032
:101AB8000150021003100410D8A465EF0DF067EF71
:101AC8000DF071EF0DF0000E016E000E026E000EAB
:101AD800036E000E046E02EF0EF0960E0A6E7BEF98
:101AE8000DF00A2AD8900E320D320C320B32000E4D
:101AF8000B14056E000E0C14066E000E0D14076E06
:101B0800FE0E0E14086E0550061007100810D8A413
:101B180090EF0DF092EF0DF075EF0DF0A0EF0DF0D6
:101B28000A2A010E0B26000E0C220D220E22D89036
:101B38000E320D320C320B32000E0B14056E000EF5
:101B48000C14066E000E0D14076EFF0E0E14086EB0
:101B58000550061007100810D8A4B5EF0DF0B7EF20
:101B68000DF094EF0DF0BFEF0DF00A06D8900B368C
:101B78000C360D360E360DBEC4EF0DF0C6EF0DF067
:101B8800CEEF0DF0020E0A60CCEF0DF0CEEF0DF0A7
:101B9800B9EF0DF00AB0D3EF0DF0D5EF0DF0D6EF99
:101BA8000DF00D9ED8900A320AC005F0066A076A41
:101BB800086A05C008F0076A066A056A05500B122C
:101BC80006500C1207500D1208500E120950D8B4C6
:101BD800F0EF0DF0F2EF0DF0FAEF0DF004BEF9EFB3
:101BE8000DF0F7EF0DF0FAEF0DF00E8E0BC001F0CF
:101BF8000CC002F00DC003F00EC004F01200000E7D
:101C0800166E000E156E000E0F6E000E0E6E0FEFA4
:101C18000EF0084A092A010E146E08C0F6FF09C022
:101C2800F7FF0800F550200AD8B41DEF0EF01FEF9B
:101C38000EF03CEF0EF0F70E0A6EFF0E0B6E08C0AA
:101C4800F6FF09C0F7FF0800F5500C6E0D6A0A5040
:101C58000C260B500D220D5009E1050E0C5CD8A086
:101C680038EF0EF03AEF0EF03CEF0EF0000E146E67
:101C780014C010F0116A10501110D8A446EF0EF0DD
:101C880048EF0EF00DEF0EF052EF0EF0000E0F6E53
:101C9800010E0E6E084A092A87EF0EF008C0F6FFFB
:101CA80009C0F7FF0800F5500A6E0B6A0B50000ACE
:101CB800D8B461EF0EF087EF0EF00A502B0AD8B4B3
:101CC8004EEF0EF0060AD8B44AEF0EF087EF0EF08A
:101CD80015C001F016C002F0000E046E0A0E036E65
:101CE800CBEC1CF008C0F6FF09C0F7FF0800F55060
:101CF800015E000E025A300E0124156E000E0220FD
:101D0800166E4EEF0EF0D00E0A6EFF0E0B6E08C068
:101D1800F6FF09C0F7FF0800F5500C6E0D6A0A506F
:101D28000C260B500D220D500AE10A0E0C5CD8A0AF
:101D3800A0EF0EF0A3EF0EF0010EA4EF0EF0000ED0
:101D4800126E136A12501310D8A4ADEF0EF0AFEF55
:101D58000EF06CEF0EF00E500F10D8A4B6EF0EF088
:101D6800B8EF0EF0C6EF0EF015C00AF016C00BF073
:101D78000A1E0B1E0A4A0B2A0AC008F00BC009F0FB
:101D8800CAEF0EF015C008F016C009F01200000ED8
:101D9800126E10BED4EF0EF0D2EF0EF0E6EF0EF09A
:101DA800101E0F1E0E1E0D1E0C1E0B1E0A1E096C89
:101DB800000E0A220B220C220D220E220F221022C4
:101DC800010E126E08BEEDEF0EF0EBEF0EF0FFEF16
:101DD8000EF0081E071E061E051E041E031E021E08
:101DE800016C000E02220322042205220622072289
:101DF8000822010E121A20EE13F0070EDE6AE8061A
:101E0800FDE209500A100B100C100D100E100F10E7
:101E18001010D8B412EF0FF014EF0FF066EF0FF0B8
:101E2800010E116E22EF0FF0D89009360A360B36E4
:101E38000C360D360E360F361036112A10AE27EF37
:101E48000FF029EF0FF018EF0FF0D8901336143673
:101E5800153616361736183619361A360950015CF3
:101E68000A5002580B5003580C5004580D5005588E
:101E78000E5006580F50075810500858D8A047EF72
:101E88000FF049EF0FF05AEF0FF00950015E0A50BA
:101E9800025A0B50035A0C50045A0D50055A0E5052
:101EA800065A0F50075A1050085A1380D89010320B
:101EB8000F320E320D320C320B320A320932112E29
:101EC80029EF0FF01250D8B46CEF0FF06EEF0FF04F
:101ED8007EEF0FF01A1E191E181E171E161E151E4D
:101EE800141E136C000E1422152216221722182213
:101EF80019221A2213C001F014C002F015C003F011
:101F080016C004F017C005F018C006F019C007F095
:101F18001AC008F0120020EED8F010EE0FF0060EEE
:101F2800DBCFE3FFE806FCE20CC01AF00DC01BF0A3
:101F38001A501B10D8A4A3EF0FF0A5EF0FF0A9EFCC
:101F48000FF00F0E1A6E000E1B6E1AC001F01BC0A8
:101F580002F03DEC1CF001C01EF002C01FF0BEC034
:101F68001CF0BFC01DF01DBEBCEF0FF0BEEF0FF0A0
:101F7800D3EF0FF01E501C5C1D50800A0E6E1F50D0
:101F8800800A0E58D8A0CBEF0FF0CDEF0FF0CFEFAF
:101F98000FF0D3EF0FF01CC01EF01DC01FF01EC0C5
:101FA8001CF01FC01DF0BCC018F0BDC019F0000126
:101FB800C0B1E1EF0FF0E3EF0FF000EF10F0F1EF39
:101FC8000FF0000E026E200E016E0AC003F00BC067
:101FD80004F0CEEC15F01E4A1F2A18501E5C1F5044
:101FE800800A0E6E1950800A0E58D8A0FEEF0FF026
:101FF80000EF10F0E5EF0FF0000E176E000E166EF2
:1020080019EF10F01AC0D9FF1BC0DAFFDF500E6EAF
:102018000E50016E026A0AC003F00BC004F0CEEC49
:1020280015F01A4A1B2A164A172A1C50165C175014
:10203800800A0E6E1D50800A0E58D8A026EF10F0A8
:1020480028EF10F006EF10F00001C0A12EEF10F0FD
:1020580030EF10F04DEF10F03EEF10F0000E026E72
:10206800200E016E0AC003F00BC004F0CEEC15F090
:102078001E4A1F2A18501E5C1F50800A0E6E1950E7
:10208800800A0E58D8A04BEF10F04DEF10F032EF49
:1020980010F01EC00AF01FC00BF01200000E5E6E9A
:1020A800000E5D6E5DC001F05EC002F0000E046EB1
:1020B8000C0E036ECBEC1CF0840E0124D96E010EBD
:1020C8000220DA6E5DC0DFFF5DC001F05EC002F085
:1020D800000E046E0C0E036ECBEC1CF08D0E01246A
:1020E800D96E010E0220DA6E000EDF6E5DC001F0BF
:1020F8005EC002F0000E046E0C0E036ECBEC1CF0FA
:102108008E0E0124D96E010E0220DA6E000EDF6EEB
:102118005DC001F05EC002F0000E046E0C0E036E8E
:10212800CBEC1CF08F0E0124D96E010E0220DA6E62
:10213800010EDF6E5D4A5E2A5EBEACEF10F05E50A7
:1021480009E1180E5D5CD8A0ACEF10F0AEEF10F00E
:1021580056EF10F0000E5C6E000E5B6E000E5A6EAD
:10216800000E596E5BC001F05CC002F0000E046EF8
:102178000C0E036ECBEC1CF0840E576E010E586EDD
:10218800010E5726000E5822015057260250582299
:1021980059505724D96E5A505820DA6E000EDF6E07
:1021A800594A5A2A5ABEE2EF10F05A5009E1070E6E
:1021B800595CD8A0E2EF10F0E4EF10F0B6EF10F0A1
:1021C8005BC001F05CC002F0000E046E0C0E036EE2
:1021D800CBEC1CF08B0E0124D96E010E0220DA6EB6
:1021E800000EDF6E5B4A5C2A5CBE04EF11F05C50A7
:1021F80009E1180E5B5CD8A004EF11F006EF11F0AE
:10220800B2EF10F0000E4C6E000E4B6E010E4D6ECC
:102218004FEC0CF01200000E0D6E000E0C6E000E4E
:10222800046E000E036EE7EC1BF0096E0C4A0D2AD3
:10223800540E0918D8A423EF11F025EF11F0C2EFBE
:1022480011F0000E0F6E000E0E6E0EC001F00FC0E2
:1022580002F0000E046E0C0E036ECBEC1CF0840E24
:102268000124D96E010E0220DA6E0CC003F00DC0F5
:1022780004F0E7EC1BF0DF6E0C4A0D2A000E0B6E23
:10228800000E0A6E0EC001F00FC002F0000E046EC0
:102298000C0E036ECBEC1CF0840E076E010E086E5C
:1022A800010E0726000E08220150072602500822B8
:1022B8000A500724D96E0B500820DA6E0CC003F0C0
:1022C8000DC004F0E7EC1BF0DF6E0C4A0D2A0A4A39
:1022D8000B2A0BBE79EF11F00B5009E1070E0A5CCF
:1022E800D8A079EF11F07BEF11F046EF11F00EC096
:1022F80001F00FC002F0000E046E0C0E036ECBEC62
:102308001CF08D0E0124D96E010E0220DA6E0CC06D
:1023180003F00DC004F0E7EC1BF0DF6E0C4A0D2A49
:102328000EC001F00FC002F0000E046E0C0E036E1A
:10233800CBEC1CF08F0E0124D96E010E0220DA6E50
:102348000CC003F00DC004F0E7EC1BF0DF6E0C4A84
:102358000D2A0E4A0F2A0FBEBBEF11F00F5009E1EC
:10236800180E0E5CD8A0BBEF11F0BDEF11F029EFED
:1023780011F0450E29EC1DF0C5EF11F0400E29ECC7
:102388001DF01200000E126E08BECFEF11F0CDEF57
:1023980011F0E1EF11F0081E071E061E051E041EAF
:1023A800031E021E016C000E0222032204220522D3
:1023B800062207220822010E126E10BEE8EF11F065
:1023C800E6EF11F0F8EF11F0101E0F1E0E1E0D1E95
:1023D8000C1E0B1E0A1E096C000E0A220B220C2270
:1023E8000D220E220F22102209500A100B100C1079
:1023F8000D100E100F101010D8B405EF12F007EFE3
:1024080012F04FEF12F0010E116E15EF12F0D89086
:1024180009360A360B360C360D360E360F361036A0
:10242800112A10AE1AEF12F01CEF12F00BEF12F097
:102438000950015C0A5002580B5003580C500458BC
:102448000D5005580E5006580F5007581050085890
:10245800D8A031EF12F033EF12F043EF12F0095029
:10246800015E0A50025A0B50035A0C50045A0D5080
:10247800055A0E50065A0F50075A1050085AD8904D
:1024880010320F320E320D320C320B320A32093250
:10249800112E1CEF12F01250D8B455EF12F057EF6E
:1024A80012F067EF12F0081E071E061E051E041E16
:1024B800031E021E016C000E0222032204220522C2
:1024C80006220722082201C001F002C002F003C060
:1024D80003F004C004F005C005F006C006F007C00C
:1024E80007F008C008F01200000E106E000E0F6E04
:1024F800000E086E000E076E540E096E71EC1CF08B
:102508000F4A102A000E126E000E116E0FC007F04F
:1025180010C008F011C001F012C002F0000E046EE5
:102528000C0E036ECBEC1CF0840E0124D96E010E48
:102538000220DA6EDF50096E71EC1CF00F4A102A87
:10254800000E0E6E000E0D6E0FC007F010C008F0E2
:1025580011C001F012C002F0000E046E0C0E036EE2
:10256800CBEC1CF0840E0B6E010E0C6E010E0B26CC
:10257800000E0C2201500B2602500C220D500B2489
:10258800D96E0E500C20DA6EDF50096E71EC1CF01B
:102598000F4A102A0D4A0E2A0EBEDCEF12F00E501A
:1025A80009E1070E0D5CD8A0DCEF12F0DEEF12F0A7
:1025B800A8EF12F00FC007F010C008F011C001F02A
:1025C80012C002F0000E046E0C0E036ECBEC1CF071
:1025D8008D0E0124D96E010E0220DA6EDF50096ECD
:1025E80071EC1CF00F4A102A0FC007F010C008F059
:1025F80011C001F012C002F0000E046E0C0E036E42
:10260800CBEC1CF08F0E0124D96E010E0220DA6E7D
:10261800DF50096E71EC1CF00F4A102A114A122A79
:1026280012BE20EF13F0125009E1180E115CD8A069
:1026380020EF13F022EF13F08AEF12F01200000ED1
:102648000E6E020E0D6E09EC00F00D50286E400E55
:102658002818D8B432EF13F034EF13F0C4EF13F0A6
:10266800000E0E6E010E0D6E09EC00F00D50296E75
:102678002904D8A442EF13F044EF13F0AFEF13F09E
:10268800000E266E000E256E000E0E6E010E0D6EEB
:1026980009EC00F00D50276E400E2718D8B457EFFC
:1026A80013F059EF13F08EEF13F063EF13F0300EC1
:1026B800276E78EF13F0310E276E78EF13F027505E
:1026C800236E246A2450000AD8B46DEF13F078EF13
:1026D80013F02350000AD8B45BEF13F0010AD8B402
:1026E8005FEF13F078EF13F028500C0D840E236E73
:1026F800010E246E010E2326000E2422F3502326F9
:10270800F450242225502324D96E26502420DA6E32
:1027180027C0DFFF254A262A26BE9CEF13F0265045
:1027280009E1070E255CD8A09CEF13F09EEF13F08B
:1027380048EF13F028500C0D8D0EF324D96E010EBE
:10274800F420DA6E29C0DFFF78EC12F0450E29EC90
:102758001DF0C4EF13F02950D8A4B5EF13F0B7EF6C
:1027680013F0C4EF13F028500C0D8D0EF324D96E1E
:10277800010EF420DA6E29C0DFFF450E29EC1DF0AA
:1027880012000001CA51D8B4CCEF13F0CEEF13F009
:102798000AEF14F0C64BC72B060EC619C711D8A4EA
:1027A800D8EF13F0DAEF13F050EF14F0000EC76F04
:1027B800000EC66FC24BC32BC451C25DC551C3596D
:1027C800D8A0E9EF13F0EBEF13F050EF14F0000E80
:1027D8004C6E000E4B6E010E4D6E4FEC0CF0000E61
:1027E8000001C36F000EC26F000ECA6FD2510C0DEC
:1027F8008E0EF324D96E010EF420DA6E010EDF6E10
:10280800D2C0CCF0000ECB6F50EF14F0A0EC1CF04F
:102818004AEC1DF00001CC51D219D8B416EF14F0CF
:1028280018EF14F02CEF14F0CB51D8A41EEF14F0CD
:1028380020EF14F02CEF14F0CC510C0D8E0EF32475
:10284800D96E010EF420DA6E000EDF6E010ECB6F2A
:1028580050EC18F001500210D8B435EF14F037EFEF
:1028680014F050EF14F00001D2510C0D8F0EF32428
:10287800D96E010EF420DA6EDF50576E57503C0DBA
:10288800F3CFC4F0F4CFC5F0000E4C6E640E4B6E5F
:10289800010E4D6E4FEC0CF01200000E166E14BEB9
:1028A8005AEF14F058EF14F064EF14F0141E131ECE
:1028B800121E116C000E122213221422010E166E23
:1028C80010BE6BEF14F069EF14F075EF14F0101EE2
:1028D8000F1E0E1E0D6C000E0E220F221022010E6E
:1028E800161A000E176E000E186E000E196E000EE6
:1028F8001A6E1150121013101410D8B486EF14F079
:1029080088EF14F0BEEF14F0010E156E92EF14F07C
:10291800D8901136123613361436152A14AE97EF9E
:1029280014F099EF14F08CEF14F0D890173618368D
:1029380019361A3611500D5C12500E5813500F5894
:1029480014501058D8A0ABEF14F0ADEF14F0B6EF58
:1029580014F011500D5E12500E5A13500F5A1450A5
:10296800105A1780D8901432133212321132152EA1
:1029780099EF14F01650D8B4C4EF14F0C6EF14F061
:10298800CEEF14F01A1E191E181E176C000E18220E
:1029980019221A2217C00DF018C00EF019C00FF036
:1029A8001AC010F01200433444344A6E4A50D8A476
:1029B800E0EF14F0E2EF14F0ECEF14F0000E416ECB
:1029C800000E426E000E436E000E446E59EF15F075
:1029D80041C045F042C046F043C047F044C048F00B
:1029E800200EFCEF14F0D890483247324632453278
:1029F800E82EF7EF14F04550496E438EFF0E41164E
:102A0800FF0E4216FF0E4316000E4416960E4A5E3F
:102A18004ABE13EF15F011EF15F029EF15F04A50E3
:102A2800800A970FD8B01BEF15F01DEF15F01FEFB8
:102A380015F0E2EF14F0D89044324332423241327A
:102A48004A3E1FEF15F041EF15F01F0E4A642FEFB5
:102A580015F031EF15F039EF15F0E2EF14F0D890DA
:102A680041364236433644364A064A50D8A43FEFE8
:102A780015F041EF15F033EF15F04950D8B447EF92
:102A880015F049EF15F051EF15F0441E431E421E94
:102A9800416C000E42224322442241C041F042C010
:102AA80042F043C043F044C044F01200000E00015D
:102AB800C96F000E0E6E010E0D6E09EC00F00DC010
:102AC80023F00EC024F00FC025F010C026F023C05C
:102AD80001F024C002F025C003F026C004F0E80E7F
:102AE800056E030E066E000E076E000E086E80EC73
:102AF80019F0000E0E6E010E0D6E09EC00F00DC0FF
:102B080023F00EC024F00FC025F010C026F023C01B
:102B180001F024C002F025C003F026C004F0640EC2
:102B2800056E000E066E000E076E000E086E80EC35
:102B380019F001C027F002C028F003C029F004C032
:102B48002AF0000E0E6E020E0D6E09EC00F00D500C
:102B580027260E5028220F50292210502A22400ED4
:102B68002718281029102A10D8B4BDEF15F0BFEF88
:102B780015F0CAEF15F027C0DFF028C0E0F029C033
:102B8800E1F02AC0E2F0450E29EC1DF0010E00012B
:102B9800C96F120003500410D8B4D5EF15F0D7EF61
:102BA80015F0E0EF15F003500410D8A4DEEF15F08F
:102BB800E0EF15F0E5EF15F001506CEC1DF032EF89
:102BC80016F020EE04F00350D9260450DA22DE5025
:102BD800DE10D8B4F2EF15F0F4EF15F00FEF16F0A1
:102BE80020EE04F00350D9260450DA2210EE02F049
:102BF8000350E1260450E222DE50E65CE650800AEB
:102C0800096EDE50800A0958D8B00DEF16F00FEFA4
:102C180016F032EF16F020EE02F00350D9260450D9
:102C2800DA22DECF05F0DDCF06F003C0D9FF04C0FD
:102C3800DAFFDECF07F0DDCF08F005500724D96EA4
:102C480006500820DA6E01C0DFFF20EE02F00350C4
:102C5800D9260450DA22DE2A000EDD2212000001F5
:102C6800C0A139EF16F03BEF16F045EF16F013C090
:102C78000AF014C00BF011C00CF012C00DF066EC95
:102C88001BF016BE4AEF16F04CEF16F052EF16F096
:102C980015C01AF016C01BF056EF16F0000E1B6E8A
:102CA800000E1A6E000E196E000E186E68EF16F000
:102CB800000E026E200E016E11C003F012C004F067
:102CC800CEEC15F0184A192A1A50185C1950800AC7
:102CD800176E1B50800A1758D8A075EF16F077EFBB
:102CE80016F05CEF16F00001C0B17DEF16F07FEF33
:102CF80016F089EF16F013C00AF014C00BF011C0DB
:102D08000CF012C00DF066EC1BF013C001F014C0FB
:102D180002F03DEC1CF01A500124116E1B500220E9
:102D2800126E1200000E066E04BE9FEF16F09DEFA5
:102D380016F0A5EF16F0036C041ED8B0042A010E95
:102D4800066E02BEACEF16F0AAEF16F0B2EF16F060
:102D5800016C021ED8B0022A010E061A000E086E77
:102D6800000E076E03500410D8B4BDEF16F0BFEF85
:102D780016F0E7EF16F0010E056EC7EF16F0D890C3
:102D880003360436052A04AECCEF16F0CEEF16F063
:102D9800C3EF16F0D890073608360350015C04508C
:102DA8000258D8A0DAEF16F0DCEF16F0E1EF16F0D3
:102DB8000350015E0450025A0780D890043203324F
:102DC800052ECEEF16F00650D8B4EDEF16F0EFEF63
:102DD80016F0F3EF16F0076C081ED8B0082A07C0E3
:102DE80001F008C002F01200000E516E000E526E83
:102DF80064EC1DF0470E5AEC1DF0010E89EC1CF036
:102E0800526E000E89EC1CF0516E68EC1DF05150AA
:102E180052C04FF0506A4FC050F04F6A4F26000E14
:102E280050224FC053F050C054F0000E54BEFF0E55
:102E3800556E566E9A0E136E990E146E990E156E87
:102E48003F0E166E53C001F054C002F055C003F097
:102E580056C004F0000E29EC0DF001C00FF002C0BE
:102E680010F003C011F004C012F082EC07F00FC09C
:102E780041F010C042F011C043F012C044F0D7EC4A
:102E880014F041C053F042C054F043C055F044C060
:102E980056F053C04BF054C04CF055C04DF056C0DE
:102EA8004EF012005E6E9D9A7CEF17F0C8EC1BF096
:102EB800AEEF17F023EC13F0AEEF17F092EC18F02A
:102EC800AEEF17F04FEC09F0AEEF17F0EFEC1AF099
:102ED800AEEF17F05AEC15F005EC1CF0AEEF17F05A
:102EE8000FEC11F0AEEF17F058EC1CF0AEEF17F046
:102EF8005E500001A46FA56BA551000AD8B487EFF6
:102F080017F0AEEF17F0A451010AD8B45AEF17F032
:102F1800030AD8B45EEF17F0010AD8B462EF17F0CD
:102F2800070AD8B466EF17F0010AD8B46AEF17F0A9
:102F3800030AD8B46EEF17F0010AD8B470EF17F08F
:102F48000F0AD8B474EF17F0010AD8B478EF17F065
:102F5800AEEF17F09D8A1200000E066E02BEB9EFA2
:102F680017F0B7EF17F0BFEF17F0016C021ED8B0DB
:102F7800022A010E066E04BEC6EF17F0C4EF17F062
:102F8800CAEF17F0036C041ED8B0042A03500410CB
:102F9800D8B4D1EF17F0D3EF17F0F7EF17F0010E11
:102FA800056EDBEF17F0D89003360436052A04AE19
:102FB800E0EF17F0E2EF17F0D7EF17F00350015CDE
:102FC80004500258D8A0EBEF17F0EDEF17F0F1EF2F
:102FD80017F00350015E0450025AD89004320332AD
:102FE800052EE2EF17F00650D8B4FDEF17F0FFEF0B
:102FF80017F003EF18F0016C021ED8B0022A01C0C6
:1030080001F002C002F0120034EC1DF03FEC1DF09C
:10301800010E17EC1BF052EC10F0F28EF28CF28AD3
:103028009D8A070ED56EE3C0D6FFE4C0D7FFF284B1
:10303800D58E800E1B6E250E1C6E000E1D6E000EAA
:103048001E6E48EC19F0870E026E7F0E036E17ECA9
:103058001AF00001CE51D8B434EF18F036EF18F05A
:103068003DEF18F0000ECE6F300ED65FD65156ECFD
:1030780017F00001CD51D8B444EF18F046EF18F01E
:103088002DEF18F0000ED46F000ECD6FC5EC13F0C5
:103098002DEF18F007EF00F0000E066E0001D25178
:1030A8000C0D8D0EF324D96E010EF420DA6EDF506C
:1030B800D8B461EF18F063EF18F08EEF18F0D25122
:1030C8000C0D8E0EF324D96E010EF420DA6EDF504B
:1030D800D8A471EF18F073EF18F08EEF18F0D251F2
:1030E8000C0D840E036E010E046EF3500326F4508B
:1030F8000422CF510324D96E000E0420DA6E310E5B
:10310800DE18D8A48AEF18F08CEF18F08EEF18F0BC
:10311800010E066E06C001F0026A1200000E0E6E65
:10312800020E0D6E09EC00F00D50256E400E2518AC
:10313800D8B4A1EF18F0A3EF18F0D1EF18F0000EF3
:103148000E6E020E0D6E09EC00F00D50246E400E4E
:103158002418D8B4B2EF18F0B4EF18F0D1EF18F083
:1031680025500C0D8F0EF324D96E010EF420DA6E63
:1031780024C0DFFF25500C0D8F0EF324D96E010EED
:10318800F420DA6EDF50236E23500001C46FC56B44
:1031980078EC12F0450E29EC1DF012001F501B5C54
:1031A800016E20501C58026E21501D58036E22508B
:1031B8001E58046E27502B5C056E28502C58066E3E
:1031C80029502D58076E2A502E58086E80EC19F099
:1031D80001C00DF002C00EF003C00FF004C010F0E3
:1031E8001F50235C116E20502458126E2150255810
:1031F800136E22502658146E51EC14F027500D24EB
:103208001B6E28500E201C6E29500F201D6E2A5050
:1032180010201E6E1200236E000E246E000E256E06
:10322800000E0E6E020E0D6E09EC00F00D50266EAB
:10323800400E2618D8B423EF19F025EF19F046EF01
:1032480019F026C001F0026A000E046E0A0E036E21
:1032580096EC16F00F0E01160138F00B256E26C0FD
:1032680001F0026A000E046E0A0E036EB0EC17F04D
:1032780001500F0B251225C003F0235001EC1DF05F
:10328800010E246E24501200949C948E100E116E20
:10329800000E126E000E136E000E146E000E0D6EF0
:1032A800090E0E6E3D0E0F6E000E106E51EC14F0EE
:1032B8000DC023F00EC024F00FC025F010C026F07A
:1032C80023C00DF024C00EF025C00FF026C010F06A
:1032D8001BC011F01CC012F01DC013F01EC014F06A
:1032E80051EC14F00D04AF6EAC84AC98AB8EAC9C72
:1032F800AC8AAB9CAB881200000E096E000E0A6EF9
:10330800000E0B6E000E0C6E01A08DEF19F08FEF02
:1033180019F097EF19F00550092606500A220750B0
:103328000B2208500C22D890053606360736083688
:10333800D8900432033202320132015002100310D5
:103348000410D8A4AAEF19F0ACEF19F088EF19F01F
:1033580009C001F00AC002F00BC003F00CC004F071
:10336800120062C05AF063C05BF0000E0001BB6F30
:10337800000EBA6FD3EF19F060C040F061C041F0A1
:103388005A0E426E000E436E64C044F065C045F0AC
:10339800E5EC02F040500001BA274150BB235AC067
:1033A800F6FF5BC0F7FF0800F5500009D8A4DFEF6F
:1033B80019F0E1EF19F0C0EF19F0BAC060F0BBC026
:1033C80061F012000600F2A4ECEF19F0EEEF19F02C
:1033D80009EF1AF00001D451D8B4F5EF19F0F7EF5E
:1033E80019F002EF1AF0D72BD705D8A4FEEF19F081
:1033F80000EF1AF002EF1AF0010ED56FF294E3C055
:10340800D6FFE4C0D7FF010ECD6F9EAA0EEF1AF0CB
:1034180010EF1AF015EF1AF0AECFD6F0010E00013A
:10342800CE6F5F9211002DEF1AF002C0F6FF03C0B5
:10343800F7FFF86A070EF76403D00800F55005D0C7
:10344800F6CFE1FFF7CFE2FFE75029EC1DF0024A83
:10345800032A02C0F6FF03C0F7FFF86A070EF764F5
:1034680003D00800F55005D0F6CFE1FFF7CFE2FF13
:10347800E7500009D8A443EF1AF045EF1AF019EF06
:103488001AF01200A40EF66E3A0EF76E000EF86EE1
:1034980000EED8F010EE0FF00900F5CFEEFFE55082
:1034A800E150FAE101EE84F011EE20F0EE6AE55009
:1034B800E150FCE1E250FAE101EE00F0840EEE6A20
:1034C800E806FDE100EEA6F0320EEE6AE806FDE140
:1034D8005F905F92000EF86E000108EF18F0670E1B
:1034E800D76E690ED66E000E0001D56F010ED46F2F
:1034F800000ED66F000ED76F9EBA85EF1AF087EFD1
:103508001AF08FEF1AF0D551D8B48DEF1AF08FEF6B
:103518001AF080EF1AF0D551D8A495EF1AF097EF6A
:103528001AF09BEF1AF0AECFD6F0000ED46FD6513A
:1035380012006A0E0001746F000E756F66C076F097
:1035480067C077F0000E796F000E786F000E7B6F02
:10355800000E7A6F760E606F000E616F68C062F0C1
:1035680069C063F0740E646F000E656FB5EC19F0F6
:10357800000178516625D96E79516721DA6E000EFF
:10358800DF6E1200010E076E200E01180210D8B46B
:10359800D0EF1AF0D2EF1AF0EBEF1AF0F70E036E35
:1035A800FF0E046E01C005F002C006F003500526A8
:1035B80004500622065009E1050E055CD8A0E7EF85
:1035C8001AF0E9EF1AF0EBEF1AF0000E076E07C0D9
:1035D80001F0026A1200100E3FEC1BF057C0B6F063
:1035E80058C0B7F059C0B8F05AC0B9F0320E00014F
:1035F800666F010E676F700E686F7F0E696FB6C0D9
:103608006AF0B7C06BF0B8C06CF0B9C06DF09DEC53
:103618001AF0320E026E010E036E17EC1AF0260E27
:1036280029EC1DF01200036ECA80CA827C0ECB6E94
:1036380028EF1BF09494BD86BD843DEF1BF0949257
:10364800BA86BA843DEF1BF00350016E026A02503D
:10365800000AD8B432EF1BF03DEF1BF00150010A0D
:10366800D8B41EEF1BF0030AD8B423EF1BF03DEFCC
:103678001BF0CA8412000001606F010E1DEC1DF0E2
:10368800000160511DEC1DF0F8EC16F04BC061F024
:103698004CC062F04DC063F04EC064F0EA0E5B6E41
:1036A800C30EE82EFED75B2EFCD700F0000E1DECF3
:1036B8001DF061C057F062C058F063C059F064C093
:1036C8005AF01200000E106E000E0F6E77EF1BF00E
:1036D8000EC001F0026A0CC003F00DC004F0CEEC7D
:1036E80015F00F4A102A0F500A24D96E10500B20DB
:1036F800DA6EDF500E6E0E50D8A485EF1BF087EF00
:103708001BF06CEF1BF0120014BE95EF1BF0145069
:1037180006E11304D8B093EF1BF095EF1BF0A3EF6D
:103728001BF013C015F014C016F0151E161E154A0E
:10373800162A15C013F016C014F0A7EF1BF013C01B
:1037480013F014C014F01200000E026E000E016E89
:10375800320E0124D96E010E0220DA6E000EDF6EE1
:10376800014A022A02BEC2EF1BF0025009E1320EE2
:10377800015CD8A0C2EF1BF0C4EF1BF0ACEF1BF04C
:10378800000E0101636F1200020E0FEC19F0000920
:10379800D8B4D1EF1BF0D3EF1BF0E6EF1BF0010E0E
:1037A8000FEC19F00009D8B4DCEF1BF0DEEF1BF0CA
:1037B800E6EF1BF0000E036E000E01EC1DF0450E47
:1037C80029EC1DF0120064EC1DF0AE0E5AEC1DF051
:1037D80004505AEC1DF003505AEC1DF060EC1DF03B
:1037E800AF0E5AEC1DF010EC1DF0066E68EC1DF0E3
:1037F8000D0E056EFC0EE82EFED7052EFCD70650E2
:1038080012000001C951D8A40CEF1CF00EEF1CF0F7
:103818001EEF1CF0030E0FEC19F00009D8B417EFD7
:103828001CF019EF1CF020EF1CF0450E29EC1DF0E0
:1038380020EF1CF0000EC96F1200D00E036EFF0EB1
:10384800046E01C005F002C006F0035005260450BE
:10385800062206500AE10A0E055CD8A036EF1CF0D5
:1038680039EF1CF0010E3AEF1CF0000E016E026AEF
:10387800120001C003F002C004F045EF1CF0014A39
:10388800022A01C0D9FF02C0DAFFDF50D8A44FEFE7
:103898001CF051EF1CF043EF1CF00350015C016E6B
:1038A80004500258026E1200100E056E058205C003
:1038B80003F0020E01EC1DF0000E036E010E01EC88
:1038C8001DF0000E036E000E01EC1DF0C00E026E1E
:1038D8007F0E036E17EC1AF0120064EC1DF0AE0EAA
:1038E8005AEC1DF008505AEC1DF007505AEC1DF028
:1038F80009505AEC1DF068EC1DF00D0E0A6EFC0E16
:10390800E82EFED70A2EFCD71200026EDEEC1CF061
:10391800C586DEEC1CF0C9CF03F0DEEC1CF00250CB
:10392800D8B499EF1CF09CEF1CF0C58A9DEF1CF0F1
:10393800C59AC58803501200000EB6EC1CF0F1ECD5
:103948001CF00001D06F010EB6EC1CF0F1EC1CF07D
:103958000001D16F020EB6EC1CF0F1EC1CF0000176
:10396800D26F1200036E64EC1DF0D00E5AEC1DF0FD
:1039780003505AEC1DF060EC1DF0D10E5AEC1DF00E
:1039880010EC1DF0046E68EC1DF00450120001509C
:103998000302F3CF05F0F4CF06F001500402F35010
:1039A800062602500302F350062605C001F006C0A1
:1039B80002F01200C5CF01F01F0E0116D8A4E7EFE0
:1039C8001CF0E9EF1CF0DEEF1CF0C7B4EEEF1CF0C2
:1039D800F0EF1CF0DEEF1CF01200026E02380F0B45
:1039E8000F0B036E02C001F00F0E011603500A0DF3
:1039F800F3500124036E03501200046E64EC1DF0B2
:103A0800D00E5AEC1DF004505AEC1DF003505AEC3D
:103A18001DF068EC1DF01200DEEC1CF0C586DEEC33
:103A28001CF0C9CF02F0DEEC1CF0C58AC588025034
:103A38001200036E64EC1DF0460E5AEC1DF00350A4
:103A48005AEC1DF068EC1DF01200016E01C0ADFFCC
:103A5800ACA231EF1DF033EF1DF02CEF1DF012007A
:103A680093809382800EC76E280EC66E000EC56EB8
:103A7800090EC86E1200820E046EDE0EE82EFED706
:103A8800042EFCD7000E1DEC1DF01200030EB6EC40
:103A98001CF0F1EC1CF00001CF6F1200286E756C61
:0B3AA8006C290064000000696769677A
:103AB400026EDEEC1CF002C0C9FF1200DEEC1CF04A
:103AC400C5821200DEEC1CF0C5801200DEEC1CF096
:063AD400C584120012007F
:107C8800000D0A20332E2050726F6772616D617289
:107C9800207469656D706F20646520496C756D6925
:107CA8006E6163696F6E20656E20756E20686F72F5
:107CB8006172696F200D0A000D0A54203D204D495C
:107CC8004E55544F53205155452044555241524129
:107CD800204C4120494C554D494E4143494F4E0D8A
:107CE8000A000D0A44203D2044494153205155457E
:107CF80020454E204C4F532051554520534520498F
:107D08004C554D494E4152410D0A000D0A20322E64
:107D180020417369676E617220486F726172696F82
:107D280073207061726120496C756D696E61722093
:107D38000D0A00484F5241203D2025302E32643A2A
:107D480025302E3264207C20444941203D204D4975
:107D58004552434F4C45530D0A000D0A20496E67A2
:107D68007265736120756E61206F7063696F6E2034
:107D780061205265616C697A61723A200D0A004887
:107D88004F5241203D2025302E32643A25302E3284
:107D980064207C20444941203D20444F4D494E47B2
:107DA8004F0D0A00484F5241203D2025302E3264A5
:107DB8003A25302E3264207C20444941203D20560B
:107DC8004945524E45530D0A0020202020202020EE
:107DD800202020202020202020202020202020209B
:107DE80020202020444C4D494A56530D0A000D0AC4
:107DF80020382E20436172676172206461746F734A
:107E0800206465206C61206D656D6F726961200D5D
:107E18000A00484F5241203D2025302E32643A2531
:107E2800302E3264207C20444941203D2053414279
:107E380041444F0D0A00484F5241203D2025302E25
:107E480032643A25302E3264207C20444941203D5A
:107E5800204D41525445530D0A00484F5241203D90
:107E68002025302E32643A25302E3264207C20447E
:107E78004941203D204A55455645530D0A00484F73
:107E88005241203D2025302E32643A25302E32646E
:107E9800207C20444941203D204C554E45530D0A35
:107EA800000D0A20352E204D6F7374726172207692
:107EB800616C6F7265732073656E736F7265732082
:107EC8000D0A000D0A20342E2044616D652064617E
:107ED800746F732064656C2073697374656D6120B9
:107EE8000D0A000D0A52203D20494C554D494E417E
:107EF80052282031205349207C2030204E4F290D14
:107F08000A000D0A20312E2046696A617220486FE6
:107F180072612041637475616C200D0A000D0A209E
:107F2800372E2046696A6172204469612041637472
:107F380075616C200D0A000D0A20362E20417369E8
:107F4800676E617220536574706F696E740D0A00F4
:107F5800483A2532647C523A25647C543A25326486
:107F68007C443A25730D0A000D4C757A206D6564C2
:107F78006964613A202564206C7578730A0D000DD8
:107F88000A53697374656D6120496E696369616438
:107F98006F0A0D000D0A536574706F696E74203D89
:107FA800202564207C200041542B4E414D45534DE3
:107FB800415254484F4D45000D0A52544320444500
:107FC8004641554C540A0D000D0A204F7063696FE5
:107FD8006E3A20200D000D0A48203D20484F52419E
:107FE8000D0A0041542B50494E323530310041546E
:087FF8002B4241554434000006
:020000040020DA
:08000000FFFFFFFFFFFFFFFF00
:020000040030CA
:0E0000000000191EFF8180FF0FC00FE00F40AF
:00000001FF
